:0420000061EF11F08B
:08200800F76A180FF66E200EB6
:10201000F7220900F5501200280C0106EA6A110E99
:10202000E96EEF500EE00F0E016E006A002EFED733
:10203000012EFBD78F0E006E002EFED70000EF2E74
:10204000F2D7120018B002D08C9801D08C889598E5
:1020500018B202D08C9A01D08C8A959A18B402D00A
:102060008C9C01D08C8C959C18B602D08C9E01D093
:102070008C8E959E000094948B84070E006E002E2B
:10208000FED700D094948B941200196A94948B8498
:1020900000009588199083B81980958A199283BA9F
:1020A0001982958C199483BC1984958E199683BED8
:1020B000198694948B9419C001F0120094928B822B
:1020C0000000E3DF01C018F0E0DF01C017F01838AE
:1020D000006EF00E001600501710016E73EF10F036
:1020E00094908B90EBD701C017F001BEFBD715522F
:1020F00003E094908B8002D094908B900000949297
:102100008B92000094948B941638176E0F0E17164E
:1021100017C018F097DF16500F0B176E186E92DF6E
:10212000120094908B9094928B9294948B940F0EB7
:10213000116E74DF076A0750020808E3030E186E79
:1021400081DF050E116E6ADF072AF5D7020E186EC1
:1021500079DF076A0750030809E3036A075054DF71
:10216000086E156A166EBCDF072AF4D76EEF11F001
:10217000122C01D003D0400E136E01D0136A010E51
:10218000115C132613508009146E156A166EA8DFB1
:10219000120010500C0A05E0060A0BE0020A0FE0DC
:1021A00013D0156A010E166E9BDF020E116E36DF1C
:1021B00011D0010E116E020E126EDADF0BD0156A0D
:1021C000100E166E8DDF06D0010E156E10C016F0C3
:1021D00087DF00D01200EACF0FF0E9CF0EF008AE93
:1021E00008D00E8E0EA80E2A071E081E072AD8B485
:1021F000082A0838F0090A6E0A26E20F0B6E320F21
:102200000D6E08500F0B0B260B260D26E90F0C6EDA
:102210000C260C2607380F0B0C260D260C360D3617
:102220000D1E0D3607500F0B0D260A36070E096ED0
:102230000A0E0C060D26FDE30B060C26FDE30A062E
:102240000B26FDE309060A26FDE3EA6A090EE96E9C
:10225000070E0E140E9CE9060E1407E10EB8E92ACB
:102260000EB803D0200E006E1CD0E9260D0EE95CDE
:10227000D8B40E8CEF50006E08E10EBC06D00EB83C
:102280001BD00EB602D0200E0BD00EAE06D02D0EF7
:10229000006EED500E9C0E9E04D00E860E98300EF1
:1022A0000026EACF08F0E9CF07F000C010F071DF98
:1022B00008C0EAFF07C0E9FFEE500EACD7D789EFA0
:1022C00011F0F86AD09EEA6AE96AC150C00B0F09A2
:1022D000C16E070EB46E066A056A23D7C69A949E2D
:1022E00093809382250EC66E000EC76EC7A01AD0CB
:1022F000066AC9CF05F0010E116E126E39DF200E8D
:10230000106E47DF100EE96E06C008F005C007F03A
:1023100062D7200E106E3DDF200E106E3ADF200EC9
:08232000106E37DFE3D7030064
:020000040030CA
:0E00000024CE3E1E0085A1000FC00FE00F4071
:00000001FF
;PIC18F4550
;CRC=87F1  CREATED="22-sep-15 12:48"
