:04200000DBEF1BF007
:08200800046ED8CF05F0E0CF13
:1020100006F00001E9CF0CF0EACF07F0E1CF08F0BD
:10202000E2CF09F0D9CF0AF0DACF0BF0F3CF12F0FC
:10203000F4CF13F0FACF14F0F5CF15F0F6CF16F079
:10204000F7CF17F000C00EF001C00FF002C010F083
:1020500003C011F0A0AA30EF10F0A1BACDEF17F035
:102060000EC000F00FC001F010C002F011C003F06C
:102070000CC0E9FF07C0EAFF078E08C0E1FF09C0F6
:10208000E2FF0AC0D9FF0BC0DAFF12C0F3FF13C092
:10209000F4FF14C0FAFF15C0F5FF16C0F6FF17C015
:1020A000F7FF045006C0E0FF05C0D8FF1000F76A34
:1020B000BE0FF66E200EF7220900F5501200000345
:1020C00002FFFFFFFFFFFFFFFFFFFFFFFFFFF76ABA
:1020D000DE0FF66E200EF7220900F550120000FF09
:1020E00002FFFFFFFFFFFFFFFFFFFFFFFFFFF76A9A
:1020F000FE0FF66E200EF7220900F5501200400088
:102100000800400000000000000000000000000087
:102110000000000000000000000000000000F76A5E
:102120002E0FF66E210EF7220900F5501200400026
:10213000000040000000000000000000000000005F
:102140000000000000000000000000000000F76A2E
:102150005E0FF66E210EF7220900F55012000902FB
:102160004300020100803209040000010202010064
:1021700005240010010424020205240600010524A0
:10218000010001070581030800FA09040100020AA1
:10219000000000070502024000010705820240001E
:1021A0000100F76AB20FF66E210EF7220900F55012
:1021B00012000200F76AC40FF66E210EF722090022
:1021C000F550120012171B20FFFFFFFFF76ADC0F0C
:1021D000F66E210EF7220900F550120012011001CF
:1021E00002000040D8040200000101020001F76A69
:1021F000FE0FF66E210EF7220900F55012000403BF
:10220000090408034300430053001803530045002A
:102210005200490041004C002000440045004D00A0
:102220004F006D92699468A402D06894FCD7D9EFEE
:1022300017F0400E0401016F040E036F180E026FB9
:10224000880E006F046B040E076F580E066F0001B6
:10225000120070A002D0EDDF7090689AE2EF17F0E4
:102260006A6A6892E8EF17F0B591B4BFB581B49F80
:10227000B451100803E2000E016E17D0B5A10BD0C7
:10228000036AB45114DFFF0802E1000E01D0010E11
:10229000016E0BD00AD0036AB45119DFFF0802E1C6
:1022A000000E01D0010E016E00D01200B951BB0327
:1022B000F3CF01F0F4CF00F0BC03F3500026BA5185
:1022C000BB03F3500020026E1200036AB351700F7B
:1022D000E96E0F0E0320EA6EEF6AB3C0B4F0C4DFFC
:1022E000015222E0BA6BB3C0B9F0BC6B080EBB6FF1
:1022F000DDDF01C0E9FF040E0224EA6EEF6ABA6B6B
:10230000B3C0B9F0BC6B080EBB6FD0DF02C0B5F034
:1023100001C0B4F0040EB427000EB523B4C0E9FF29
:10232000040EB525EA6EEF6A1200010EB26FB251CB
:102330000F0805E3B2C0B3F0C8DFB22BF8D7120024
:102340002D6A2C6A250E2B6E800E2A6E2E6A2F6A3D
:10235000080E306E7F6B7E91326A316A7A6B7B91A8
:10236000806B1200A86BA85101080AE3036AA85108
:10237000280FE96E000E0320EA6EEF6AA82BF3D750
:10238000DFDF1B6A010E1C6E1A6A120068961200CB
:102390006A6A686A9F0E6B6E3D0E696E6E6AC5DF73
:1023A000E1DF160E706E68A602D0F0DFFCD76D98E4
:1023B00040DF030E226EEEEF17F0698468986D829D
:1023C000F4EF17F0689CFAEF17F0ADC023F012009D
:1023D00023681200AB6B275226E0AB513F0823E382
:1023E0001D5005E0020A08E0010A0BE00FD0036A65
:1023F0002650ADDEAC6F0AD0036A2650F8DEAC6F13
:1024000005D0036A2650E2DEAC6F00D0262A2706EC
:10241000AB51AB2B580FE96E040EEA6ED8B0EA2A26
:10242000ACC0EFFFD8D7275204E1AB51400801E020
:102430001A6AABC0ADF0C9DF1200266A1D6A04013A
:102440001B51010A000107E0030A0AE0010A0BE040
:10245000220A1BE02BD0120E276E030E1D6E28D011
:10246000430E276E25D0020E1D6E036A04011A5119
:102470001E0FE96E000E0320EA6EEFCF26F0036A0E
:1024800026500001B4DE276E13D0036A04011A51EE
:10249000000190DE266E263C01D006D0036A26504D
:1024A00056DE276E05D002D093DF0ED091DF0CD020
:1024B00004011F5305E127501E5D02E21EC427F0F0
:1024C000010E1A6E000186DF88EF13F0AA5304E1B3
:1024D000040E226E2ADFC9D0050E226E040EAD6FE7
:1024E000980EAC6F010EAB6FAB510F08D8A0BDD0EA
:1024F000ABC0B3F0EADEAE6B036AAB51E8DDFF08B8
:1025000059E0040EAE6FD890AB35036A08DE0900BF
:10251000F5CF03F0AF6F03C0B0F0BA6BABC0B9F04A
:10252000BC6B080EBB6FC2DE01C0B2F0010E01240D
:10253000016E000E0220036E01C0E9FF040E0324A9
:10254000EA6EAFC0EFFFBA6BABC0B9F0BC6B080E60
:10255000BB6FACDE01C0B2F0020E0124016E000EB2
:102560000220036E01C0E9FF040E0324EA6EADC031
:10257000ECFFED52ACC0EFFFD890AB35036ACFDD76
:102580000900F5CF03F0AC270350AD23880EB16FDF
:10259000B0B1B181B0B3B183BA6BABC0B9F0BC6BB1
:1025A000080EBB6F83DE01C0E9FF040E0224EA6E51
:1025B000B1C0EFFF036AAB517ADDFF0840E0AE83A4
:1025C000BA6BABC0B9F0BC6B080EBB6F6FDE02C05C
:1025D000B3F001C0B2F0040EB227000EB323020E16
:1025E000B225016E000EB321036E01C0E9FF040E97
:1025F0000324EA6EADC0ECFFED52ACC0EFFFD89003
:10260000AB35036A74DD0900F5CF03F0AC27035046
:10261000AD23BA6BABC0B9F0BC6B080EBB6F46DE26
:1026200002C0B3F001C0B2F0040EB227000EB32313
:10263000B2C0E9FF040EB325EA6E400EEF6EAE5154
:10264000060802E10E0EAE6F036AAB5130DD0108E1
:10265000D8A4AE89036AAB51700FE96E0F0E032048
:10266000EA6EAEC0EFFFAB2B3FD782EF13F0040151
:102670001951000A00010DE0010A14E0020A1EE0EF
:10268000060A27E0030A2CE00E0A2CE0010A30E0DB
:102690003DD01CC058F40401596B020E0001AD6F0F
:1026A00094DE36D004011A2D06D0010E1C1600014E
:1026B000AD6B8BDE02D000018BDE2AD004011A2D17
:1026C00005D01C820001AD6B80DE02D0000180DEEF
:1026D0001FD0020E1A6E1AC424F0AD6B76DE18D02D
:1026E000ACD616D01BC058F4010EAD6F6EDE10D004
:1026F00004011A51010808E31AC41BF01AC4AAF015
:102700000001E4D6AD6B61DE000102D061DE00D0D5
:10271000FCEF14F01BC0AAF004011951000A0001DB
:1027200005E00A0A0BE0010A26E037D00401586BE5
:10273000596B020E0001AD6F48DE31D0AA5319E08B
:10274000010EAA5D036A2DDD016E04011C5DD8A097
:1027500002D000010ED0036A1C51280FE96E000E52
:102760000320EA6EEFCF58F4010E0001AD6F2DDEAD
:1027700001D02EDE14D0AA530EE0036A04011C51CE
:10278000280FE96E000E0320EA6E1AC4EFFF000165
:10279000AD6B1BDE01D01CDE02D01ADE00D0FCEFD8
:1027A00014F0AB91AABFAB81AA9FABA117D0BA6BB3
:1027B000AAC0B9F0BC6B080EBB6F78DD02C0ADF0EB
:1027C00001C0ACF0040EAC27000EAD23ACC0E9FF95
:1027D000040EAD25EA6E880EEF6E0DD0BA6BAAC05E
:1027E000B9F0BC6B080EBB6F61DD01C0E9FF040EE0
:1027F0000224EA6EEF6A71EF14F0AB91AABFAB81CD
:10280000AA9FABA117D0BA6BAAC0B9F0BC6B080ED7
:10281000BB6F4CDD02C0ADF001C0ACF0040EAC27C4
:10282000000EAD23ACC0E9FF040EAD25EA6E840EA8
:10283000EF6E0ED0BA6BAAC0B9F0BC6B080EBB6FBE
:1028400035DD01C0E9FF040E0224EA6E840EEF6E4E
:1028500077EF14F0AB91AABFAB81AA9FABA117D0C1
:10286000BA6BAAC0B9F0BC6B080EBB6F1FDD02C00B
:10287000AEF001C0ADF0040EAD27000EAE23ADC02A
:10288000E9FF040EAE25EA6EEFCFACF00ED0BA6BC6
:10289000AAC0B9F0BC6B080EBB6F08DD01C0E9FF30
:1028A000040E0224EA6EEFCFACF0ACAF02D0ACB5B0
:1028B00002D0000E01D0010E016E81EF14F01CC495
:1028C000B4F0D2DC015229E004011951010A0001DF
:1028D00005E0020A09E0030A0DE01DD01CC4AAF0BD
:1028E00060D7AD6B72DD19D01CC4AAF086D7AD6B72
:1028F0006CDD13D00401586B596B1CC4AAF00001A5
:10290000A9D7015204E0010E0401586F0001020E24
:10291000AD6F5BDD02D05CDD00D0FCEF14F0FE0E8D
:10292000236E120004011C2D01D002D01C5349E17A
:102930001951000A00010BE0010A0DE0210A1CE018
:10294000010A1FE0030A2EE0010A31E037D0010E30
:10295000806FE5DF35D0040EEA6E580EE96EE26A4C
:10296000330EE16E080E016EE6CFEEFF012EFCD7AE
:102970001EC4ADF02ADD24D0020E806F7E81CFDF31
:102980001FD0040EEA6E580EE96EE26A2A0EE16E5E
:10299000070E016EE6CFEEFF012EFCD7070EAD6FDE
:1029A00014DD0ED01AC47FF0AD6B0FDD09D01AC450
:1029B00032F01BC431F0AD6B08DD02D009DD00D070
:1029C00004010001FCEF14F01A6A040118517F0B96
:1029D000000A000107E0010A07E0030A07E0230AF2
:1029E00007E008D044D608D095D606D068D704D0E2
:1029F00099D702D0EDDC00D021EF17F0BA6BABC055
:102A0000B9F0BC6B080EBB6F51DC01C0E9FF040ECE
:102A10000224EA6EEFCFADF0AC51020806E1ADAD95
:102A200002D0AC6B02D0010EAC6FAC51030819E1BF
:102A3000840EAD6FBA6BABC0B9F0BC6B080EBB6F48
:102A400035DC02C0B1F001C0B0F0040EB027000EBA
:102A5000B123B0C0E9FF040EB125EA6E840EEF6E1B
:102A600007D0AC2D03D0C80EAD6F02D0880EAD6F6D
:102A7000D890AB35036A8FEC10F00900F5CF03F066
:102A8000AE6F03C0AFF0BA6BABC0B9F0BC6B080E51
:102A9000BB6F0CDC01C0B0F0010E0124016E000E12
:102AA0000220036E01C0E9FF040E0324EA6EAEC0EB
:102AB000EFFFAFB1AD81AFB3AD83BA6BABC0B9F0CF
:102AC000BC6B080EBB6F56EC11F001C0E9FF040EA1
:102AD0000224EA6EADC0EFFF1200036AB851700F16
:102AE000E96E0F0E0320EA6EEF5219E0BA6BB8C020
:102AF000B9F0BC6B080EBB6F56EC11F002C0BAF017
:102B000001C0B9F0040EB927000EBA23B9C0E9FF1D
:102B1000040EBA25EA6EEFCFBBF0BBAF02D0000EB9
:102B200001D0010E016E1200B3C0B8F0D6DF015221
:102B3000D8B47CD0BA6BB3C0B9F0BC6B080EBB6F15
:102B400056EC11F002C0B9F001C0B8F0040EB8277D
:102B5000000EB923010EB825016E000EB921036ED7
:102B600001C0E9FF040E0324EA6EB4C0EFFFB651C2
:102B700002081EE1BA6BB3C0B9F0BC6B080EBB6FA4
:102B800056EC11F002C0B9F001C0B8F0040EB8273D
:102B9000000EB923B8C0E9FF040EB925EA6EEFCFE5
:102BA000B7F0B7AD02D0B66B02D0010EB66F18D039
:102BB000B651040815E1BA6BB3C0B9F0BC6B080E8E
:102BC000BB6F56EC11F001C0E9FF040E0224EA6E5F
:102BD000EFCFB7F0B7AD03D0010EB66F01D0B66B33
:102BE000B62D03D0C80EB76F02D0880EB76FB5B13F
:102BF000B781B5B3B783BA6BB3C0B9F0BC6B080E7D
:102C0000BB6F56EC11F002C0B9F001C0B8F0040E71
:102C1000B827000EB923B8C0E9FF040EB925EA6E43
:102C2000B7C0EFFF010E016E03D000D0000E016EA1
:102C300012008051010A03E0030A13E024D0EA6A7B
:102C4000330EE96E040EE26E180EE16E080E016E90
:102C5000E6CFEEFF012EFCD7AD6BE5EC11F0806BFB
:102C600014D0EA6A2A0EE96E040EE26E180EE16EC6
:102C7000070E016EE6CFEEFF012EFCD7806BAD6B29
:102C8000E5EC11F002D0806B00D07BEF16F0BA6B50
:102C9000ABC0B9F0BC6B080EBB6F56EC11F002C0B4
:102CA000ADF001C0ACF0010E0124016E000E022057
:102CB000036E01C0E9FF040E0324EA6E036AEFCF3E
:102CC00001F003C002F071EF16F07B91020EAB6FC2
:102CD000AC6F94DE76EF16F07B817D6B020EAB6FEE
:102CE000D6D701C07CF07C5301E1EFD780EF16F01E
:102CF000AA5302E19ED704D0AA51020801E1ECD701
:102D00001200ABC06EFFAB5303E0040E226E02D084
:102D1000020E226E91EF16F01B6A1A6A24C0ABF005
:102D2000F0D700EF17F0ABC0B8F0D7DE015246E0A5
:102D3000BA6BABC0B9F0BC6B080EBB6F56EC11F0B0
:102D400002C0B4F001C0B3F0040EB327000EB423E8
:102D5000020EB325016E000EB421036E01C0E9FF1F
:102D6000040E0324EA6EECCF03F0ED52EFCFB1F086
:102D700003C0B2F0B2C0EAFFB1C0E9FFADC0E2FFEC
:102D8000ACC0E1FFAFC002F0AEC001F0015202E002
:102D9000022A02D0025206E0E6CFEEFF012EFCD757
:102DA000022EFAD7ABC0B3F0AFC0B5F0AEC0B4F0EE
:102DB000B0C0B6F0B9DE015003D000D0000E016EF5
:102DC00012007A530EE0020EAB6FAD6B3B0EAC6F90
:102DD000AF6B7AC0AEF0020EB06FA5DF015201E01A
:102DE0007A6B1200EEDF05EF17F0AA530AE11A2CF6
:102DF00003D0EAEC11F004D01A50020801E18CD79C
:102E000004D0AA51020801E1EDD712002130A86FC9
:102E1000A833A8331F0EA817215242E10401005124
:102E20003C0B0001A96F430E040100170001A951DA
:102E300034081EE104010451800B01E0046B000121
:102E4000C3D56D98233C05D0AB6B030EAC6FD6DDBC
:102E50000ED0AB6B020EAC6FD1DD2350FE0807E045
:102E6000B36BB56B23C0B4F0040EB66F5DDE17D044
:102E7000A951040814E1AA6B3BDFAB6B020EAC6FE7
:102E8000BDDD2350FE080AE0233C01D007D0B36B20
:102E9000B56B23C0B4F0010EB66F46DE00D07BD018
:102EA0002150040813E1430E0401041723680001B4
:102EB000AA6B9BDF233C01D008D0B36BB56B23C05A
:102EC000B4F0020EB66F30DE00D065D021B42CD045
:102ED000BA6BA8C0B9F0BC6B080EBB6F56EC11F012
:102EE00002C0ABF001C0AAF001C001F0040E022440
:102EF000036E01C0ACF0AD6FBA6BA8C0B9F0BC6B8B
:102F0000080EBB6F56EC11F001C0E9FF040E02245D
:102F1000EA6EEF50430BADC0EAFFACC0E9FFEF6EC5
:102F2000A8C0AAF0E5DE37D0BA6BA8C0B9F0BC6B78
:102F3000080EBB6F56EC11F002C0ABF001C0AAF056
:102F4000040EAA27000EAB23AAC001F0040EAB2585
:102F5000036EAAC0ACF0AD6FBA6BA8C0B9F0BC6B81
:102F6000080EBB6F56EC11F002C0AFF001C0AEF01E
:102F7000040EAE27000EAF23AEC0E9FF040EAF254E
:102F8000EA6EEF50430BADC0EAFFACC0E9FFEF6E55
:102F9000A8C0AAF02ADF04EF18F0A19A225201E19A
:102FA00039D0685237E068A404D069A402D011EF88
:102FB00011F06DA201D02ED068AA04D069AA02D067
:102FC00029EF11F068A204D069A202D030EF11F00D
:102FD00068A004D069A002D0C8EF11F068A804D09E
:102FE00069A802D0DDEF11F068AC04D069AC02D062
:102FF000E2EF11F0A76B68A608D069A606D06CCFE7
:1030000021F0C6EC11F002D701D004D0A751A72BB4
:103010000308F1E230EF10F054454D503A20256698
:10302000200D0A006D6A696A080E6F6E94503009AF
:10303000946E226A196AF2BE198EF29EB2EC11F0F9
:1030400019BEF28E25EF18F0EDD74BEF18F0196A84
:10305000F2BE198EF29EB2EC11F019BEF28E6D6ABC
:10306000140E6F6E696A6D86010E226E3BEF18F0CA
:103070006DB601D0ECD7222C0BD06DBA09D0686A9E
:10308000696AA08AC00EF212110E696E020E226EDB
:103090004CEF18F0D9D7ECD722500208FCE158EFDA
:1030A00018F01B5202E10400FCD759EF18F0F2D7D8
:1030B000F8D70AEF1CF0EA6A8E0EE96EEF500EE0C8
:1030C0000F0E016E006A002EFED7012EFBD78F0E69
:1030D000006E002EFED70000EF2EF2D71200010E78
:1030E000905F0CE3EA6A900EE96EEF5007E0020E83
:1030F000006E002EFED700D0EF2EF9D7120092906E
:103100008990020E8E6FFA0E906FE9DF8E2FFBD73B
:103110009280020E8E6FFA0E906FE1DF8E2FFBD73A
:10312000928012008F6B8F5107081BE39290899059
:10313000070E006E002EFED700D0D8908E3302E22C
:10314000899001D089809290EF0E006E002EFED7FC
:1031500000D09280070E006E002EFED700D08F2B7D
:10316000E2D712008E6B8E51070819E39290899076
:10317000070E006E002EFED700D092801F0E006E4C
:10318000002EFED700D0928080B002D0D89001D01F
:10319000D8808F33780E906FA2DF8E2BE4D78FC04C
:1031A00001F012008E0E006E8FC001F08EC002F092
:1031B000036A8FAF05D0011E021E022A01E1012A17
:1031C000015209E102C001F0026A080E005E0152DC
:1031D00002E1006A0AD0D89001BE04D0023601365E
:1031E0000006F9D78FBF01D0019EC9EF19F09251A7
:1031F000D8B4A5D09E6F9651D8B4A1D09E5F05E3F8
:103200007F0E9E27D8B09BD006D0810E9E5FD8A09F
:1032100096D0D8B494D09EC000F0016A026A036AC6
:103220009D6B93C09CF09C8F94C09BF095C09AF0CE
:10323000190E9E6F99519A5F0DE2010E9B5F0AE293
:103240009C5F08E29D5F06E29D2B9C2B9B2B995176
:103250009A2728D098519B5F12E2010E9C5F0FE2E3
:103260009D5F0DE29D2B9C2B98519B2799519A278E
:1032700019E39B2B17E19C2B15E19D2B13D0975144
:1032800080099C5F0EE2010E9D5F0BE29D2B975122
:1032900080099C2798519B27E9E39C2BE7E19D2B14
:1032A000E5D703809E2F01D00BD0D8909A379B375B
:1032B0009C379D37D8900336023601369F37BAD7F0
:1032C0009FA106D0D8900132023203329F3302D040
:1032D000000635E09FBF1ED0D8909A379B379C37A9
:1032E0009D3799519A5F07E2010E9B5F04E29C5F54
:1032F00002E29D5F1AE398519B5F05E2010E9C5F1D
:1033000002E29D5F12E3975180099C5F03E2010E88
:103310009D5F0BE3032A09E1022A07E1012A05E187
:10332000002A0DE001320232033293C09EF0975121
:103330009E1B9EAF02D0018E06D0019E04D0006A73
:10334000016A026A036AE0EF19F0856BD8DECC0EE1
:103350008E6FE8DE440E8E6FE5DE855304E102DFFA
:1033600001C085F0FAD7CBDECC0E8E6FDBDEBE0E51
:103370008E6FD8DEF7DE01C086F0F4DE01C087F084
:1033800087C089F086C088F089C08FF088C08EF031
:1033900009D700C08EF001C08FF002C090F003C0CA
:1033A00091F003C095F002C094F001C093F000C00A
:1033B00092F0996B986B200E976F830E966F17D7CC
:1033C00003C08DF002C08CF001C08BF000C08AF009
:1033D000C80E8E6F70DE8AC000F08BC001F08CC00A
:1033E00002F08DC003F012EF1CF09591F2BE9581B2
:1033F000F29E7A513E0802E23E0E7A6F7A517A2BA3
:10340000036A3B0FE96E000E0320EA6E94C0EFFFE3
:10341000F29E95B1F28E10EF1AF093C094F0E5D7BA
:10342000196AF2BE198EF29E020EB86F6DEC15F09D
:1034300019BEF28E015207E0196AF2BE198EF29E91
:10344000C0DC19BEF28E2CEF1AF07A513E0801E270
:10345000FCD792C093F0E1D712000900F6CF86F0B6
:10346000F7CF87F0F5CF92F0F0DF86C0F6FF87C088
:10347000F7FF852FF2D721EF1CF09251D8B471D00D
:10348000006E9651D8B46DD0002604E3810E00265C
:1034900068E204D07F0E005E64E363E093C09AF0BC
:1034A00097519A1B938F978F95519903F4CF9CF066
:1034B00094519803F4CF03F0F3CF9BF09903F350AA
:1034C0009C27F4509B23000E032295519803F35040
:1034D0009C27F4509B23000E026A03220222935180
:1034E0009903F3509B27F4500322000E02229351BC
:1034F0009803F3500326F4500222000E016A0122C1
:1035000095519703F3509B27F4500322000E02229B
:10351000012294519703F3500326F4500222000E27
:10352000012293519703F3500226F4500122002AFE
:1035300001BE05D09B370336023601360006000E69
:103540009BAF0AD0032A02220122015005E102505A
:1035500003E1035001E1002A9ABF018E9AAF019E58
:1035600004D0006A016A026A036A32EF1BF09251CA
:10357000B608926F036A93C096F0938FD8909333F6
:10358000943395330332023201320032922FF6D750
:1035900096AF0BD0001E011E021E031E002AD8B4D7
:1035A000012AD8B4022AD8B4032A45EF1BF0D8B2B6
:1035B00003D0EA6A9A0EE96E006A016A026A036A37
:1035C0009A6B9B6B9C6B9D6B9951981197119611FF
:1035D0002CE0200E9E6FD890923793379437953712
:1035E0009A379B379C379D3799519D5D08E19851DB
:1035F0009C5D05E197519B5D02E196519A5D0FE359
:1036000096519A5F9751D8A0973D9B5F9851D8A04B
:10361000983D9C5F9951D8A0993D9D5FD880003618
:103620000136023603369E2FD6D79AC0EFFF9BC0D5
:10363000ECFF9CC0ECFF9DC0ECFF1200E9508A6FCC
:1036400089518C6F19E088C095F087C094F086C0CE
:1036500093F085C092F0996B986B200E976F820E55
:10366000966F0BD703C088F002C087F001C086F0C8
:1036700000C085F08C2FE7D788C095F087C094F004
:1036800086C093F085C092F072D703C088F002C064
:1036900087F001C086F000C085F088AF0DD08A07A2
:1036A0008A8B851F861F871F881F852BD8B4862B82
:1036B000D8B4872BD8B4882B3B0E916F9A0E906F9D
:1036C000CA0E8F6F8E6B0A0E8C6F8951D8B48A2BFD
:1036D000D882EA6A850EE96E88C095F087C094F0BA
:1036E00086C093F085C092F091C099F090C098F098
:1036F0008FC097F08EC096F05ADF015000520FE154
:1037000089298C5D0CE08A510CE00F0B8C5D01E087
:1037100037E28ABF35D08ABD04D0200E2DD0200ECE
:103720008A178AAB0CD08A9B8951D8A48A0700508B
:103730008A6F2D0E926F89DE8A51006E8A6B8951D5
:103740008C5D0AE100508A6F2E0E926F7EDE8A51E8
:10375000006E200E8A17000E300E8AAB0DD08A9BA9
:103760008951D8A48A0700508A6F2D0E926F6DDEA2
:103770008A51006E8A6B300E002600C092F065DE22
:10378000D89291C095F090C094F08FC093F08EC005
:1037900092F0996B986B976B0A0E966F08DF03C0D7
:1037A00091F002C090F001C08FF000C08EF08C2F1D
:1037B0008FD72EEF1CF0F86AD09E078EEA6AE96A6E
:1037C000226A276AC150C00B0F09C16E070EB46E82
:1037D0001E6A040E1F6E0C0E206EC150C00B0F0926
:1037E000C16EC2909698C66A880ED56ECD6A000EDC
:1037F000CA6E000ECB6E070EB46E9250926E270EFC
:10380000006E002EFED700D0B450A19CFE0EB56E07
:10381000978A4DD4020E856F960E8E6F4CDC852FE5
:10382000FBD793D503C084F002C083F001C082F0BF
:1038300000C081F0180EF66E300EF76E060E856F22
:103840000CD6890EE96E84C088F083C087F082C0F0
:1038500086F081C085F0020E896FF0D6200E926F3F
:10386000F4DD0D0E926FF1DD0A0E926FEEDDC80EE3
:083870008E6F21DCD6D70300A6
:020000040030CA
:0E00000024CE3E1E0085A1000FC00FE00F4071
:00000001FF
;PIC18F4550
;CRC=40B1  CREATED="22-sep-15 12:57"
