:042000004BEF19F099
:08200800046ED8CF05F0E0CF13
:1020100006F00001E9CF0CF0EACF07F0E1CF08F0BD
:10202000E2CF09F0D9CF0AF0DACF0BF0F3CF12F0FC
:10203000F4CF13F0FACF14F0F5CF15F0F6CF16F079
:10204000F7CF17F000C00EF001C00FF002C010F083
:1020500003C011F0A0AA30EF10F0A1BAD4EF17F02E
:102060000EC000F00FC001F010C002F011C003F06C
:102070000CC0E9FF07C0EAFF078E08C0E1FF09C0F6
:10208000E2FF0AC0D9FF0BC0DAFF12C0F3FF13C092
:10209000F4FF14C0FAFF15C0F5FF16C0F6FF17C015
:1020A000F7FF045006C0E0FF05C0D8FF1000F76A34
:1020B000BE0FF66E200EF7220900F5501200000345
:1020C00002FFFFFFFFFFFFFFFFFFFFFFFFFFF76ABA
:1020D000DE0FF66E200EF7220900F550120000FF09
:1020E00002FFFFFFFFFFFFFFFFFFFFFFFFFFF76A9A
:1020F000FE0FF66E200EF7220900F5501200400088
:102100000800400000000000000000000000000087
:102110000000000000000000000000000000F76A5E
:102120002E0FF66E210EF7220900F5501200400026
:10213000000040000000000000000000000000005F
:102140000000000000000000000000000000F76A2E
:102150005E0FF66E210EF7220900F55012000902FB
:102160004300020100803209040000010202010064
:1021700005240010010424020205240600010524A0
:10218000010001070581030800FA09040100020AA1
:10219000000000070502024000010705820240001E
:1021A0000100F76AB20FF66E210EF7220900F55012
:1021B00012000200F76AC40FF66E210EF722090022
:1021C000F550120012171B20FFFFFFFFF76ADC0F0C
:1021D000F66E210EF7220900F550120012011001CF
:1021E00002000040D8040200000101020001F76A69
:1021F000FE0FF66E210EF7220900F55012000403BF
:1022000009040C03500049004E00470055004900E6
:102210004E004F001803500049004E004700550083
:1022200049004E004F0020004A0041004300530087
:1022300053006D92699468A402D06894FCD7E0EFD3
:1022400017F0400E0401016F040E036F180E026FA9
:10225000880E006F046B040E076F580E066F0001A6
:10226000120070A002D0EDDF7090689AE9EF17F0CD
:102270006A6A6892EFEF17F0B291B1BFB281B19F75
:10228000B151100803E2000E016E17D0B2A10BD0BD
:10229000036AB1510CDFFF0802E1000E01D0010E0C
:1022A000016E0BD00AD0036AB15111DFFF0802E1C1
:1022B000000E01D0010E016E00D01200B651B8031D
:1022C000F3CF01F0F4CF00F0B903F3500026B7517B
:1022D000B803F3500020026E1200036AB051700F71
:1022E000E96E0F0E0320EA6EEF6AB0C0B1F0C4DFF2
:1022F000015222E0B76BB0C0B6F0B96B080EB86FF0
:10230000DDDF01C0E9FF040E0224EA6EEF6AB76B5D
:10231000B0C0B6F0B96B080EB86FD0DF02C0B2F033
:1023200001C0B1F0040EB127000EB223B1C0E9FF25
:10233000040EB225EA6EEF6A1200010EAF6FAF51C4
:102340000F0805E3AFC0B0F0C8DFAF2BF8D712001D
:102350002D6A2C6A250E2B6E800E2A6E2E6A2F6A2D
:10236000080E306E7F6B7E91326A316A7A6B7B9198
:102370001200A56BA55101080AE3036AA551280FB5
:10238000E96E000E0320EA6EEF6AA52BF3D7E0DFBB
:102390001B6A010E1C6E1A6A1200689612006A6AA5
:1023A000686A9F0E6B6E3D0E696E6E6AC6DFE1DF76
:1023B000160E706E68A602D0F0DFFCD76D9841DF74
:1023C000030E226EF5EF17F0698468986D82FBEFBB
:1023D00017F0689C01EF18F0AAC023F012002368E0
:1023E0001200A86B275226E0A8513F0823E31D5096
:1023F00005E0020A08E0010A0BE00FD0036A26504C
:10240000A6DEA96F0AD0036A2650F1DEA96F05D0B7
:10241000036A2650DBDEA96F00D0262A2706A851C2
:10242000A82B580FE96E040EEA6ED8B0EA2AA9C0AC
:10243000EFFFD8D7275204E1A851400801E01A6AFB
:10244000A8C0AAF0C9DF1200266A1D6A04011B5148
:10245000010A000107E0030A0AE0010A0BE0220A70
:102460001BE02BD0120E276E030E1D6E28D0430EDC
:10247000276E25D0020E1D6E036A04011A511E0F2D
:10248000E96E000E0320EA6EEFCF26F0036A2650B5
:102490000001ADDE276E13D0036A04011A5100015A
:1024A00089DE266E263C01D006D0036A26504FDE18
:1024B000276E05D002D093DF0ED091DF0CD004013F
:1024C0001F5305E127501E5D02E21EC427F0010ED6
:1024D0001A6E000186DF8FEF13F0A75304E1040E9C
:1024E000226E2BDFC9D0050E226E040EAA6F980E45
:1024F000A96F010EA86FA8510F08D8A0BDD0A8C021
:10250000B0F0EBDEAB6B036AA851E1DDFF0859E0E8
:10251000040EAB6FD890A835036A01DE0900F5CF31
:1025200003F0AC6F03C0ADF0B76BA8C0B6F0B96BE9
:10253000080EB86FC3DE01C0AFF0010E0124016EBA
:10254000000E0220036E01C0E9FF040E0324EA6EB0
:10255000ACC0EFFFB76BA8C0B6F0B96B080EB86F90
:10256000ADDE01C0AFF0020E0124016E000E0220AC
:10257000036E01C0E9FF040E0324EA6EAAC0ECFF5B
:10258000ED52A9C0EFFFD890A835036AC8DD090055
:10259000F5CF03F0A9270350AA23880EAE6FADB183
:1025A000AE81ADB3AE83B76BA8C0B6F0B96B080E01
:1025B000B86F84DE01C0E9FF040E0224EA6EAEC0EB
:1025C000EFFF036AA85173DDFF0840E0AB83B76BF0
:1025D000A8C0B6F0B96B080EB86F70DE02C0B0F0DC
:1025E00001C0AFF0040EAF27000EB023020EAF25DE
:1025F000016E000EB021036E01C0E9FF040E03243A
:10260000EA6EAAC0ECFFED52A9C0EFFFD890A83542
:10261000036A6DDD0900F5CF03F0A9270350AA2353
:10262000B76BA8C0B6F0B96B080EB86F47DE02C032
:10263000B0F001C0AFF0040EAF27000EB023AFC062
:10264000E9FF040EB025EA6E400EEF6EAB510608AE
:1026500002E10E0EAB6F036AA85129DD0108D8A470
:10266000AB89036AA851700FE96E0F0E0320EA6E62
:10267000ABC0EFFFA82B3FD789EF13F0040119512E
:10268000000A00010DE0010A14E0020A1EE0060A39
:1026900027E0030A2CE00E0A2CE0010A30E03DD0CE
:1026A0001CC058F40401596B020E0001AA6F94DE9D
:1026B00036D004011A2D06D0010E1C160001AA6B9B
:1026C0008BDE02D000018BDE2AD004011A2D05D04A
:1026D0001C820001AA6B80DE02D0000180DE1FD0C8
:1026E000020E1A6E1AC424F0AA6B76DE18D0ACD68D
:1026F00016D01BC058F4010EAA6F6EDE10D0040174
:102700001A51010808E31AC41BF01AC4A7F000010B
:10271000E4D6AA6B61DE000102D061DE00D003EFD7
:1027200015F01BC0A7F004011951000A000105E0D3
:102730000A0A0BE0010A26E037D00401586B596BF6
:10274000020E0001AA6F48DE31D0A75319E0010E36
:10275000A75D036A26DD016E04011C5DD8A002D0CE
:1027600000010ED0036A1C51280FE96E000E0320F1
:10277000EA6EEFCF58F4010E0001AA6F2DDE01D0F2
:102780002EDE14D0A7530EE0036A04011C51280F5B
:10279000E96E000E0320EA6E1AC4EFFF0001AA6B77
:1027A0001BDE01D01CDE02D01ADE00D003EF15F0D4
:1027B000A891A7BFA881A79FA8A117D0B76BA7C052
:1027C000B6F0B96B080EB86F79DD02C0AAF001C08F
:1027D000A9F0040EA927000EAA23A9C0E9FF040E40
:1027E000AA25EA6E880EEF6E0DD0B76BA7C0B6F0C3
:1027F000B96B080EB86F62DD01C0E9FF040E022458
:10280000EA6EEF6A78EF14F0A891A7BFA881A79F9E
:10281000A8A117D0B76BA7C0B6F0B96B080EB86FF8
:102820004DDD02C0AAF001C0A9F0040EA927000ED8
:10283000AA23A9C0E9FF040EAA25EA6E840EEF6E52
:102840000ED0B76BA7C0B6F0B96B080EB86F36DD07
:1028500001C0E9FF040E0224EA6E840EEF6E7EEFE3
:1028600014F0A891A7BFA881A79FA8A117D0B76B04
:10287000A7C0B6F0B96B080EB86F20DD02C0ABF090
:1028800001C0AAF0040EAA27000EAB23AAC0E9FFDC
:10289000040EAB25EA6EEFCFA9F00ED0B76BA7C040
:1028A000B6F0B96B080EB86F09DD01C0E9FF040E80
:1028B0000224EA6EEFCFA9F0A9AF02D0A9B502D0E9
:1028C000000E01D0010E016E88EF14F01CC4B1F0AF
:1028D000D3DC015229E004011951010A000105E08D
:1028E000020A09E0030A0DE01DD01CC4A7F060D75E
:1028F000AA6B72DD19D01CC4A7F086D7AA6B6CDD59
:1029000013D00401586B596B1CC4A7F00001A9D760
:10291000015204E0010E0401586F0001020EAA6F7B
:102920005BDD02D05CDD00D003EF15F0FE0E236E00
:10293000120004011C2D01D002D01C5349E1195191
:10294000000A00010BE0010A0DE0210A1CE0010A67
:102950001FE0030A2EE0010A31E037D0010E816F3B
:10296000E5DF35D0040EEA6E580EE96EE26A330EEA
:10297000E16E080E016EE6CFEEFF012EFCD71EC4FD
:10298000AAF02ADD24D0020E816F7E81CFDF1FD016
:10299000040EEA6E580EE96EE26A2A0EE16E070E28
:1029A000016EE6CFEEFF012EFCD7070EAA6F14DDF5
:1029B0000ED01AC47FF0AA6B0FDD09D01AC432F012
:1029C0001BC431F0AA6B08DD02D009DD00D0040180
:1029D000000103EF15F01A6A040118517F0B000A79
:1029E000000107E0010A07E0030A07E0230A07E005
:1029F00008D044D608D095D606D068D704D099D749
:102A000002D0EDDC00D028EF17F0B76BA8C0B6F00D
:102A1000B96B080EB86F52DC01C0E9FF040E022446
:102A2000EA6EEFCFAAF0A951020806E1AAAD02D0E2
:102A3000A96B02D0010EA96FA951030819E1840EF8
:102A4000AA6FB76BA8C0B6F0B96B080EB86F36DCCA
:102A500002C0AEF001C0ADF0040EAD27000EAE23F3
:102A6000ADC0E9FF040EAE25EA6E840EEF6E07D00E
:102A7000A92D03D0C80EAA6F02D0880EAA6FD890D5
:102A8000A835036A8FEC10F00900F5CF03F0AB6FA7
:102A900003C0ACF0B76BA8C0B6F0B96B080EB86F46
:102AA0000DDC01C0ADF0010E0124016E000E02200C
:102AB000036E01C0E9FF040E0324EA6EABC0EFFF12
:102AC000ACB1AA81ACB3AA83B76BA8C0B6F0B96B9E
:102AD000080EB86F5EEC11F001C0E9FF040E02248D
:102AE000EA6EAAC0EFFF1200036AB551700FE96EDB
:102AF0000F0E0320EA6EEF5219E0B76BB5C0B6F0C7
:102B0000B96B080EB86F5EEC11F002C0B7F001C0EF
:102B1000B6F0040EB627000EB723B6C0E9FF040EC8
:102B2000B725EA6EEFCFB8F0B8AF02D0000E01D0F3
:102B3000010E016E1200B0C0B5F0D6DF0152D8B45C
:102B40007CD0B76BB0C0B6F0B96B080EB86F5EEC56
:102B500011F002C0B6F001C0B5F0040EB527000EAA
:102B6000B623010EB525016E000EB621036E01C01D
:102B7000E9FF040E0324EA6EB1C0EFFFB35102086F
:102B80001EE1B76BB0C0B6F0B96B080EB86F5EEC63
:102B900011F002C0B6F001C0B5F0040EB527000E6A
:102BA000B623B5C0E9FF040EB625EA6EEFCFB4F048
:102BB000B4AD02D0B36B02D0010EB36F18D0B351D5
:102BC000040815E1B76BB0C0B6F0B96B080EB86F6A
:102BD0005EEC11F001C0E9FF040E0224EA6EEFCFB3
:102BE000B4F0B4AD03D0010EB36F01D0B36BB32D0D
:102BF00003D0C80EB46F02D0880EB46FB2B1B481E6
:102C0000B2B3B483B76BB0C0B6F0B96B080EB86F8F
:102C10005EEC11F002C0B6F001C0B5F0040EB527AD
:102C2000000EB623B5C0E9FF040EB625EA6EB4C0A7
:102C3000EFFF010E016E03D000D0000E016E1200F6
:102C40008151010A03E0030A13E024D0EA6A330E3B
:102C5000E96E040EE26E180EE16E080E016EE6CF0C
:102C6000EEFF012EFCD7AA6BECEC11F0816B14D0B7
:102C7000EA6A2A0EE96E040EE26E180EE16E070E85
:102C8000016EE6CFEEFF012EFCD7816BAA6BECEC58
:102C900011F002D0816B00D082EF16F0B76BA8C0A4
:102CA000B6F0B96B080EB86F5EEC11F002C0AAF076
:102CB00001C0A9F0010E0124016E000E0220036E76
:102CC00001C0E9FF040E0324EA6E036AEFCF01F0AE
:102CD00003C002F078EF16F07B91020EA86FA96F87
:102CE00094DE7DEF16F07B817D6B020EA86FD6D748
:102CF00001C07CF07C5301E1EFD787EF16F0A753BA
:102D000002E19ED704D0A751020801E1ECD71200DE
:102D1000A8C06EFFA85303E0040E226E02D0020E7C
:102D2000226E98EF16F01B6A1A6A24C0A8F0F0D73A
:102D300007EF17F0A8C0B5F0D7DE015246E0B76B39
:102D4000A8C0B6F0B96B080EB86F5EEC11F002C007
:102D5000B1F001C0B0F0040EB027000EB123020E96
:102D6000B025016E000EB121036E01C0E9FF040E13
:102D70000324EA6EECCF03F0ED52EFCFAEF003C0C8
:102D8000AFF0AFC0EAFFAEC0E9FFAAC0E2FFA9C042
:102D9000E1FFACC002F0ABC001F0015202E0022A38
:102DA00002D0025206E0E6CFEEFF012EFCD7022E43
:102DB000FAD7A8C0B0F0ACC0B2F0ABC0B1F0ADC0B3
:102DC000B3F0B9DE015003D000D0000E016E120046
:102DD000020EA86FAA6B3B0EA96FAC6B7AC0ABF06A
:102DE000020EAD6FA7DF7AC080F07A6B12007A53C3
:102DF00001E0EEDF0CEF17F0A7530AE11A2C03D025
:102E0000F1EC11F004D01A50020801E18CD704D083
:102E1000A751020801E1EBD712002130A56FA533BD
:102E2000A5331F0EA517215242E1040100513C0BAE
:102E30000001A66F430E040100170001A6513408DB
:102E40001EE104010451800B01E0046B0001C3D5B5
:102E50006D98233C05D0A86B030EA96FD6DD0ED06C
:102E6000A86B020EA96FD1DD2350FE0807E0B06BFE
:102E7000B26B23C0B1F0040EB36F5DDE17D0A65164
:102E8000040814E1A76B3BDFA86B020EA96FBDDD40
:102E90002350FE080AE0233C01D007D0B06BB26B90
:102EA00023C0B1F0010EB36F46DE00D07BD02150BD
:102EB000040813E1430E0401041723680001A76B03
:102EC0009BDF233C01D008D0B06BB26B23C0B1F0C4
:102ED000020EB36F30DE00D065D021B42CD0B76BBA
:102EE000A5C0B6F0B96B080EB86F5EEC11F002C069
:102EF000A8F001C0A7F001C001F0040E0224036E87
:102F000001C0A9F0AA6FB76BA5C0B6F0B96B080EE7
:102F1000B86F5EEC11F001C0E9FF040E0224EA6E06
:102F2000EF50430BAAC0EAFFA9C0E9FFEF6EA5C0AE
:102F3000A7F0E5DE37D0B76BA5C0B6F0B96B080EC9
:102F4000B86F5EEC11F002C0A8F001C0A7F0040E4B
:102F5000A727000EA823A7C001F0040EA825036E22
:102F6000A7C0A9F0AA6FB76BA5C0B6F0B96B080EE1
:102F7000B86F5EEC11F002C0ACF001C0ABF0040E13
:102F8000AB27000EAC23ABC0E9FF040EAC25EA6E04
:102F9000EF50430BAAC0EAFFA9C0E9FFEF6EA5C03E
:102FA000A7F02ADF0BEF18F0A19A225201E139D0E5
:102FB000685237E068A404D069A402D019EF11F078
:102FC0006DA201D02ED068AA04D069AA02D031EF38
:102FD00011F068A204D069A202D038EF11F068A005
:102FE00004D069A002D0CFEF11F068A804D069A87E
:102FF00002D0E4EF11F068AC04D069AC02D0E9EF84
:1030000011F0A46B68A608D069A606D06CCF21F099
:10301000CDEC11F002D701D004D0A451A42B0308A9
:10302000F1E230EF10F00D434350313D254C642068
:1030300020202020434350323D254C642020200D89
:103040000A006D6A696A080E6F6E94503009946EBA
:10305000226A196AF2BE198EF29EB9EC11F019BEFD
:10306000F28E34EF18F0EDD75AEF18F0196AF2BE6D
:10307000198EF29EB9EC11F019BEF28E6D6A140E23
:103080006F6E696A6D86010E226E4AEF18F06DB69A
:1030900001D0ECD7222C0BD06DBA09D0686A696ACE
:1030A000A08AC00EF212110E696E020E226E5BEF44
:1030B00018F0D9D7ECD722500208FCE167EF18F0DE
:1030C0001B5202E10400FCD768EF18F0F2D7F8D7E2
:1030D00066EF19F0EA6A870EE96EEF500DE0060E12
:1030E000016E006A002EFED7012EFBD77B0E006E0C
:1030F000002EFED7EF2EF3D7A6EF19F09291F2BE75
:103100009281F29E7A513E0802E23E0E7A6F7A5127
:103110007A2B036A3B0FE96E000E0320EA6E91C022
:10312000EFFFF29E92B1F28E99EF18F090C091F0FD
:10313000E5D7196AF2BE198EF29E020EB56FD4DC85
:1031400019BEF28E015207E0196AF2BE198EF29E84
:103150003FDE19BEF28EC6EF18F07A513E0813E238
:10316000196AF2BE198EF29E020EB56FBDDC19BE51
:10317000F28E015207E0196AF2BE198EF29E28DE25
:1031800019BEF28EEAD78FC090F0D0D71200090096
:10319000F6CF87F0F7CF88F0F5CF8FF0DEDF87C06E
:1031A000F6FF88C0F7FF862FF2D71200EACF8EF025
:1031B000E9CF8DF087AF08D08D8F8DA98D2B861F1D
:1031C000871F862BD8B4872B8739F009896F892709
:1031D000E20F8A6F320F8C6F87510F0B8A278A2775
:1031E0008C27E90F8B6F8B278B2786390F0B8B274B
:1031F0008C278B378C378C1F8C3786510F0B8C2785
:103200008937070E886F0A0E8B078C27FDE38A0724
:103210008B27FDE389078A27FDE388078927FDE3DC
:10322000EA6A880EE96E070E8D158D9DE9068D15EB
:1032300007E18DB9E92A8DB903D0200E006E1CD0AC
:10324000E9268C0EE95CD8B48D8DEF50006E08E154
:103250008DBD06D08DB91BD08DB702D0200E0BD0FE
:103260008DAF06D02D0E006EED508D9D8D9F04D03C
:103270008D878D99300E0026EACF87F0E9CF86F052
:1032800000C08FF06ADF87C0EAFF86C0E9FFEE501A
:103290008DADD7D71200F86AD09E078EEA6AE96A28
:1032A000226A276A7A6B816BC150C00B0F09C16E0D
:1032B000070EB46E1E6A040E1F6E0C0E206E100EEA
:1032C000926EC150C00B0F09C16E00D7000E0409E9
:1032D000CA6EF90ECB6E94948B940C0EBD6EB76AC9
:1032E000B66A94928B92BA6E836B826B856B846B99
:1032F00083C002F082C001F0023201320232013298
:10330000023201C0BEFF02320230300B006EBD50EF
:10331000CF0B0010BD6E85C002F084C001F00232F8
:10332000013202320132023201C0BBFF02320230EE
:10333000300B006EBA50CF0B0010BA6E928880B876
:1033400058D0040E866FC80E876FC4D6862FFBD761
:10335000320E8227000E8323140E8427000E85234D
:1033600083C002F082C001F0023201320232013227
:10337000023201C0BEFF02320230300B006EBD507F
:10338000CF0B0010BD6E85C002F084C001F0023288
:10339000013202320132023201C0BBFF023202307E
:1033A000300B006EBA50CF0B0010BA6E260EF66EC0
:1033B000300EF76E060E866FEADE100EE96E83C0E1
:1033C00087F082C086F0F2DE2F0EF66E300EF76EBA
:1033D0000A0E866FDCDE100EE96E85C087F084C0B1
:1033E00086F0E4DE3C0EF66E300EF76E050E866F4C
:1033F000CEDE8251E80805E18351030802E1836BC8
:10340000826B8451E80805E18551030802E1856B70
:06341000846B94D7030059
:020000040030CA
:0E00000024CE3E1E0085A1000FC00FE00F4071
:00000001FF
;PIC18F4550
;CRC=4991  CREATED="21-may.-15 07:20"
