:04200000C3EF10F02A
:08200800046ED8CF05F0E0CF13
:1020100006F00001E9CF0CF0EACF07F0E1CF08F0BD
:10202000E2CF09F0D9CF0AF0DACF0BF0F3CF12F0FC
:10203000F4CF13F0FACF14F0F5CF15F0F6CF16F079
:10204000F7CF17F000C00EF001C00FF002C010F083
:1020500003C011F09DA230EF10F09EB277EF10F0A8
:102060000EC000F00FC001F010C002F011C003F06C
:102070000CC0E9FF07C0EAFF078E08C0E1FF09C0F6
:10208000E2FF0AC0D9FF0BC0DAFF12C0F3FF13C092
:10209000F4FF14C0FAFF15C0F5FF16C0F6FF17C015
:1020A000F7FF045006C0E0FF05C0D8FF1000205025
:1020B0002202F3CF01F0F4CF00F02302F350002608
:1020C00021502202F3500020026E80EF10F0010E2A
:1020D000215E0CE3EA6A210EE96EEF5007E0020E82
:1020E000006E002EFED700D0EF2EF9D71200192A6D
:1020F000216A0B0E206E1DC023F01CC022F0D7D722
:102100000150F40F1A6E010E02201B6E1B500808BE
:1021100009E2FF0A03E11A50920804E2090E1B6E5D
:10212000920E1A6E1B50020808E303E11A502508AC
:1021300004E3020E1B6E260E1A6E1950020811E1FE
:1021400093908A801BC020F0202A2006D8B403D0A8
:102150002168BDDFFAD71AC021F0B9DF93908A90C9
:10216000196A9E9230EF10F0780E0609CA6EC40EFE
:10217000CB6E9D82C00EF212D9EF10F01D6A1FC007
:102180001CF0DCEF10F0F86AD09E078EEA6AE96A6C
:10219000196A050E1B6EDC0E1A6E1D6A1C6A1E6A19
:1021A000C150C00B0F09C16E070EB46E100E926EB7
:0C21B000DBD71EC01FF0E2D7FCD70300F5
:020000040030CA
:0E00000024CE3E1E0085A1000FC00FE00F4071
:00000001FF
;PIC18F4550
;CRC=560E  CREATED="22-sep-15 12:59"
