:0420000015EF19F0CF
:08200800046ED8CF05F0E0CF13
:1020100006F00001E9CF0CF0EACF07F0E1CF08F0BD
:10202000E2CF09F0D9CF0AF0DACF0BF0F3CF12F0FC
:10203000F4CF13F0FACF14F0F5CF15F0F6CF16F079
:10204000F7CF17F000C00EF001C00FF002C010F083
:1020500003C011F0A0AA30EF10F0A1BAD4EF17F02E
:102060000EC000F00FC001F010C002F011C003F06C
:102070000CC0E9FF07C0EAFF078E08C0E1FF09C0F6
:10208000E2FF0AC0D9FF0BC0DAFF12C0F3FF13C092
:10209000F4FF14C0FAFF15C0F5FF16C0F6FF17C015
:1020A000F7FF045006C0E0FF05C0D8FF1000F76A34
:1020B000BE0FF66E200EF7220900F5501200000345
:1020C00002FFFFFFFFFFFFFFFFFFFFFFFFFFF76ABA
:1020D000DE0FF66E200EF7220900F550120000FF09
:1020E00002FFFFFFFFFFFFFFFFFFFFFFFFFFF76A9A
:1020F000FE0FF66E200EF7220900F5501200400088
:102100000800400000000000000000000000000087
:102110000000000000000000000000000000F76A5E
:102120002E0FF66E210EF7220900F5501200400026
:10213000000040000000000000000000000000005F
:102140000000000000000000000000000000F76A2E
:102150005E0FF66E210EF7220900F55012000902FB
:102160004300020100803209040000010202010064
:1021700005240010010424020205240600010524A0
:10218000010001070581030800FA09040100020AA1
:10219000000000070502024000010705820240001E
:1021A0000100F76AB20FF66E210EF7220900F55012
:1021B00012000200F76AC40FF66E210EF722090022
:1021C000F550120012171B20FFFFFFFFF76ADC0F0C
:1021D000F66E210EF7220900F550120012011001CF
:1021E00002000040D8040200000101020001F76A69
:1021F000FE0FF66E210EF7220900F55012000403BF
:1022000009040C03500049004E00470055004900E6
:102210004E004F001803500049004E004700550083
:1022200049004E004F0020004A0041004300530087
:1022300053006D92699468A402D06894FCD7E0EFD3
:1022400017F0400E0401016F040E036F180E026FA9
:10225000880E006F046B040E076F580E066F0001A6
:10226000120070A002D0EDDF7090689AE9EF17F0CD
:102270006A6A6892EFEF17F0A991A8BFA981A89F99
:10228000A851100803E2000E016E17D0A9A10BD0CF
:10229000036AA8510CDFFF0802E1000E01D0010E15
:1022A000016E0BD00AD0036AA85111DFFF0802E1CA
:1022B000000E01D0010E016E00D01200AD51AF032F
:1022C000F3CF01F0F4CF00F0B003F3500026AE518D
:1022D000AF03F3500020026E1200036AA751700F83
:1022E000E96E0F0E0320EA6EEF6AA7C0A8F0C4DF04
:1022F000015222E0AE6BA7C0ADF0B06B080EAF6F1D
:10230000DDDF01C0E9FF040E0224EA6EEF6AAE6B66
:10231000A7C0ADF0B06B080EAF6FD0DF02C0A9F060
:1023200001C0A8F0040EA827000EA923A8C0E9FF49
:10233000040EA925EA6EEF6A1200010EA66FA651DF
:102340000F0805E3A6C0A7F0C8DFA62BF8D7120038
:102350002D6A2C6A250E2B6E800E2A6E2E6A2F6A2D
:10236000080E306E7F6B7E91326A316A7A6B7B9198
:1023700012009C6B9C5101080AE3036A9C51280FD0
:10238000E96E000E0320EA6EEF6A9C2BF3D7E0DFC4
:102390001B6A010E1C6E1A6A1200689612006A6AA5
:1023A000686A9F0E6B6E3D0E696E6E6AC6DFE1DF76
:1023B000160E706E68A602D0F0DFFCD76D9841DF74
:1023C000030E226EF5EF17F0698468986D82FBEFBB
:1023D00017F0689C01EF18F0A1C023F012002368E9
:1023E00012009F6B275226E09F513F0823E31D50A8
:1023F00005E0020A08E0010A0BE00FD0036A26504C
:10240000A6DEA06F0AD0036A2650F1DEA06F05D0C9
:10241000036A2650DBDEA06F00D0262A27069F51D4
:102420009F2B580FE96E040EEA6ED8B0EA2AA0C0BE
:10243000EFFFD8D7275204E19F51400801E01A6A04
:102440009FC0A1F0C9DF1200266A1D6A04011B515A
:10245000010A000107E0030A0AE0010A0BE0220A70
:102460001BE02BD0120E276E030E1D6E28D0430EDC
:10247000276E25D0020E1D6E036A04011A511E0F2D
:10248000E96E000E0320EA6EEFCF26F0036A2650B5
:102490000001ADDE276E13D0036A04011A5100015A
:1024A00089DE266E263C01D006D0036A26504FDE18
:1024B000276E05D002D093DF0ED091DF0CD004013F
:1024C0001F5305E127501E5D02E21EC427F0010ED6
:1024D0001A6E000186DF8FEF13F09E5304E1040EA5
:1024E000226E2BDFC9D0050E226E040EA16F980E4E
:1024F000A06F010E9F6F9F510F08D8A0BDD09FC045
:10250000A7F0EBDEA26B036A9F51E1DDFF0859E003
:10251000040EA26FD8909F35036A01DE0900F5CF43
:1025200003F0A36F03C0A4F0AE6B9FC0ADF0B06B1F
:10253000080EAF6FC3DE01C0A6F0010E0124016ECC
:10254000000E0220036E01C0E9FF040E0324EA6EB0
:10255000A3C0EFFFAE6B9FC0ADF0B06B080EAF6FC6
:10256000ADDE01C0A6F0020E0124016E000E0220B5
:10257000036E01C0E9FF040E0324EA6EA1C0ECFF64
:10258000ED52A0C0EFFFD8909F35036AC8DD090067
:10259000F5CF03F0A0270350A123880EA56FA4B1A7
:1025A000A581A4B3A583AE6B9FC0ADF0B06B080E40
:1025B000AF6F84DE01C0E9FF040E0224EA6EA5C0FD
:1025C000EFFF036A9F5173DDFF0840E0A283AE6B0B
:1025D0009FC0ADF0B06B080EAF6F70DE02C0A7F009
:1025E00001C0A6F0040EA627000EA723020EA62502
:1025F000016E000EA721036E01C0E9FF040E032443
:10260000EA6EA1C0ECFFED52A0C0EFFFD8909F355D
:10261000036A6DDD0900F5CF03F0A0270350A12365
:10262000AE6B9FC0ADF0B06B080EAF6F47DE02C05F
:10263000A7F001C0A6F0040EA627000EA723A6C08F
:10264000E9FF040EA725EA6E400EEF6EA2510608C0
:1026500002E10E0EA26F036A9F5129DD0108D8A482
:10266000A289036A9F51700FE96E0F0E0320EA6E74
:10267000A2C0EFFF9F2B3FD789EF13F00401195140
:10268000000A00010DE0010A14E0020A1EE0060A39
:1026900027E0030A2CE00E0A2CE0010A30E03DD0CE
:1026A0001CC058F40401596B020E0001A16F94DEA6
:1026B00036D004011A2D06D0010E1C160001A16BA4
:1026C0008BDE02D000018BDE2AD004011A2D05D04A
:1026D0001C820001A16B80DE02D0000180DE1FD0D1
:1026E000020E1A6E1AC424F0A16B76DE18D0ACD696
:1026F00016D01BC058F4010EA16F6EDE10D004017D
:102700001A51010808E31AC41BF01AC49EF0000114
:10271000E4D6A16B61DE000102D061DE00D003EFE0
:1027200015F01BC09EF004011951000A000105E0DC
:102730000A0A0BE0010A26E037D00401586B596BF6
:10274000020E0001A16F48DE31D09E5319E0010E48
:102750009E5D036A26DD016E04011C5DD8A002D0D7
:1027600000010ED0036A1C51280FE96E000E0320F1
:10277000EA6EEFCF58F4010E0001A16F2DDE01D0FB
:102780002EDE14D09E530EE0036A04011C51280F64
:10279000E96E000E0320EA6E1AC4EFFF0001A16B80
:1027A0001BDE01D01CDE02D01ADE00D003EF15F0D4
:1027B0009F919EBF9F819E9F9FA117D0AE6B9EC091
:1027C000ADF0B06B080EAF6F79DD02C0A1F001C0B3
:1027D000A0F0040EA027000EA123A0C0E9FF040E64
:1027E000A125EA6E880EEF6E0DD0AE6B9EC0ADF0E7
:1027F000B06B080EAF6F62DD01C0E9FF040E02246A
:10280000EA6EEF6A78EF14F09F919EBF9F819E9FC2
:102810009FA117D0AE6B9EC0ADF0B06B080EAF6F2E
:102820004DDD02C0A1F001C0A0F0040EA027000EF3
:10283000A123A0C0E9FF040EA125EA6E840EEF6E6D
:102840000ED0AE6B9EC0ADF0B06B080EAF6F36DD34
:1028500001C0E9FF040E0224EA6E840EEF6E7EEFE3
:1028600014F09F919EBF9F819E9F9FA117D0AE6B3A
:102870009EC0ADF0B06B080EAF6F20DD02C0A2F0BD
:1028800001C0A1F0040EA127000EA223A1C0E9FF00
:10289000040EA225EA6EEFCFA0F00ED0AE6B9EC064
:1028A000ADF0B06B080EAF6F09DD01C0E9FF040E9B
:1028B0000224EA6EEFCFA0F0A0AF02D0A0B502D004
:1028C000000E01D0010E016E88EF14F01CC4A8F0B8
:1028D000D3DC015229E004011951010A000105E08D
:1028E000020A09E0030A0DE01DD01CC49EF060D767
:1028F000A16B72DD19D01CC49EF086D7A16B6CDD74
:1029000013D00401586B596B1CC49EF00001A9D769
:10291000015204E0010E0401586F0001020EA16F84
:102920005BDD02D05CDD00D003EF15F0FE0E236E00
:10293000120004011C2D01D002D01C5349E1195191
:10294000000A00010BE0010A0DE0210A1CE0010A67
:102950001FE0030A2EE0010A31E037D0010E816F3B
:10296000E5DF35D0040EEA6E580EE96EE26A330EEA
:10297000E16E080E016EE6CFEEFF012EFCD71EC4FD
:10298000A1F02ADD24D0020E816F7E81CFDF1FD01F
:10299000040EEA6E580EE96EE26A2A0EE16E070E28
:1029A000016EE6CFEEFF012EFCD7070EA16F14DDFE
:1029B0000ED01AC47FF0A16B0FDD09D01AC432F01B
:1029C0001BC431F0A16B08DD02D009DD00D0040189
:1029D000000103EF15F01A6A040118517F0B000A79
:1029E000000107E0010A07E0030A07E0230A07E005
:1029F00008D044D608D095D606D068D704D099D749
:102A000002D0EDDC00D028EF17F0AE6B9FC0ADF028
:102A1000B06B080EAF6F52DC01C0E9FF040E022458
:102A2000EA6EEFCFA1F0A051020806E1A1AD02D0FD
:102A3000A06B02D0010EA06FA051030819E1840E13
:102A4000A16FAE6B9FC0ADF0B06B080EAF6F36DC00
:102A500002C0A5F001C0A4F0040EA427000EA52317
:102A6000A4C0E9FF040EA525EA6E840EEF6E07D020
:102A7000A02D03D0C80EA16F02D0880EA16FD890F0
:102A80009F35036A8FEC10F00900F5CF03F0A26FB9
:102A900003C0A3F0AE6B9FC0ADF0B06B080EAF6F7C
:102AA0000DDC01C0A4F0010E0124016E000E022015
:102AB000036E01C0E9FF040E0324EA6EA2C0EFFF1B
:102AC000A3B1A181A3B3A183AE6B9FC0ADF0B06BE6
:102AD000080EAF6F5EEC11F001C0E9FF040E022496
:102AE000EA6EA1C0EFFF1200036AAC51700FE96EED
:102AF0000F0E0320EA6EEF5219E0AE6BACC0ADF0E2
:102B0000B06B080EAF6F5EEC11F002C0AEF001C00A
:102B1000ADF0040EAD27000EAE23ADC0E9FF040EEC
:102B2000AE25EA6EEFCFAFF0AFAF02D0000E01D00E
:102B3000010E016E1200A7C0ACF0D6DF0152D8B46E
:102B40007CD0AE6BA7C0ADF0B06B080EAF6F5EEC83
:102B500011F002C0ADF001C0ACF0040EAC27000EC5
:102B6000AD23010EAC25016E000EAD21036E01C038
:102B7000E9FF040E0324EA6EA8C0EFFFAA51020881
:102B80001EE1AE6BA7C0ADF0B06B080EAF6F5EEC90
:102B900011F002C0ADF001C0ACF0040EAC27000E85
:102BA000AD23ACC0E9FF040EAD25EA6EEFCFABF06C
:102BB000ABAD02D0AA6B02D0010EAA6F18D0AA51F9
:102BC000040815E1AE6BA7C0ADF0B06B080EAF6F97
:102BD0005EEC11F001C0E9FF040E0224EA6EEFCFB3
:102BE000ABF0ABAD03D0010EAA6F01D0AA6BAA2D3A
:102BF00003D0C80EAB6F02D0880EAB6FA9B1AB810A
:102C0000A9B3AB83AE6BA7C0ADF0B06B080EAF6FCE
:102C10005EEC11F002C0ADF001C0ACF0040EAC27C8
:102C2000000EAD23ACC0E9FF040EAD25EA6EABC0CB
:102C3000EFFF010E016E03D000D0000E016E1200F6
:102C40008151010A03E0030A13E024D0EA6A330E3B
:102C5000E96E040EE26E180EE16E080E016EE6CF0C
:102C6000EEFF012EFCD7A16BECEC11F0816B14D0C0
:102C7000EA6A2A0EE96E040EE26E180EE16E070E85
:102C8000016EE6CFEEFF012EFCD7816BA16BECEC61
:102C900011F002D0816B00D082EF16F0AE6B9FC0B6
:102CA000ADF0B06B080EAF6F5EEC11F002C0A1F09A
:102CB00001C0A0F0010E0124016E000E0220036E7F
:102CC00001C0E9FF040E0324EA6E036AEFCF01F0AE
:102CD00003C002F078EF16F07B91020E9F6FA06F99
:102CE00094DE7DEF16F07B817D6B020E9F6FD6D751
:102CF00001C07CF07C5301E1EFD787EF16F09E53C3
:102D000002E19ED704D09E51020801E1ECD71200E7
:102D10009FC06EFF9F5303E0040E226E02D0020E8E
:102D2000226E98EF16F01B6A1A6A24C09FF0F0D743
:102D300007EF17F09FC0ACF0D7DE015246E0AE6B54
:102D40009FC0ADF0B06B080EAF6F5EEC11F002C02B
:102D5000A8F001C0A7F0040EA727000EA823020EBA
:102D6000A725016E000EA821036E01C0E9FF040E25
:102D70000324EA6EECCF03F0ED52EFCFA5F003C0D1
:102D8000A6F0A6C0EAFFA5C0E9FFA1C0E2FFA0C06F
:102D9000E1FFA3C002F0A2C001F0015202E0022A4A
:102DA00002D0025206E0E6CFEEFF012EFCD7022E43
:102DB000FAD79FC0A7F0A3C0A9F0A2C0A8F0A4C0F2
:102DC000AAF0B9DE015003D000D0000E016E12004F
:102DD000020E9F6FA16B3B0EA06FA36B7AC0A2F097
:102DE000020EA46FA7DF7AC080F07A6B12007A53CC
:102DF00001E0EEDF0CEF17F09E530AE11A2C03D02E
:102E0000F1EC11F004D01A50020801E18CD704D083
:102E10009E51020801E1EBD7120021309C6F9C33D8
:102E20009C331F0E9C17215242E1040100513C0BC0
:102E300000019D6F430E0401001700019D513408ED
:102E40001EE104010451800B01E0046B0001C3D5B5
:102E50006D98233C05D09F6B030EA06FD6DD0ED07E
:102E60009F6B020EA06FD1DD2350FE0807E0A76B19
:102E7000A96B23C0A8F0040EAA6F5DDE17D09D5188
:102E8000040814E19E6B3BDF9F6B020EA06FBDDD5B
:102E90002350FE080AE0233C01D007D0A76BA96BA2
:102EA00023C0A8F0010EAA6F46DE00D07BD02150CF
:102EB000040813E1430E04010417236800019E6B0C
:102EC0009BDF233C01D008D0A76BA96B23C0A8F0DF
:102ED000020EAA6F30DE00D065D021B42CD0AE6BCC
:102EE0009CC0ADF0B06B080EAF6F5EEC11F002C08D
:102EF0009FF001C09EF001C001F0040E0224036E99
:102F000001C0A0F0A16FAE6B9CC0ADF0B06B080E1D
:102F1000AF6F5EEC11F001C0E9FF040E0224EA6E0F
:102F2000EF50430BA1C0EAFFA0C0E9FFEF6E9CC0C9
:102F30009EF0E5DE37D0AE6B9CC0ADF0B06B080EF6
:102F4000AF6F5EEC11F002C09FF001C09EF0040E66
:102F50009E27000E9F239EC001F0040E9F25036E46
:102F60009EC0A0F0A16FAE6B9CC0ADF0B06B080E20
:102F7000AF6F5EEC11F002C0A3F001C0A2F0040E2E
:102F8000A227000EA323A2C0E9FF040EA325EA6E28
:102F9000EF50430BA1C0EAFFA0C0E9FFEF6E9CC059
:102FA0009EF02ADF0BEF18F0A19A225201E139D0EE
:102FB000685237E068A404D069A402D019EF11F078
:102FC0006DA201D02ED068AA04D069AA02D031EF38
:102FD00011F068A204D069A202D038EF11F068A005
:102FE00004D069A002D0CFEF11F068A804D069A87E
:102FF00002D0E4EF11F068AC04D069AC02D0E9EF84
:1030000011F09B6B68A608D069A606D06CCF21F0A2
:10301000CDEC11F002D701D004D09B519B2B0308BB
:10302000F1E230EF10F00D50494E2041342065732D
:10303000746120656E2062616A6F200D0A00505530
:103040004552544F204220455354415455530D0A84
:103050002030782558200D0A00006D6A696A080E34
:103060006F6E94503009946E226A196AF2BE198EFE
:10307000F29EB9EC11F019BEF28E40EF18F0EDD7C8
:1030800066EF18F0196AF2BE198EF29EB9EC11F0D3
:1030900019BEF28E6D6A140E6F6E696A6D86010E2E
:1030A000226E56EF18F06DB601D0ECD7222C0BD063
:1030B0006DBA09D0686A696AA08AC00EF212110E50
:1030C000696E020E226E67EF18F0D9D7ECD7225046
:1030D0000208FCE173EF18F01B5202E10400FCD778
:1030E00074EF18F0F2D7F8D735EF19F08991F2BEE6
:1030F0008981F29E7A513E0802E23E0E7A6F7A5141
:103100007A2B036A3B0FE96E000E0320EA6E88C03B
:10311000EFFFF29E89B1F28E91EF18F087C088F030
:10312000E5D7196AF2BE198EF29E020EAC6FDCDC96
:1031300019BEF28E015207E0196AF2BE198EF29E94
:1031400047DE19BEF28EBEEF18F07A513E0813E248
:10315000196AF2BE198EF29E020EAC6FC5DC19BE62
:10316000F28E015207E0196AF2BE198EF29E30DE2D
:1031700019BEF28EEAD786C087F0D0D712000900B8
:10318000F5520CE0F6CF82F0F7CF83F0F5CF86F062
:10319000DCDF82C0F6FF83C0F7FFF1D744EF19F000
:1031A0000900F6CF84F0F7CF85F0F5CF86F0CDDFBC
:1031B00084C0F6FF85C0F7FF832FF2D74EEF19F0DA
:1031C00084BF0FD00F0E006E833900160A0E005C0C
:1031D00003E2300E002602D08451002600C086F0A3
:1031E000B4DF0F0E83170A0E835D02E2300E02D0A9
:1031F000849F8451832783C086F0A7DF53EF19F0A3
:10320000EA6A830EE96EEF500EE00F0E016E006A5F
:10321000002EFED7012EFBD78F0E006E002EFED79C
:103220000000EF2EF2D761EF19F0F86AD09E078EFA
:10323000EA6AE96A226A276A7A6B816BC150C00B1D
:103240000F09C16E070EB46E1E6A040E1F6E0C0EBF
:10325000206E100E926E936E926A896A936A8A6AE1
:10326000C150C00B0F09C16E3DD7936A030E8A6E21
:1032700093948A848A869396928880B824D0260E66
:10328000F66E300EF76E7BD7936881CF82F03E0EDC
:10329000F66E300EF76E150E836F82D782C083F004
:1032A000370E846F8DD7200E866F4FDF0D0E866F21
:1032B0004CDF0A0E866F49DF040E826FFA0E836FB1
:0A32C0009FD7822FFBD7D1D7030060
:020000040030CA
:0E00000024CE3E1E0085A1000FC00FE00F4071
:00000001FF
;PIC18F4550
;CRC=8302  CREATED="03-nov-13 11:55"
