:042000006CEF21F070
:08200800160FF66E200EF72200
:102010000900F5501200000000000000005F000001
:102020000007000700147F147F14242A7F2A12233C
:102030001308646236495522500005030000001C55
:102040002241000041221C0014083E081408083EEA
:102050000808005030000008080808080060600008
:102060000020100804023E5149453E00427F4000D6
:1020700042615149462141454B311814127F1027C6
:10208000454545393C4A49493001710905033649FE
:10209000494936064949291E0036360000005636A1
:1020A00000000814224100141414141400412214D6
:1020B000080201510906324979413E7E1111117E13
:1020C0007F494949363E414141227F4141221C7F9F
:1020D000494949417F090909013E4149497A7F0837
:1020E00008087F00417F41002040413F017F0814E4
:1020F00022417F404040407F020C027F7F04081055
:102100007F3E4141413E7F090909063E4151215E22
:102110007F09192946464949493101017F01013F9B
:102120004040403F1F2040201F3F4038403F631445
:1021300008146307087008076151494543007F414F
:10214000410002040810200041417F000402010206
:1021500004404040404000010204002054545478A0
:102160007F484444383844444420384444487F3805
:1021700054545418087E0901020C5252523E7F08F2
:1021800004047800447D40002040443D007F102836
:10219000440000417F40007C041804787C0804045B
:1021A0007838444444387C14141408081414187CF7
:1021B0007C080404084854545420043F4440203C04
:1021C0004040207C1C2040201C3C4030403C4428A7
:1021D0001028440C5050503C4464544C4400083681
:1021E000410000007F000000413608001008081080
:1021F0000878464146787C090505787E0509117EF8
:10220000F76A100FF66E220EF7220900F550120041
:10221000000000005C000C000C7C287C7C447C24CA
:102220001048285408000C0038440044380020109E
:1022300008103810804000101010004000201008D6
:10224000384438007C006454484454281C107C4CAA
:10225000542438542004740C28542808543800504E
:1022600000805000102844282828442810045408CE
:10227000384C5C7814787C54283844447C44387C4E
:1022800054447C14043844347C107C007C0020408E
:102290003C7C106C7C40407C087C7C047C7C447CD6
:1022A0007C14083844787C1468485424047C047CEA
:1022B000407C3C403C7C207C6C106C1C601C64545A
:1022C0004C7C4400081020447C0008040880808076
:1022D00004080000E20FF66E220EF7220900F55006
:1022E00012000000000000000000065F5F06000012
:1022F00000070700070700147F7F147F7F14242E38
:102300006B6B3A1200466630180C6662307A4F5D8D
:10231000377A4804070300000000001C3E634100B8
:10232000000041633E1C0000082A3E1C1C3E2A0897
:10233000083E3E0808000080E06000000008080831
:1023400008080800000060600000006030180C06FB
:1023500003013E7F71594D7F3E40427F7F404000E8
:10236000627359496F6600226349497F3600181C21
:1023700016537F7F50276745457D39003C7E4B498A
:10238000793000030371790F0700367F49497F36A2
:1023900000064F49693F1E0000006666000000000D
:1023A00080E666000000081C3663410000242424F7
:1023B00024242400004163361C0800020351590FF5
:1023C00006003E7F415D5D1F1E7C7E13137E7C00F8
:1023D000417F7F49497F361C3E6341416322417FF3
:1023E0007F41633E1C417F7F495D4163417F7F495F
:1023F0001D01031C3E63415173727F7F08087F7F7C
:102400000000417F7F410000307040417F3F01412B
:102410007F7F081C7763417F7F414060707F7F0E24
:102420001C0E7F7F7F7F060C187F7F1C3E634163FD
:102430003E1C417F7F49090F061E3F21717F5E00D0
:10244000417F7F09197F66266F4D59733200034122
:102450007F7F4103007F7F40407F7F001F3F6060A0
:102460003F1F007F7F3018307F7F43673C183C67F9
:1024700043074F78784F0700476371594D677300E2
:102480007F7F414100000103060C1830600041418C
:102490007F7F0000080C0603060C08808080808087
:1024A000808000000307040000207454543C7840EE
:1024B000417F3F48487830387C44446C280030786D
:1024C00048493F7F40387C54545C1800487E7F491F
:1024D00003020038BCA4A4FC7800417F7F08047C80
:1024E0007800447D7D40000060E08080FD7D0041FB
:1024F0007F7F10386C4400417F7F400000787C1C57
:10250000381C7C787C7C04047C7800387C44447CD7
:10251000380000FCFCA4243C18183C24A4F8FC84DB
:10252000447C784C041C18485C5454742400000407
:102530003E7F4424003C7C40403C7C401C3C60602E
:102540003C1C003C7C7038707C3C446C3810386C0F
:10255000443CBCA0A0FC7C004C64745C4C6400084F
:10256000083E774141000000007777000041417745
:102570003E08080002030103020301FF1D8181815F
:1025800081FF0E9F91B1FB4A000000000000000097
:10259000F76AA00FF66E250EF7220900F55012001B
:1025A000000000007A0E8A727B0EBEE07B56041992
:1025B0007C0E703B7C31C4337C54E3BD7C77B4A289
:1025C0007D0D1B717D1E353F7D2F1AA07D3FCB9267
:1025D0007D503AFB7D6068DC7D7055327E000000E6
:1025E0007E07A7877E0F212D7E1673827E1D97F6AC
:1025F0007E2487FD7E2B4A237E31D14E7E38240BEC
:102600007E3E3BCD7E4418937E49BA5E7E4F1AA033
:102610007E5439587E5916877E5DB22D7E6205BC88
:102620007E6611347E69DB237E6D566D7E7089A0D7
:102630007E7374BC7E7611347E785F077E7A64C3C5
:102640007E7C1BDA7E7D7DBF7E7E978D7E7F5C29C2
:102650007E7FD2207F000000F76A680FF66E260E9C
:10266000F7220900F55012007F0000007E7FD22083
:102670007E7F5C297E7E978D7E7D7DBF7E7C1BDA92
:102680007E7A64C37E785F077E7611347E7374BC75
:102690007E7089A07E6D566D7E69DB237E66113467
:1026A0007E6205BC7E5DB22D7E5916877E543958F8
:1026B0007E4F1AA07E49BA5E7E4418937E3E3BCD83
:1026C0007E38240B7E31D14E7E2B4A237E2487FD1B
:1026D0007E1D97F67E1673827E0F212D7E07A787BB
:1026E0007E0000007D7055327D6068DC7D503AFBD5
:1026F0007D3FCB927D2F1AA07D1E353F7D0D1B7136
:102700007C77B4A27C54E3BD7C31C4337C0E703B37
:102710007B5604197B0EBEE07A0E8A720000000020
:10272000F76A300FF66E270EF7220900F5501200F7
:10273000FFFFFFFF1F1F7FFEFCF0E0C0000000FF57
:10274000FFFFFF0000FCFEFFFF1F0F0F0F0F0F0F1B
:102750000F1FFFFFFEFC0000FFFFFFFFC0C0E0F007
:10276000FCFC3F1F0F0703010000FFFFFFFF0000FD
:10277000000000C0F0FCFE7F1F1F7FFFFCF0C000C8
:102780000000007F7F7F7F0000000001070F3F7F78
:102790007E7C7F7F7F7F00001F3F7F7F7C78787803
:1027A000787878787C7F7F3F1F00007F7F7F7F0075
:1027B0000103070F1F3F7E7C78706040007F7F7FA2
:1027C0007F0000707C7F7F1F0F0F0E0E0E0E0F0F0D
:1027D0001F7F7F7C70400000F76AE80FF66E270EBF
:1027E000F7220900F55012000000E0F0F0F0F07060
:1027F00070F8FFFFFFFF1F0080F0F0F0F0F030F006
:10280000F0F07070200000C0C6E7E7F7FF3F07FF59
:10281000FFFFFFFFFE1E00F0FFFFFFFFFF3F01E095
:10282000FCFEFFFFFF7F0F2F7F7F7F7F7F3E08E053
:10283000FEFFFFFFFF03F0FFFFFFFF3F0380C0E746
:10284000EFEFEF1F9FFEFCFCF8F80000E0FEFFFF3B
:10285000FFFF7F1F1E1F1F1F1F0F0F03E0FFFFFF44
:10286000FFFF3F03C0FEFFFFFFFFFF0FE0F8F8F898
:10287000F8F87800000003070707070707070707AE
:1028800007070000010307070707070707070703F4
:102890000000060707070707070000000000000008
:1028A00000000607070707070700000307070707D9
:1028B0000707070707070707030000000000F76A7C
:1028C000CE0FF66E280EF7220900F55012007F7F1A
:1028D0000F1E787F7F003C7E6642667E3C001C7E39
:1028E0007E4242420000020E7F7F424200003E7E56
:1028F0007C40407E3E007E7E0602020200007E7E1C
:102900000E06027E7E003C7E6642667E3C00F76AD2
:102910001E0FF66E290EF7220900F55012003C7AC0
:10292000F1FBFFFF7E3C030E05010E5F0AE3050E7F
:10293000EA6E0E0EE96EEF5004E001D000D0EF2EEB
:10294000FDD7000116EF15F0050EEA6E0F0EE96EC9
:10295000EF500DE0060E016E006A002EFED7012E2C
:10296000FBD77B0E006E002EFED7EF2EF3D71200A2
:102970000501156B1551070814E392908990030E19
:10298000006E002EFED71451800B03E192928992C3
:1029900002D09292898292908980D8901437152B18
:1029A000E9D700011200929489949296899613C5F2
:1029B00014F5DEDF92968986120005011151070B8E
:1029C0004009126F136F0001EEDF050110517F0BFC
:1029D0008009126F136F0001E6DF12009294898460
:1029E0009296899611C514F5C3DF929689861200D6
:1029F0000501106B116B0001E0DF010E05010F6F87
:102A0000F80E0E6F0E5302E10F5309E0116B000137
:102A1000E5DF05010E51D8B40F070E07F3D700010B
:102A20001200C80E05010E6F00017DD792948984B3
:102A3000929689860A0E05010F6F000185DF929834
:102A40008998FA0E05010F6F00017EDF9298898840
:102A5000210E0501136F0001A6DF900E0501136F13
:102A60000001A1DF130E0501136F00019CDF200E92
:102A70000501136F000197DF090E0501136F0001B7
:102A800092DF320E05010F6F00015EDFB1DF0A0E2B
:102A900005010F6F000158DF0C0E0501136F0001D7
:102AA00082DF46EF23F005013E514003F3CF01F0F2
:102AB000F4CF00F04103F35000263F514003F350A0
:102AC0000020026E00011200050121512219800B25
:102AD000246F21AF02D0211F212B22AF02D0221F51
:102AE000222B2251016A215D03E221C500F00CD0A6
:102AF000006A080E236F213700362251005CD8B0DF
:102B0000006E0136232FF7D724AF02D0011E012A11
:102B1000000112000501122D05D0030E1F6F060ED5
:102B20001E6F0CD01251020805E1050E1F6F070E33
:102B30001E6F04D0070E1F6F080E1E6F13C5E9FF2E
:102B400014C5EAFFEFCF1DF51D53D8B422D11A6B7F
:102B5000196B1A53D8A40FD11F51195DD8B00BD1DE
:102B6000036A1051006EE8BE03061925216F035059
:102B70001A21226FE8BE07D02253D8A4F8D02151E1
:102B80005308D8A0F4D0036A1051006EE8BE0306C3
:102B90001925216F03501A21226FE8BEE8D000D01A
:102BA00011BFE5D011BF04D011512808D8A0DFD043
:102BB000036A1051006EE8BE03061925216F035009
:102BC0001A21226F1131006E003200321F0E0016E2
:102BD0000050246B236F24C53FF53E6F416B540EAC
:102BE000406F000160DF02C003F0015005012125A4
:102BF000016E2251032201C017F503C018F5200E03
:102C00001D5D226B216F22C53FF53E6F416B1FC5D5
:102C100040F5000148DF050119510124156F1A51D3
:102C20000220166F11C521F5080E226F00014CDF3E
:102C30000050036A05011B6F03C01CF5122D0AD05A
:102C400016C503F01551000100EC11F0E8CF20F596
:102C50001AD00501125102080CE116C503F01551F6
:102C600016C5F7FF000104EC10F0E8CF20F50BD0FB
:102C7000050116C503F0155116C5F7FF00016AECF2
:102C800011F0E8CF20F5260E05011725016E000E84
:102C90001821036E01C021F5226F260E1725E96E5B
:102CA000000E1821EA6EEFCF23F52051036A026E61
:102CB0001B51006E05E0D89002360336002EFBD77C
:102CC0000250231122C5EAFF21C5E9FFEF6E1B5117
:102CD0001C114DE0540E1725216F000E1821226F94
:102CE000260E2125016E000E2221036E01C023F560
:102CF000246F540E1725256F000E1821266F260EFF
:102D00002525E96E000E2621EA6EEFCF27F5080E85
:102D1000D8801B55006E000E1C55036E005020C558
:102D200028F5296B005205E0D89029332833002E6E
:102D3000FBD7080ED8801B55006E000E1C55036E85
:102D40000050036AFF0E026E005205E0D890033275
:102D50000232002EFBD702502815006E03502915B1
:102D60000050271124C5EAFF23C5E9FFEF6E192B98
:102D7000D8B41A2BEED6132BD8B4142B13C5E9FFF5
:102D800014C5EAFFEFCF1DF51F511025010F106F7D
:102D9000DBD6000112000501106B116B00010DDE86
:102DA00005010F6B0E6B0F51010815E303E10E5186
:102DB000F70811E3260E0E25E96E000E0F21EA6ECC
:102DC000EFCF10F510C511F5000108DE05010E2B3F
:102DD000D8B40F2BE8D70001120005010F6B0E6B62
:102DE0000F5101080FE303E10E51F7080BE3260E24
:102DF0000E25E96E000E0F21EA6EEF6A0E2BD8B495
:102E00000F2BEED7000112008E0E006E11C501F0DF
:102E100010C502F0036A01AE05D0011E021E022A8F
:102E200001E1012A015209E102C001F0026A080E23
:102E3000005E015202E1006A0DD0D89001BE04D0BC
:102E4000023601360006F9D7050111AF02D00001A4
:102E500001D0019E0001EEEF23F005014851D8B4E6
:102E600071D0006E4C51D8B46DD0002604E3810EB1
:102E7000002668E204D07F0E005E64E363E049C58B
:102E800050F54D51501B498F4D8F4B514F03F4CF8F
:102E900052F54A514E03F4CF03F0F3CF51F54F03EF
:102EA000F3505227F4505123000E03224B514E038E
:102EB000F3505227F4505123000E026A03220222DB
:102EC00049514F03F3505127F4500322000E0222C0
:102ED00049514E03F3500326F4500222000E016ABA
:102EE00001224B514D03F3505127F4500322000EA1
:102EF000022201224A514D03F3500326F4500222CC
:102F0000000E012249514D03F3500226F4500122D4
:102F1000002A01BE05D051370336023601360006BD
:102F2000000E51AF0AD0032A02220122015005E10E
:102F3000025003E1035001E1002A50BF018E50AF5F
:102F4000019E04D0006A016A026A036A000112004D
:102F500005013B51D8B4A5D0476F3F51D8B4A1D09B
:102F6000475F05E37F0E4727D8B09BD006D0810E80
:102F7000475FD8A096D0D8B494D047C500F0016A76
:102F8000026A036A466B3CC545F5458F3DC544F56D
:102F90003EC543F5190E476F4251435F0DE2010EE6
:102FA000445F0AE2455F08E2465F06E2462B452B96
:102FB000442B4251432728D04151445F12E2010E75
:102FC000455F0FE2465F0DE2462B452B41514427FA
:102FD0004251432719E3442B17E1452B15E1462BBA
:102FE00013D040518009455F0EE2010E465F0BE2AF
:102FF000462B40518009452741514427E9E3452BA1
:10300000E7E1462BE5D70380472F01D00BD0D890BE
:103010004337443745374637D890033602360136B2
:103020004837BAD748A106D0D890013202320332CD
:10303000483302D0000635E048BF1ED0D890433751
:103040004437453746374251435F07E2010E445F3C
:1030500004E2455F02E2465F1AE34151445F05E244
:10306000010E455F02E2465F12E340518009455F71
:1030700003E2010E465F0BE3032A09E1022A07E19E
:10308000012A05E1002A0DE00132023203323CC57B
:1030900047F54051471B47AF02D0018E06D0019E35
:1030A00004D0006A016A026A036A00011200800EFD
:1030B000D8A202D005014D1B0501526B536B49C5C7
:1030C00051F54D51511B4851D8B4DFD0506F006EAF
:1030D0004C51D8B4E3D0505FD8B483D03EE34DC553
:1030E00056F5568F4EC555F54FC554F5536BD890D0
:1030F0005633553354335333502FF8D751AF03D091
:103100005281E0D0529150915289050EEA6E4B0ED9
:10311000E96EEBD0529951BF0AD050A113D056336B
:10312000553354335333002AD8B4C7D00BD056BFCD
:103130000CD0D89053375437553756370006D8B48B
:10314000BCD0F5D7528D6DD0529D49C551F549AFD0
:1031500002D0568FABD0569FA9D04CC550F54CC568
:1031600000F04851505F49C556F5568F4AC555F590
:103170004BC554F5536BD8905633553354335333B2
:10318000502FF8D751AF03D052839CD05293509117
:10319000528B050EEA6E4F0EE96EA7D0529B51BFBF
:1031A0000AD050A113D05633553354335333002A29
:1031B000D8B483D00BD056BF0CD0D89053375437E7
:1031C000553756370006D8B478D0F5D7528F29D066
:1031D000529F4DC551F54DAF02D0568F67D0569FC7
:1031E00065D04DC556F5568F4EC555F54FC554F5AE
:1031F00051AF04D0569F528565D05295536B509174
:10320000050EEA6E4B0EE96E70D051BF1CD049C559
:1032100051F550A106D05633553354335333002A59
:103220004CE053AF0BD0542B09E1552B07E1562B43
:1032300005E1563355335433002A3FE052BD84D75D
:1032400052BFC6D71CD0800E561B56AF04D03AD002
:103250004DC551F50AD049C551F5565306E15553B0
:1032600004E1545302E1006A21D056BF08D0D8903F
:103270005337543755375637002EF7D71ED051AF36
:1032800002D0568F13D0569F11D04CC500F04DC5BB
:1032900056F54EC555F54FC554F508D048C500F054
:1032A00049C556F54AC555F54BC554F556C501F007
:1032B00055C502F054C503F034D0006A016A026AB1
:1032C000036A2FD0536B541F551F561F531F532B88
:1032D00005E1542B03E1552B01E1562B52B112D7D6
:1032E00052B354D752B589D7B3D7EF50542705E31B
:1032F000552B03E1562BD8B45081ED52EF50552792
:1033000003E3562BD8B45081ED52EF50EFBE01D0FD
:10331000800A5627D8B0508152B9FCD652BB3ED74E
:1033200074D70001120045C54CF5050149514C1BED
:103330004CAF05D0D894D89045BFD8802FD045C584
:103340004CF548C54DF544514D5F06E04CAF26D0D5
:10335000D850010AD86E22D049C54DF545514D5F70
:1033600006E04CAF1BD0D850010AD86E17D04AC522
:103370004DF546514D5F06E04CAF10D0D850010AD4
:10338000D86E0CD04BC54DF547514D5F06E04CAFA4
:1033900005D0D850010AD86E01D0D8900001120093
:1033A0008E0E006E05014451005E45C502F046C513
:1033B00001F0028E005209E0D890025202E101525F
:1033C00004E002320132002EF7D745AF05D0011ECE
:1033D000021E012AD8B4022A000112008E0E006ECD
:1033E00049C501F048C502F0036A015209E102C073
:1033F00001F0026A080E005E015202E1006A08D084
:10340000D89001BE04D0023601360006F9D7019EDD
:1034100012000501296B286B276B7F0E266F7E0E2D
:10342000306F800E316F326B336B7A0E346F2A0E31
:10343000356FAA0E366FA30E376F750E386FB60E46
:10344000396F090E3A6FB40E3B6F6F0E3C6F4F0E23
:103450003D6FB60E3E6FAA0E3F6F690E406F8B0E2A
:10346000416FF60E426FE80E436F1DC547F51CC550
:1034700046F51BC545F51AC544F54B6B4A6B496BC0
:10348000486B000150DF04E305011B51800A1B6FEC
:103490001DC54BF51CC54AF51BC549F51AC548F5B0
:1034A000830E05014F6FF90E4E6F220E4D6F7E0E8B
:1034B0004C6F0001D2DC03C047F502C046F501C0E5
:1034C00045F500C044F56CDF01C02AF51DC54BF57C
:1034D0001CC54AF51BC549F51AC548F5830E0501FB
:1034E0004F6FF90E4E6F220E4D6F7E0E4C6F000126
:1034F000B4DC00C044F501C045F502C046F503C088
:1035000047F50501496B2AC548F5000167DFD882F8
:1035100047C54BF546C54AF545C549F544C548F587
:1035200003C04FF502C04EF501C04DF500C04CF58B
:10353000BEDD03C02FF502C02EF501C02DF500C081
:103540002CF5030E05012A172A5303E02A5102081D
:103550001CE12FC54BF52EC54AF52DC549F52CC5E7
:1035600048F5DB0E4F6F0F0E4E6F490E4D6F7F0EFD
:103570004C6F000172DC03C025F502C024F501C0C8
:1035800023F500C022F56BD005012A2D35D0D88255
:103590004B6B4A6B496B7F0E486F2FC54FF52EC59D
:1035A0004EF52DC54DF52CC54CF5000180DD00C054
:1035B00044F501C045F502C046F503C047F503C018
:1035C0004BF502C04AF501C049F500C048F5DB0ED5
:1035D00005014F6F0F0E4E6F490E4D6F7F0E4C6FF2
:1035E00000013BDC03C025F502C024F501C023F532
:1035F00000C022F534D00501D8822FC54BF52EC569
:103600004AF52DC549F52CC548F54F6B4E6B4D6BF2
:103610007F0E4C6F00014BDD00C044F501C045F545
:1036200002C046F503C047F503C04BF502C04AF59A
:1036300001C049F500C048F5DB0E05014F6F0F0EC4
:103640004E6F490E4D6F7F0E4C6F000106DC03C0BC
:1036500025F502C024F501C023F500C022F50501BF
:10366000216B206B1F6B7F0E1E6F25C54BF524C58C
:103670004AF523C549F522C548F525C54FF524C5AA
:103680004EF523C54DF522C54CF500012DEC17F084
:1036900003C025F502C024F501C023F500C022F5C2
:1036A00005012B6B2B51040865E329C54BF528C593
:1036B0004AF527C549F526C548F525C54FF524C562
:1036C0004EF523C54DF522C54CF500012DEC17F044
:1036D00003C029F502C028F501C027F500C026F572
:1036E00005012B51040DF350036A300FE96E050EEE
:1036F0000320EA6EEFCF44F5ECCF45F5ECCF46F56D
:10370000ECCF47F547C54BF546C54AF545C549F5E4
:1037100044C548F529C54FF528C54EF527C54DF5D3
:1037200026C54CF500012DEC17F0EACF45F5E9CFA1
:1037300044F5D89221C54BF520C54AF51FC549F57A
:103740001EC548F503C04FF502C04EF501C04DF54A
:1037500000C04CF5ACDC45C5EAFF44C5E9FF03C039
:1037600021F502C020F501C01FF500C01EF50501BE
:103770002B2B98D72A51020802E02A2D03D01F5183
:10378000800A1F6F1EC500F01FC501F020C502F0A2
:1037900021C503F00001F2EF1BF0D88215C54BF5EF
:1037A00014C54AF513C549F512C548F5DB0E0501E8
:1037B0004F6F0F0E4E6F490E4D6F7F0E4C6F000115
:1037C00076DC00C016F501C017F502C018F503C07D
:1037D00019F503C01DF502C01CF501C01BF500C0A2
:1037E0001AF517D6120005013831006E003200328A
:1037F0001F0E001600503D6B3C6F3DC53FF53E6F00
:10380000416B540E406F000153EC15F0015005015F
:1038100037253A6F000E02203B6F395324E0260E05
:103820003A25016E000E3B21036E01C03CF53D6F51
:10383000260E3A25E96E000E3B21EA6EEFCF3EF5EB
:103840003851070B016E010E006E015204E0D89052
:103850000036012EFCD700503E113DC5EAFF3CC5A5
:10386000E9FFEF6E24D0260E3A25016E000E3B21B3
:10387000036E01C03CF53D6F260E3A25E96E000E41
:103880003B21EA6EEFCF3EF53851070B016E010E7A
:10389000006E015204E0D8900036012EFCD7005093
:1038A000FF083E153DC5EAFF3CC5E9FFEF6E00018C
:1038B000120005012151235D0BE223C528F521C526
:1038C0002AF5366B356B800E346F7F0E336F09D05F
:1038D00021C528F523C52AF5366B356B346B7F0E71
:1038E000336F2351215D04E1366B356B346B336BE1
:1038F0002051225D0BE222C527F520C529F5326B48
:10390000316B800E306F7F0E2F6F09D020C527F5E9
:1039100022C529F5326B316B306B7F0E2F6F225130
:10392000205D04E1326B316B306B2F6B2751295DC9
:10393000010F256F28512A5D010F266F2551265D45
:103940004BE2496B26C548F5000148DD00C037F55C
:1039500001C038F502C039F503C03AF50501496BDD
:1039600025C548F500013ADD3AC53EF539C53DF5B6
:1039700038C53CF537C53BF503C042F502C041F5FB
:1039800001C040F500C03FF5A8EC17F000C037F5C6
:1039900001C038F502C039F503C03AF503C04BF554
:1039A00002C04AF501C049F500C048F536C54FF5DB
:1039B00035C54EF534C54DF533C54CF52DEC17F036
:1039C00003C036F502C035F501C034F500C033F54B
:1039D00025C52BF54AD00501496B25C548F50001E1
:1039E000FDDC00C037F501C038F502C039F503C071
:1039F0003AF50501496B26C548F50001EFDC3AC5EB
:103A00003EF539C53DF538C53CF537C53BF503C036
:103A100042F502C041F501C040F500C03FF5A8ECF9
:103A200017F000C037F501C038F502C039F503C002
:103A30003AF503C04BF502C04AF501C049F500C094
:103A400048F532C54FF531C54EF530C54DF52FC59A
:103A50004CF52DEC17F003C032F502C031F501C072
:103A600030F500C02FF526C52BF505012C6B2B5129
:103A70002C5DD8B099D0496B2CC548F50001AEDC5F
:103A800032C54BF531C54AF530C549F52FC548F566
:103A900003C04FF502C04EF501C04DF500C04CF516
:103AA0002DEC17F000C037F501C038F502C039F52C
:103AB00003C03AF50501496B20C548F500018EDCCD
:103AC000D89203C04BF502C04AF501C049F500C0C9
:103AD00048F53AC54FF539C54EF538C54DF537C5EA
:103AE0004CF557EC18F003C047F502C046F501C08D
:103AF00045F500C044F554DC01C02DF50501496BC6
:103B00002CC548F500016ADC36C54BF535C54AF5CC
:103B100034C549F533C548F503C04FF502C04EF52D
:103B200001C04DF500C04CF52DEC17F000C037F585
:103B300001C038F502C039F503C03AF50501496BFB
:103B400021C548F500014ADCD89203C04BF502C0FC
:103B50004AF501C049F500C048F53AC54FF539C5E9
:103B60004EF538C54DF537C54CF557EC18F003C088
:103B700047F502C046F501C045F500C044F510DC2C
:103B800001C02EF505012D5153080CE32E512F08CD
:103B900009E32DC537F52EC538F524C539F50001E3
:103BA00022DE05012C2B63D7000112000EC520F583
:103BB0000FC521F510C522F50FC523F513C524F552
:103BC00078DE0EC520F511C521F510C522F511C509
:103BD00023F513C524F56DDE10C520F50FC521F5BD
:103BE00010C522F511C523F513C524F562DE0EC5F7
:103BF00020F50FC521F50EC522F511C523F513C516
:103C000024F557DE0501125337E011510F5D1AE21A
:103C1000156B0FC514F5155314E11151145D11E224
:103C20000EC520F514C521F510C522F514C523F5E0
:103C300013C524F500013DDE0501142BD8B4152B66
:103C4000EAD71AD0156B0FC514F5155303E11451BB
:103C5000115D12E20EC520F514C521F510C522F53F
:103C600014C523F513C524F5000123DE0501145105
:103C7000D8B415071407E9D7000112002D0E05016D
:103C80001F6F1F535BE01F51040DF350036A0001C7
:103C9000C8EC12F0006E0900F5CF01F00900F5CF75
:103CA00002F00900F5CF03F0E8CF20F501C021F5BF
:103CB00002C022F503C023F50501496B1EC548F576
:103CC0000001EEEC19F023C54BF522C54AF521C5DC
:103CD00049F520C548F503C04FF502C04EF501C0B7
:103CE0004DF500C04CF52DEC17F000C020F501C0DB
:103CF00021F502C022F503C023F50501496B1DC55E
:103D000048F50001EEEC19F003C047F502C046F596
:103D100001C045F500C044F523C54BF522C54AF561
:103D200021C549F520C548F593EC19F004E2D8B453
:103D300002D0050103D005011F07A3D71F51040DB1
:103D4000F350036A00012CEC13F0006E0900F5CF6C
:103D500001F00900F5CF02F00900F5CF03F0E8CF3C
:103D600020F501C021F502C022F503C023F50501AD
:103D7000496B1EC548F50001EEEC19F023C54BF563
:103D800022C54AF521C549F520C548F503C04FF5C0
:103D900002C04EF501C04DF500C04CF52DEC17F0FA
:103DA00000C020F501C021F502C022F503C023F5B3
:103DB00003C04BF502C04AF501C049F500C048F503
:103DC0001D0E05014F6F550E4E6F150E4D6F7F0E78
:103DD0004C6F00012DEC17F002EF1FF005011B6B7B
:103DE0001A6B196B186B10510F5D136F13510F5D28
:103DF000D8A046D113510F5D1C6F1D6F10C51EF565
:103E000000013CD703C017F502C016F501C015F537
:103E100000C014F5050110510F5D135DD8B4C0D07A
:103E2000D8A0BED017C547F516C546F515C545F54A
:103E300014C544F50001D0EC19F0015005010E2520
:103E40001C6F1BC547F51AC546F519C545F518C5BC
:103E500044F50001D0EC19F0015005010E251D6F4D
:103E6000010E135D1E6F1CC520F513C521F51DC580
:103E700022F5236F010E246F00011BDD17C547F5E6
:103E800016C546F515C545F514C544F5D0EC19F031
:103E9000015005010E5D1C6F1BC547F51AC546F59F
:103EA00019C545F518C544F50001D0EC19F00150CD
:103EB00005010E5D1D6F010E135D1E6F1CC520F503
:103EC00013C521F51DC522F5236F010E246F0001D6
:103ED000F0DC17C547F516C546F515C545F514C5FB
:103EE00044F5D0EC19F0015005010E251C6FD89057
:103EF0000F35FF0FD88013551D6F1BC547F51AC529
:103F000046F519C545F518C544F50001D0EC19F082
:103F1000015005010E251E6FD8900F35D88013551E
:103F20001F6F1CC520F51DC521F51EC522F5236F89
:103F3000010E246F0001BDDC17C547F516C546F517
:103F400015C545F514C544F5D0EC19F0015005012F
:103F50000E5D1C6FD8900F35FF0FD88013551D6F65
:103F60001BC547F51AC546F519C545F518C544F5ED
:103F70000001D0EC19F0015005010E5D1E6FD890C4
:103F80000F35D88013551F6F1CC520F51DC521F5B1
:103F90001EC522F5236F010E246F00018ADC050186
:103FA000115364E017C547F516C546F515C545F527
:103FB00014C544F50001D0EC19F0015005010E259F
:103FC0001C6F010E135D1D6F17C547F516C546F52D
:103FD00015C545F514C544F50001D0EC19F00150A4
:103FE00005010E5D1E6F010E135D1F6F1CC520F5D0
:103FF0001DC521F51EC522F5236F010E246F00019A
:1040000058DC17C547F516C546F515C545F514C561
:1040100044F5D0EC19F0015005010E251C6FD89025
:104020000F35FF0FD88013551D6F17C547F516C5FF
:1040300046F515C545F514C544F50001D0EC19F059
:10404000015005010E5D1E6FD8900F35FF0FD8800F
:1040500013551F6F1CC520F51DC521F51EC522F582
:10406000236F010E246F000124DC050117C51BF529
:1040700016C51AF515C519F514C518F5132BB6D6BE
:104080000001120005011E6B1D6B1631216F2133DB
:1040900021331F0E21171651070B02E1000E01D02C
:1040A000010E21251E53D8A415D11D5DD8B012D103
:1040B0001C6B1B6B1C53D8A409D115511B5DD8B0C8
:1040C00005D1036A1151006EE8BE03061B25216F5E
:1040D00003501C21226FE8BE07D02253D8A4F2D08F
:1040E00021515308D8A0EED0036A1151006EE8BEEA
:1040F00003061B25216F03501C21226FE8BEE2D06E
:10410000225304E121510008D8B0DCD01EC53FF590
:104110001DC53EF5416B540E406F000153EC15F088
:1041200002C022F501C021F505011B5121271C51B8
:104130002223036A1151006EE8BE030621270350B3
:1041400022231231006E003200321F0E0016005082
:10415000246B236F24C53FF53E6F416B540E406FB7
:10416000000153EC15F002C003F0015005012125B8
:10417000016E2251032201C019F503C01AF5036A2A
:1041800015C521F503C022F51EC53FF51DC53EF539
:1041900003C041F515C540F5000153EC15F00501CC
:1041A0001B510124176F1C510220186F12C521F5F5
:1041B000080E226F000164EC15F00050036A05013F
:1041C0001F6F03C020F5260E1925016E000E1A215F
:1041D000036E01C021F5226F260E1925E96E000E2F
:1041E0001A21EA6EEFCF23F513511725E96E14510A
:1041F0001821EA6EEF50036A026E1F51006E05E04F
:10420000D89002360336002EFBD70250231122C568
:10421000EAFF21C5E9FFEF6E1F51201153E0540E54
:104220001925216F000E1A21226F260E2125016EFD
:10423000000E2221036E01C023F5246F540E1925B0
:10424000256F000E1A21266F260E2525E96E000E19
:104250002621EA6EEFCF27F513511725E96E145189
:104260001821EA6EEFCF28F5080ED8801F55006E92
:10427000000E2055036E0050296B005205E0D890C7
:1042800029332833002EFBD7080ED8801F55006E27
:10429000000E2055036E0050036AFF0E026E00529E
:1042A00005E0D89003320232002EFBD702502815C9
:1042B000006E035029150050271124C5EAFF23C5BD
:1042C000E9FFEF6E1B2BD8B41C2BF4D61D2BD8B4F2
:1042D0001E2BDBD600011200F86AD09EEA6AE96A5A
:1042E000B886560EAF6E000EB06EA60EAC6E900E77
:1042F000AB6EC150C00B0F09C16E070EB46E430EFA
:104300000201296F6F0E2A6F6E0E2B6F200E2C6F1D
:10431000740E2D6F720E2E6F650E2F6F730E306F31
:10432000200E316F740E326F690E336F700E346F62
:104330006F0E356F730E366F376B640E386F650E08
:10434000396F200E3A6F6C0E3B6F650E3C6F740E2A
:104350003D6F720E3E6F610E3F6F3A0E406F416BC4
:104360004E0E426F450E436F470E446F520E456F1F
:10437000490E466F540E476F410E486F496B430E0E
:104380004A6F4F0E4B6F4D0E4C6F500E4D6F520ECD
:104390004E6F490E4F6F4D0E506F490E516F440EC8
:1043A000526F410E536F546B4E0E556F4F0E566F3A
:1043B000520E576F4D0E586F410E596F4C0E5A6F7B
:1043C0005B6B460E5C6F750E5D6F6E0E5E6F630EFF
:1043D0005F6F690E606F6F0E616F6E0E626F650EBC
:1043E000636F730E646F200E656F700E666F610EE3
:1043F000676F720E686F610E696F6A6B500E6B6F3C
:10440000550E6C6F4E0E6D6F540E6E6F4F0E6F6FBC
:10441000530E706F716B4C0E726F490E736F4E0EB0
:10442000746F450E756F410E766F530E776F786B14
:10443000430E796F550E7A6F410E7B6F440E7C6F81
:10444000520E7D6F410E7E6F440E7F6F4F0E806F58
:10445000530E816F826B430E836F490E846F520E31
:10446000856F430E866F550E876F4C0E886F4F0E0B
:10447000896F530E8A6F8B6B420E8C6F490E8D6F56
:10448000540E8E6F4D0E8F6F410E906F500E916FC8
:10449000530E926F936B430E946F6F0E956F6E0E6B
:1044A000966F200E976F6D0E986F6F0E996F760E48
:1044B0009A6F690E9B6F6D0E9C6F690E9D6F650EF6
:1044C0009E6F6E0E9F6F740EA06F6F0EA16FA26B2A
:1044D000710EA36F750EA46F650EA56F640EA66FA7
:1044E000610EA76F200EA86F6D0EA96F650EAA6FE3
:1044F0006A0EAB6F6F0EAC6F720EAD6F200EAE6FAB
:104500003B0EAF6F290EB06FB16B450EB26F730EDD
:10451000B36F740EB46F650EB56F200EB66F650E77
:10452000B76F6A0EB86F650EB96F6D0EBA6F700E09
:10453000BB6F6C0EBC6F6F0EBD6FBE6B650EBF6F39
:10454000730EC06F740EC16F610EC26F200EC36F09
:10455000620EC46F610EC56F730EC66F610EC76FBA
:10456000640EC86F6F0EC96F200ECA6F650ECB6FD9
:104570006E0ECC6FCD6B6C0ECE6F610ECF6F730E67
:10458000D06F200ED16F660ED26F750ED36F6E0E88
:10459000D46F630ED56F690ED66F6F0ED76F6E0E28
:1045A000D86F650ED96F730EDA6FDB6B640EDC6F3C
:1045B000650EDD6F200EDE6F4E0EDF6F6F0EE06F4B
:1045C000630EE16F740EE26F750EE36F720EE46FAF
:1045D0006E0EE56F6F0EE66FE76B650EE86F6E0EA1
:1045E000E96F200EEA6F430EEB6F330EEC6F300E67
:1045F000ED6F200EEE6F790EEF6FF06B610EF16FC5
:10460000640EF26F610EF36F700EF46F610EF56F52
:10461000740EF66F610EF76F640EF86F610EF96F2E
:10462000730EFA6F200EFB6F610EFC6F6C0EFD6F48
:10463000FE6B430EFF6F0301006F530E016F026BA1
:10464000700E036F6F0E046F720E056F066B500EC7
:10465000076F690E086F6E0E096F670E0A6F750E91
:104660000B6F690E0C6F6E0E0D6F6F0E0E6F200EBE
:104670000F6F4A0E106F410E116F430E126F530EE3
:10468000136F146F156B000111EF15F0F8EC14F0B7
:10469000020E05010E6F960E0F6F0001A4EC14F0D0
:1046A00005010E2FF8D70001F8EC14F00501106B8E
:1046B000116B020E126F146F290E136F00018AEC3A
:1046C00015F00501106B080E116F020E126F146FBA
:1046D000380E136F00018AEC15F00A0E0501106FF9
:1046E000120E116F126B020E146F420E136F000147
:1046F0008AEC15F0140E0501106F1C0E116F010EDF
:10470000126F020E146F4A0E136F00018AEC15F03F
:104710001E0E0501106F280E116F020E126F146F1E
:10472000550E136F00018AEC15F0CBEC16F0100E4D
:1047300005010E6FFA0E0F6F0001A4EC14F00501D5
:104740000E2FF8D70001EDEC16F00501106B116B80
:10475000020E126F146F5C0E136F00018AEC15F0DD
:10476000120E0501106F080E116F126B020E146FFE
:104770006B0E136F00018AEC15F0CBEC16F0080EEF
:1047800005010E6FFA0E0F6F0001A4EC14F0050185
:104790000E2FF8D70201206B1F6B2053D8A4BED078
:1047A0001F513B08D8A0BAD0286B276B28BF07D071
:1047B0002853D8A4A3D027515308D8A09FD01F5165
:1047C000272505010E6F02012051282105010F6FD9
:1047D000116F0EC510F5000104EF17F003C04BF583
:1047E00002C04AF501C049F500C048F5DB0E0501DD
:1047F0004F6F0F0E4E6F490E4D6F800E4C6F0001C4
:104800002DEC17F000C00EF501C00FF502C010F539
:1048100003C011F503C03EF502C03DF501C03CF5F3
:1048200000C03BF50501426B416B200E406F830ECB
:104830003F6F0001A8EC17F000C00EF501C00FF5A6
:1048400002C010F503C011F503C015F502C014F540
:1048500001C013F500C012F5CDEC1BF000C00EF541
:1048600001C00FF502C010F503C011F503C04BF5F0
:1048700002C04AF501C049F500C048F505014F6B7B
:104880004E6B300E4D6F830E4C6F00012DEC17F008
:10489000EACF0FF5E9CF0EF5D89205014B6B4A6BC5
:1048A000400E496F830E486F03C04FF502C04EF5AE
:1048B00001C04DF500C04CF5000157EC18F00FC5D4
:1048C000EAFF0EC5E9FF03C047F502C046F501C087
:1048D00045F500C044F5D0EC19F001C010F527C231
:1048E00037F501C038F5010E0501396F0001F3EC11
:1048F0001BF00201272BD8B4282B58D70001CBEC92
:1049000016F0EDEC16F0140E05010F6F0001A4EC8B
:1049100014F002011F2BD8B4202B3FD70001EDEC7F
:1049200016F00501106B116B020E126F146F5C0E06
:10493000136F00018AEC15F0120E0501106F080EBE
:10494000116F126B020E146F720E136F00018AEC5E
:1049500015F0CBEC16F0080E05010E6FFA0E0F6F76
:104960000001A4EC14F005010E2FF8D70001EDECC6
:1049700016F00201286B276B28BF05D0285321E1D0
:10498000275153081EE3530ED880275505010E6F9B
:10499000000E0201285505010F6F27C220F5216B7B
:1049A0000EC522F52F0E236F010E246F000159EC66
:1049B0001CF0CBEC16F0040E02012727000E282372
:1049C000DBD7286B276B28BF05D0285321E127515F
:1049D0002E081EE32F0ED880275505010E6F000EFE
:1049E0000201285505010F6F530E206F27C221F5D4
:1049F000226B0EC523F5010E246F000159EC1CF04B
:104A0000CBEC16F0040E02012727000E2823DBD77B
:104A1000286B276B28BF05D0285320E12751530866
:104A20001DE3530ED880275505010E6F000E0201BD
:104A3000285505010F6F27C220F5216B0EC522F501
:104A40002F0E236F246B000159EC1CF0CBEC16F0F9
:104A5000040E02012727000E2823DCD7286B276BC2
:104A600028BF05D0285320E127512E081DE32F0E23
:104A7000D880275505010E6F000E0201285505014B
:104A80000F6F530E206F27C221F5226B0EC523F541
:104A9000246B000159EC1CF0CBEC16F0040E020163
:104AA0002727000E2823DCD70001EDEC16F00501C6
:104AB000106B116B020E126F146F5C0E136F0001FE
:104AC0008AEC15F0080E0501106F116F126B020EC3
:104AD000146F790E136F00018AEC15F0CBEC16F011
:104AE000080E05010E6FFA0E0F6F0001A4EC14F012
:104AF00005010E2FF8D70001EDEC16F005010E6B45
:104B00000F6B190E106F0F0E116F126B010E136FDA
:104B10000001D6EC1DF0CBEC16F0020E05010E6F75
:104B2000FA0E0F6F0001A4EC14F005010E2FF8D758
:104B30000A0E0E6F0F6F260E106F280E116F010EEA
:104B4000126F136F0001D6EC1DF0CBEC16F0020EC5
:104B500005010E6FFA0E0F6F0001A4EC14F00501B1
:104B60000E2FF8D7230E0E6F0F6B500E106F0F0E17
:104B7000116F010E126F136F0001D6EC1DF0CBEC1C
:104B800016F0020E05010E6FFA0E0F6F0001A4EC75
:104B900014F005010E2FF8D7530E0E6F2F0E0F6F66
:104BA0002A0E106F180E116F010E126F136F000195
:104BB000D6EC1DF0CBEC16F0020E05010E6FFA0ECE
:104BC0000F6F0001A4EC14F005010E2FF8D7140E9E
:104BD0000E6F0A0E0F6F400E106F250E116F126BC5
:104BE000136B0001D6EC1DF0CBEC16F0020E0501A4
:104BF0000E6FFA0E0F6F0001A4EC14F005010E2FDA
:104C0000F8D7200E0E6F0E0E0F6F340E106F220E9F
:104C1000116F010E126F136B0001D6EC1DF0CBEC7F
:104C200016F0020E05010E6FFA0E0F6F0001A4ECD4
:104C300014F005010E2FF8D7250E0E6F130E0F6F0F
:104C40002F0E106F1D0E116F126B010E136F0001EE
:104C5000D6EC1DF0CBEC16F0020E05010E6FFA0E2D
:104C60000F6F0001A4EC14F005010E2FF8D7080E09
:104C70000E6FFA0E0F6F0001A4EC14F005010E2F59
:104C8000F8D70001EDEC16F00501106B116B020E68
:104C9000126F146F5C0E136F00018AEC15F00A0E90
:104CA0000501106F080E116F126B020E146F830E48
:104CB000136F00018AEC15F0CBEC16F0080E05011D
:104CC0000E6FFA0E0F6F0001A4EC14F005010E2F09
:104CD000F8D70001EDEC16F00201286B040E276FE7
:104CE00028BF05D0285323E12751150820E32A0EB9
:104CF00005010E6F180E0F6F27C210F5116B010E14
:104D0000126F0001EEEC1EF0CBEC16F0020E050166
:104D10000E6FFA0E0F6F0001A4EC14F005010E2FB8
:104D2000F8D7030E02012727000E2823D9D73E0EFD
:104D300005010E6F1E0E0F6F0F0E106F010E116F1B
:104D4000126F0001EEEC1EF0CBEC16F0020E050126
:104D50000E6FFA0E0F6F0001A4EC14F005010E2F78
:104D6000F8D70A0E0E6F0F6F140E106F116B010E35
:104D7000126F0001EEEC1EF0CBEC16F0020E0501F6
:104D80000E6FFA0E0F6F0001A4EC14F005010E2F48
:104D9000F8D70A0E0E6F0F6F040E106F010E116F11
:104DA000126F0001EEEC1EF0CBEC16F0080E0501C0
:104DB0000E6FFA0E0F6F0001A4EC14F005010E2F18
:104DC000F8D70001EDEC16F00501106B116B020E27
:104DD000126F146F5C0E136F00018AEC15F00E0E4B
:104DE0000501106F080E116F126B020E146F8C0EFE
:104DF000136F00018AEC15F0CBEC16F0080E0501DC
:104E00000E6FFA0E0F6F0001A4EC14F005010E2FC7
:104E1000F8D7030EEA6E160EE96ED50E016EF76A2C
:104E2000000E0001ECEC13F00A000900F5CFEEFFD4
:104E3000012EFBD7070E0501116F140E126F030E22
:104E4000146F160E136F470E156F130E166F0001B9
:104E500042EC20F0CBEC16F0080E05010E6FFA0EB6
:104E60000F6F0001A4EC14F005010E2FF8D700011C
:104E7000EDEC16F00501106B116B020E126F146F42
:104E8000940E136F00018AEC15F00501106B080EEB
:104E9000116F020E126F146FA30E136F00018AECD4
:104EA00015F0CBEC16F0080E05010E6FFA0E0F6F21
:104EB0000001A4EC14F005010E2FF8D70201206BBD
:104EC0001F6B246B010E236F286B276B28BF07D045
:104ED0002853D8A40AD127511C08D8A006D1030E04
:104EE000EA6E160EE96ED50E016EF76A000E00012D
:104EF000ECEC13F00A000900F5CFEEFF012EFBD712
:104F0000070E0501116F27C212F5030E146F160E5E
:104F1000136F470E156F130E166F000142EC20F051
:104F2000030EEA6E160EE96E080E016EF76A000EA9
:104F300087EC14F00A000900F5CFEEFF012EFBD735
:104F4000020122C203F02151212BD8B4222B0501EA
:104F50000E6F03C00FF503C049F5486F0001EEEC7A
:104F600019F003C04BF502C04AF501C049F500C075
:104F700048F5DB0E05014F6F0F0E4E6F490E4D6F5A
:104F8000800E4C6F00012DEC17F000C00EF501C033
:104F90000FF502C010F503C011F503C03EF502C0C5
:104FA0003DF501C03CF500C03BF50501426B416B8E
:104FB000200E406F830E3F6F0001A8EC17F000C079
:104FC0000EF501C00FF502C010F503C011F503C0C6
:104FD00015F502C014F501C013F500C012F5CDECB3
:104FE0001BF000C00EF501C00FF502C010F503C0A4
:104FF00011F503C04BF502C04AF501C049F500C0E8
:1050000048F505014F6B4E6B100E4D6F840E4C6FC3
:1050100000012DEC17F000C00EF501C00FF502C025
:1050200010F503C011F500C000F001C001F002C08E
:1050300002F003C003F0019EEACF0FF5E9CF0EF5B1
:10504000D88205014B6B4A6B200E496F840E486F66
:1050500003C04FF502C04EF501C04DF500C04CF540
:10506000000157EC18F00FC5EAFF0EC5E9FF03C0B9
:1050700047F502C046F501C045F500C044F5D0EC47
:1050800019F001C010F51FC211F501C012F5030E91
:105090000501146F160E136F080E156F166F0001C1
:1050A00042EC20F0020123511F27245120232053DA
:1050B00003E11F514C0802E2246923691F5305E1F3
:1050C000205303E1246B010E236F0001CBEC16F09B
:1050D000EDEC16F0230E05010F6F0001A4EC14F0A7
:1050E0000201272BD8B4282BF1D6286B530E276F3B
:1050F00028BF2CD1285304E127510008D8B026D16D
:10510000030EEA6E160EE96ED50E016EF76A000EFA
:105110000001ECEC13F00A000900F5CFEEFF012EC0
:10512000FBD7070E0501116F1D0E126F030E146FD2
:10513000160E136F470E156F130E166F000142EC1B
:1051400020F0030EEA6E160EE96EA80E016EF76AE5
:10515000000E90EC13F00A000900F5CFEEFF012ECF
:10516000FBD727C211F50501126B030E146F160E43
:10517000136F530E156F0F0E166F000142EC20F0E7
:10518000030EEA6E160EE96E080E016EF76A000E47
:1051900087EC14F00A000900F5CFEEFF012EFBD7D3
:1051A000020122C203F02151212BD8B4222B050188
:1051B0000E6F03C00FF503C049F5486F0001EEEC18
:1051C00019F003C04BF502C04AF501C049F500C013
:1051D00048F5DB0E05014F6F0F0E4E6F490E4D6FF8
:1051E000800E4C6F00012DEC17F000C00EF501C0D1
:1051F0000FF502C010F503C011F503C03EF502C063
:105200003DF501C03CF500C03BF50501426B416B2B
:10521000200E406F830E3F6F0001A8EC17F000C016
:105220000EF501C00FF502C010F503C011F503C063
:1052300015F502C014F501C013F500C012F5CDEC50
:105240001BF000C00EF501C00FF502C010F503C041
:1052500011F503C04BF502C04AF501C049F500C085
:1052600048F505014F6B4E6B100E4D6F840E4C6F61
:1052700000012DEC17F000C00EF501C00FF502C0C3
:1052800010F503C011F500C000F001C001F002C02C
:1052900002F003C003F0019EEACF0FF5E9CF0EF54F
:1052A000D88205014B6B4A6B200E496F840E486F04
:1052B00003C04FF502C04EF501C04DF500C04CF5DE
:1052C000000157EC18F00FC5EAFF0EC5E9FF03C057
:1052D00047F502C046F501C045F500C044F5D0ECE5
:1052E00019F001C010F51FC211F501C012F5030E2F
:1052F0000501146F160E136F080E156F166F00015F
:1053000042EC20F0020123511F2724512023205377
:1053100003E11F514C0802E2246923691F5305E190
:10532000205303E1246B010E236F0001CBEC16F038
:10533000EDEC16F01E0E05010F6F0001A4EC14F049
:1053400002012751D8B428072707D2D62869C10EF1
:10535000276F28BF07D02853D8A448D12751130856
:10536000D8A044D1030EEA6E160EE96ED50E016E7A
:10537000F76A000E0001ECEC13F00A000900F5CF0B
:10538000EEFF012EFBD7070E0501116F1D0E126FE8
:10539000030E146F160E136F470E156F130E166F54
:1053A000000142EC20F0030EEA6E160EE96EA80E24
:1053B000016EF76A000E90EC13F00A000900F5CFB9
:1053C000EEFF012EFBD70501116B126B030E146F5C
:1053D000160E136F530E156F0F0E166F000142EC71
:1053E00020F0030EEA6E160EE96E3F0E016EF76AAC
:1053F000000E5FEC14F00A000900F5CFEEFF012E5D
:10540000FBD727C211F5120E0501126F030E146FA0
:10541000160E136F3F0E156F070E166F000142EC4C
:1054200020F0030EEA6E160EE96E080E016EF76AA2
:10543000000E87EC14F00A000900F5CFEEFF012EF4
:10544000FBD7020122C203F02151212BD8B4222B19
:1054500005010E6F03C00FF503C049F5486F000149
:10546000EEEC19F003C04BF502C04AF501C049F556
:1054700000C048F5DB0E05014F6F0F0E4E6F490E51
:105480004D6F800E4C6F00012DEC17F000C00EF533
:1054900001C00FF502C010F503C011F503C03EF5C1
:1054A00002C03DF501C03CF500C03BF50501426B73
:1054B000416B200E406F830E3F6F0001A8EC17F088
:1054C00000C00EF501C00FF502C010F503C011F5C4
:1054D00003C015F502C014F501C013F500C012F5A4
:1054E000CDEC1BF000C00EF501C00FF502C010F5A9
:1054F00003C011F503C04BF502C04AF501C049F5E0
:1055000000C048F505014F6B4E6B100E4D6F840EB9
:105510004C6F00012DEC17F000C00EF501C00FF527
:1055200002C010F503C011F500C000F001C001F089
:1055300002C002F003C003F0019EEACF0FF5E9CFED
:105540000EF5D88205014B6B4A6B200E496F840E15
:10555000486F03C04FF502C04EF501C04DF500C0C5
:105560004CF5000157EC18F00FC5EAFF0EC5E9FF36
:1055700003C047F502C046F501C045F500C044F53B
:10558000D0EC19F001C010F51FC211F501C012F5E1
:10559000030E0501146F160E136F080E156F166FAC
:1055A000000142EC20F0020123511F272451202347
:1055B000205303E11F514C0802E2246923691F5361
:1055C00005E1205303E1246B010E236F0001CBECB6
:1055D00016F0EDEC16F0190E05010F6F0001A4ECAA
:1055E00014F00201272BD8B4282BB3D6286B276BD5
:1055F00028BF07D02853D8A448D127513108D8A0B4
:1056000044D1030EEA6E160EE96ED50E016EF76AEE
:10561000000E0001ECEC13F00A000900F5CFEEFFDC
:10562000012EFBD7070E0501116F1D0E126F030E21
:10563000146F160E136F470E156F130E166F0001C1
:1056400042EC20F0030EEA6E160EE96EA80E016E13
:10565000F76A000E90EC13F00A000900F5CFEEFF98
:10566000012EFBD70501116B126B030E146F160E82
:10567000136F530E156F0F0E166F000142EC20F0E2
:10568000030EEA6E160EE96E3F0E016EF76A000E0B
:105690005FEC14F00A000900F5CFEEFF012EFBD7F6
:1056A000140E0501116F120E126F030E146F160EF9
:1056B000136F3F0E156F070E166F000142EC20F0BE
:1056C000030EEA6E160EE96E080E016EF76A000E02
:1056D00087EC14F00A000900F5CFEEFF012EFBD78E
:1056E000020122C203F02151212BD8B4222B050143
:1056F0000E6F03C00FF503C049F5486F0001EEECD3
:1057000019F003C04BF502C04AF501C049F500C0CD
:1057100048F5DB0E05014F6F0F0E4E6F490E4D6FB2
:10572000800E4C6F00012DEC17F000C00EF501C08B
:105730000FF502C010F503C011F503C03EF502C01D
:105740003DF501C03CF500C03BF50501426B416BE6
:10575000200E406F830E3F6F0001A8EC17F000C0D1
:105760000EF501C00FF502C010F503C011F503C01E
:1057700015F502C014F501C013F500C012F5CDEC0B
:105780001BF000C00EF501C00FF502C010F503C0FC
:1057900011F503C04BF502C04AF501C049F500C040
:1057A00048F505014F6B4E6B100E4D6F840E4C6F1C
:1057B00000012DEC17F000C00EF501C00FF502C07E
:1057C00010F503C011F500C000F001C001F002C0E7
:1057D00002F003C003F0019EEACF0FF5E9CF0EF50A
:1057E000D88205014B6B4A6B200E496F840E486FBF
:1057F00003C04FF502C04EF501C04DF500C04CF599
:10580000000157EC18F00FC5EAFF0EC5E9FF03C011
:1058100047F502C046F501C045F500C044F5D0EC9F
:1058200019F001C010F51FC211F501C012F5030EE9
:105830000501146F160E136F080E156F166F000119
:1058400042EC20F0020123511F2724512023205332
:1058500003E11F514C0802E2246923691F5305E14B
:10586000205303E1246B010E236F0001CBEC16F0F3
:10587000EDEC16F01E0E05010F6F0001A4EC14F004
:105880000201272BD8B4282BB3D6030EEA6E160ECE
:10589000E96ED50E016EF76A000E0001ECEC13F014
:1058A0000A000900F5CFEEFF012EFBD7070E050118
:1058B000116F1D0E126F030E146F160E136F470E2D
:1058C000156F130E166F000142EC20F0030EEA6E06
:1058D000160EE96EA80E016EF76A000E90EC13F03A
:1058E0000A000900F5CFEEFF012EFBD70501116B71
:1058F000126B030E146F160E136F530E156F0F0EEF
:10590000166F000142EC20F0030EEA6E160EE96EEF
:105910003F0E016EF76A000E5FEC14F00A000900FA
:10592000F5CFEEFF012EFBD7140E0501116F120EFD
:10593000126F030E146F160E136F3F0E156F070EC6
:10594000166F000142EC20F0CBEC16F00C0E0201B9
:105950001E6F286B276B28BF05D028532FE12751D6
:1059600009082CE31E510C0A000103E0010A11E0B2
:1059700020D00D0E0501136F0001D3EC14F00D0EB5
:1059800002011E6FC80E05010F6F0001A4EC14F098
:1059900010D00C0E0501136F0001D3EC14F00C0EA7
:1059A00002011E6FC80E05010F6F0001A4EC14F078
:1059B00000D00201272BD8B4282BCDD70001EDEC65
:1059C00016F00201266B280E256F26AF0AD026514D
:1059D000FE08D8B0D1D0FF0A04E12551C008D8B0E4
:1059E000CBD00501106B25C211F5020E126F146F9A
:1059F000B20E136F00018AEC15F0080E0201252586
:105A000005010E6F000E0201262105010F6F106BBC
:105A10000EC511F5020E126F146FBF0E136F000149
:105A20008AEC15F0100E0201252505010E6F000EFF
:105A30000201262105010F6F106B0EC511F5020E34
:105A4000126F146FCE0E136F00018AEC15F0180E52
:105A50000201252505010E6F000E02012621050118
:105A60000F6F106B0EC511F5020E126F146FDC0E66
:105A7000136F00018AEC15F0200E020125250501A7
:105A80000E6F000E0201262105010F6F106B0EC56F
:105A900011F5020E126F146FE80E136F00018AECFD
:105AA00015F0280E0201252505010E6F000E0201DA
:105AB000262105010F6F106B0EC511F5020E126F36
:105AC000146FF10E136F00018AEC15F0300E020115
:105AD000252505010E6F000E0201262105010F6F1D
:105AE000106B0EC511F5020E126F146F13690001D1
:105AF0008AEC15F0380E0201252505010E6F000E07
:105B00000201262105010F6F140E106F0EC511F54D
:105B1000020E126F030E146F136F00018AEC15F062
:105B2000400E0201252505010E6F000E02012621FF
:105B300005010F6F0A0E106F0EC511F5126B030EE3
:105B4000146F070E136F00018AEC15F0CBEC16F002
:105B5000040E05010E6FFA0E0F6F0001A4EC14F095
:105B600005010E2FF8D70001EDEC16F002012551CA
:105B7000D8B42607250729D7050153EF23F00300E2
:020000040030CA
:0E00000024CE3E1E0085A1000FC00FE00F4071
:00000001FF
;PIC18F4550
;CRC=377E  CREATED="02-abr.-14 22:04"
