:04200000ACEF1BF036
:08200800046ED8CF05F0E0CF13
:1020100006F00001E9CF0CF0EACF07F0E1CF08F0BD
:10202000E2CF09F0D9CF0AF0DACF0BF0F3CF12F0FC
:10203000F4CF13F0FACF14F0F5CF15F0F6CF16F079
:10204000F7CF17F000C00EF001C00FF002C010F083
:1020500003C011F0A0AA30EF10F0A1BAD4EF17F02E
:102060000EC000F00FC001F010C002F011C003F06C
:102070000CC0E9FF07C0EAFF078E08C0E1FF09C0F6
:10208000E2FF0AC0D9FF0BC0DAFF12C0F3FF13C092
:10209000F4FF14C0FAFF15C0F5FF16C0F6FF17C015
:1020A000F7FF045006C0E0FF05C0D8FF1000F76A34
:1020B000BE0FF66E200EF7220900F5501200000345
:1020C00002FFFFFFFFFFFFFFFFFFFFFFFFFFF76ABA
:1020D000DE0FF66E200EF7220900F550120000FF09
:1020E00002FFFFFFFFFFFFFFFFFFFFFFFFFFF76A9A
:1020F000FE0FF66E200EF7220900F5501200400088
:102100000800400000000000000000000000000087
:102110000000000000000000000000000000F76A5E
:102120002E0FF66E210EF7220900F5501200400026
:10213000000040000000000000000000000000005F
:102140000000000000000000000000000000F76A2E
:102150005E0FF66E210EF7220900F55012000902FB
:102160004300020100803209040000010202010064
:1021700005240010010424020205240600010524A0
:10218000010001070581030800FA09040100020AA1
:10219000000000070502024000010705820240001E
:1021A0000100F76AB20FF66E210EF7220900F55012
:1021B00012000200F76AC40FF66E210EF722090022
:1021C000F550120012171B20FFFFFFFFF76ADC0F0C
:1021D000F66E210EF7220900F550120012011001CF
:1021E00002000040D8040200000101020001F76A69
:1021F000FE0FF66E210EF7220900F55012000403BF
:1022000009040C03500049004E00470055004900E6
:102210004E004F001803500049004E004700550083
:1022200049004E004F0020004A0041004300530087
:1022300053006D92699468A402D06894FCD7E0EFD3
:1022400017F0400E0401016F040E036F180E026FA9
:10225000880E006F046B040E076F580E066F0001A6
:10226000120070A002D0EDDF7090689AE9EF17F0CD
:102270006A6A6892EFEF17F0B891B7BFB881B79F5D
:10228000B751100803E2000E016E17D0B8A10BD0B1
:10229000036AB7510CDFFF0802E1000E01D0010E06
:1022A000016E0BD00AD0036AB75111DFFF0802E1BB
:1022B000000E01D0010E016E00D01200BC51BE0311
:1022C000F3CF01F0F4CF00F0BF03F3500026BD516F
:1022D000BE03F3500020026E1200036AB651700F65
:1022E000E96E0F0E0320EA6EEF6AB6C0B7F0C4DFE6
:1022F000015222E0BD6BB6C0BCF0BF6B080EBE6FD2
:10230000DDDF01C0E9FF040E0224EA6EEF6ABD6B57
:10231000B6C0BCF0BF6B080EBE6FD0DF02C0B8F015
:1023200001C0B7F0040EB727000EB823B7C0E9FF0D
:10233000040EB825EA6EEF6A1200010EB56FB551B2
:102340000F0805E3B5C0B6F0C8DFB52BF8D712000B
:102350002D6A2C6A250E2B6E800E2A6E2E6A2F6A2D
:10236000080E306E7F6B7E91326A316A7A6B7B9198
:102370001200AB6BAB5101080AE3036AAB51280FA3
:10238000E96E000E0320EA6EEF6AAB2BF3D7E0DFB5
:102390001B6A010E1C6E1A6A1200689612006A6AA5
:1023A000686A9F0E6B6E3D0E696E6E6AC6DFE1DF76
:1023B000160E706E68A602D0F0DFFCD76D9841DF74
:1023C000030E226EF5EF17F0698468986D82FBEFBB
:1023D00017F0689C01EF18F0B0C023F012002368DA
:1023E0001200AE6B275226E0AE513F0823E31D508A
:1023F00005E0020A08E0010A0BE00FD0036A26504C
:10240000A6DEAF6F0AD0036A2650F1DEAF6F05D0AB
:10241000036A2650DBDEAF6F00D0262A2706AE51B6
:10242000AE2B580FE96E040EEA6ED8B0EA2AAFC0A0
:10243000EFFFD8D7275204E1AE51400801E01A6AF5
:10244000AEC0B0F0C9DF1200266A1D6A04011B513C
:10245000010A000107E0030A0AE0010A0BE0220A70
:102460001BE02BD0120E276E030E1D6E28D0430EDC
:10247000276E25D0020E1D6E036A04011A511E0F2D
:10248000E96E000E0320EA6EEFCF26F0036A2650B5
:102490000001ADDE276E13D0036A04011A5100015A
:1024A00089DE266E263C01D006D0036A26504FDE18
:1024B000276E05D002D093DF0ED091DF0CD004013F
:1024C0001F5305E127501E5D02E21EC427F0010ED6
:1024D0001A6E000186DF8FEF13F0AD5304E1040E96
:1024E000226E2BDFC9D0050E226E040EB06F980E3F
:1024F000AF6F010EAE6FAE510F08D8A0BDD0AEC009
:10250000B6F0EBDEB16B036AAE51E1DDFF0859E0D6
:10251000040EB16FD890AE35036A01DE0900F5CF25
:1025200003F0B26F03C0B3F0BD6BAEC0BCF0BF6BC5
:10253000080EBE6FC3DE01C0B5F0010E0124016EAE
:10254000000E0220036E01C0E9FF040E0324EA6EB0
:10255000B2C0EFFFBD6BAEC0BCF0BF6B080EBE6F6C
:10256000ADDE01C0B5F0020E0124016E000E0220A6
:10257000036E01C0E9FF040E0324EA6EB0C0ECFF55
:10258000ED52AFC0EFFFD890AE35036AC8DD090049
:10259000F5CF03F0AF270350B023880EB46FB3B16B
:1025A000B481B3B3B483BD6BAEC0BCF0BF6B080ED7
:1025B000BE6F84DE01C0E9FF040E0224EA6EB4C0DF
:1025C000EFFF036AAE5173DDFF0840E0B183BD6BDE
:1025D000AEC0BCF0BF6B080EBE6F70DE02C0B6F0BE
:1025E00001C0B5F0040EB527000EB623020EB525C6
:1025F000016E000EB621036E01C0E9FF040E032434
:10260000EA6EB0C0ECFFED52AFC0EFFFD890AE3530
:10261000036A6DDD0900F5CF03F0AF270350B02347
:10262000BD6BAEC0BCF0BF6B080EBE6F47DE02C014
:10263000B6F001C0B5F0040EB527000EB623B5C044
:10264000E9FF040EB625EA6E400EEF6EB1510608A2
:1026500002E10E0EB16F036AAE5129DD0108D8A464
:10266000B189036AAE51700FE96E0F0E0320EA6E56
:10267000B1C0EFFFAE2B3FD789EF13F00401195122
:10268000000A00010DE0010A14E0020A1EE0060A39
:1026900027E0030A2CE00E0A2CE0010A30E03DD0CE
:1026A0001CC058F40401596B020E0001B06F94DE97
:1026B00036D004011A2D06D0010E1C160001B06B95
:1026C0008BDE02D000018BDE2AD004011A2D05D04A
:1026D0001C820001B06B80DE02D0000180DE1FD0C2
:1026E000020E1A6E1AC424F0B06B76DE18D0ACD687
:1026F00016D01BC058F4010EB06F6EDE10D004016E
:102700001A51010808E31AC41BF01AC4ADF0000105
:10271000E4D6B06B61DE000102D061DE00D003EFD1
:1027200015F01BC0ADF004011951000A000105E0CD
:102730000A0A0BE0010A26E037D00401586B596BF6
:10274000020E0001B06F48DE31D0AD5319E0010E2A
:10275000AD5D036A26DD016E04011C5DD8A002D0C8
:1027600000010ED0036A1C51280FE96E000E0320F1
:10277000EA6EEFCF58F4010E0001B06F2DDE01D0EC
:102780002EDE14D0AD530EE0036A04011C51280F55
:10279000E96E000E0320EA6E1AC4EFFF0001B06B71
:1027A0001BDE01D01CDE02D01ADE00D003EF15F0D4
:1027B000AE91ADBFAE81AD9FAEA117D0BD6BADC028
:1027C000BCF0BF6B080EBE6F79DD02C0B0F001C077
:1027D000AFF0040EAF27000EB023AFC0E9FF040E28
:1027E000B025EA6E880EEF6E0DD0BD6BADC0BCF0AB
:1027F000BF6B080EBE6F62DD01C0E9FF040E02244C
:10280000EA6EEF6A78EF14F0AE91ADBFAE81AD9F86
:10281000AEA117D0BD6BADC0BCF0BF6B080EBE6FD4
:102820004DDD02C0B0F001C0AFF0040EAF27000EC6
:10283000B023AFC0E9FF040EB025EA6E840EEF6E40
:102840000ED0BD6BADC0BCF0BF6B080EBE6F36DDE9
:1028500001C0E9FF040E0224EA6E840EEF6E7EEFE3
:1028600014F0AE91ADBFAE81AD9FAEA117D0BD6BE0
:10287000ADC0BCF0BF6B080EBE6F20DD02C0B1F072
:1028800001C0B0F0040EB027000EB123B0C0E9FFC4
:10289000040EB125EA6EEFCFAFF00ED0BD6BADC028
:1028A000BCF0BF6B080EBE6F09DD01C0E9FF040E6E
:1028B0000224EA6EEFCFAFF0AFAF02D0AFB502D0D7
:1028C000000E01D0010E016E88EF14F01CC4B7F0A9
:1028D000D3DC015229E004011951010A000105E08D
:1028E000020A09E0030A0DE01DD01CC4ADF060D758
:1028F000B06B72DD19D01CC4ADF086D7B06B6CDD47
:1029000013D00401586B596B1CC4ADF00001A9D75A
:10291000015204E0010E0401586F0001020EB06F75
:102920005BDD02D05CDD00D003EF15F0FE0E236E00
:10293000120004011C2D01D002D01C5349E1195191
:10294000000A00010BE0010A0DE0210A1CE0010A67
:102950001FE0030A2EE0010A31E037D0010E816F3B
:10296000E5DF35D0040EEA6E580EE96EE26A330EEA
:10297000E16E080E016EE6CFEEFF012EFCD71EC4FD
:10298000B0F02ADD24D0020E816F7E81CFDF1FD010
:10299000040EEA6E580EE96EE26A2A0EE16E070E28
:1029A000016EE6CFEEFF012EFCD7070EB06F14DDEF
:1029B0000ED01AC47FF0B06B0FDD09D01AC432F00C
:1029C0001BC431F0B06B08DD02D009DD00D004017A
:1029D000000103EF15F01A6A040118517F0B000A79
:1029E000000107E0010A07E0030A07E0230A07E005
:1029F00008D044D608D095D606D068D704D099D749
:102A000002D0EDDC00D028EF17F0BD6BAEC0BCF0FB
:102A1000BF6B080EBE6F52DC01C0E9FF040E02243A
:102A2000EA6EEFCFB0F0AF51020806E1B0AD02D0D0
:102A3000AF6B02D0010EAF6FAF51030819E1840EE6
:102A4000B06FBD6BAEC0BCF0BF6B080EBE6F36DCA6
:102A500002C0B4F001C0B3F0040EB327000EB423DB
:102A6000B3C0E9FF040EB425EA6E840EEF6E07D002
:102A7000AF2D03D0C80EB06F02D0880EB06FD890C3
:102A8000AE35036A8FEC10F00900F5CF03F0B16F9B
:102A900003C0B2F0BD6BAEC0BCF0BF6B080EBE6F22
:102AA0000DDC01C0B3F0010E0124016E000E022006
:102AB000036E01C0E9FF040E0324EA6EB1C0EFFF0C
:102AC000B2B1B081B2B3B083BD6BAEC0BCF0BF6B6E
:102AD000080EBE6F5EEC11F001C0E9FF040E022487
:102AE000EA6EB0C0EFFF1200036ABB51700FE96ECF
:102AF0000F0E0320EA6EEF5219E0BD6BBBC0BCF0B5
:102B0000BF6B080EBE6F5EEC11F002C0BDF001C0DD
:102B1000BCF0040EBC27000EBD23BCC0E9FF040EB0
:102B2000BD25EA6EEFCFBEF0BEAF02D0000E01D0E1
:102B3000010E016E1200B6C0BBF0D6DF0152D8B450
:102B40007CD0BD6BB6C0BCF0BF6B080EBE6F5EEC38
:102B500011F002C0BCF001C0BBF0040EBB27000E98
:102B6000BC23010EBB25016E000EBC21036E01C00B
:102B7000E9FF040E0324EA6EB7C0EFFFB951020863
:102B80001EE1BD6BB6C0BCF0BF6B080EBE6F5EEC45
:102B900011F002C0BCF001C0BBF0040EBB27000E58
:102BA000BC23BBC0E9FF040EBC25EA6EEFCFBAF030
:102BB000BAAD02D0B96B02D0010EB96F18D0B951BD
:102BC000040815E1BD6BB6C0BCF0BF6B080EBE6F4C
:102BD0005EEC11F001C0E9FF040E0224EA6EEFCFB3
:102BE000BAF0BAAD03D0010EB96F01D0B96BB92DEF
:102BF00003D0C80EBA6F02D0880EBA6FB8B1BA81CE
:102C0000B8B3BA83BD6BB6C0BCF0BF6B080EBE6F65
:102C10005EEC11F002C0BCF001C0BBF0040EBB279B
:102C2000000EBC23BBC0E9FF040EBC25EA6EBAC08F
:102C3000EFFF010E016E03D000D0000E016E1200F6
:102C40008151010A03E0030A13E024D0EA6A330E3B
:102C5000E96E040EE26E180EE16E080E016EE6CF0C
:102C6000EEFF012EFCD7B06BECEC11F0816B14D0B1
:102C7000EA6A2A0EE96E040EE26E180EE16E070E85
:102C8000016EE6CFEEFF012EFCD7816BB06BECEC52
:102C900011F002D0816B00D082EF16F0BD6BAEC098
:102CA000BCF0BF6B080EBE6F5EEC11F002C0B0F05E
:102CB00001C0AFF0010E0124016E000E0220036E70
:102CC00001C0E9FF040E0324EA6E036AEFCF01F0AE
:102CD00003C002F078EF16F07B91020EAE6FAF6F7B
:102CE00094DE7DEF16F07B817D6B020EAE6FD6D742
:102CF00001C07CF07C5301E1EFD787EF16F0AD53B4
:102D000002E19ED704D0AD51020801E1ECD71200D8
:102D1000AEC06EFFAE5303E0040E226E02D0020E70
:102D2000226E98EF16F01B6A1A6A24C0AEF0F0D734
:102D300007EF17F0AEC0BBF0D7DE015246E0BD6B27
:102D4000AEC0BCF0BF6B080EBE6F5EEC11F002C0EF
:102D5000B7F001C0B6F0040EB627000EB723020E7E
:102D6000B625016E000EB721036E01C0E9FF040E07
:102D70000324EA6EECCF03F0ED52EFCFB4F003C0C2
:102D8000B5F0B5C0EAFFB4C0E9FFB0C0E2FFAFC024
:102D9000E1FFB2C002F0B1C001F0015202E0022A2C
:102DA00002D0025206E0E6CFEEFF012EFCD7022E43
:102DB000FAD7AEC0B6F0B2C0B8F0B1C0B7F0B3C089
:102DC000B9F0B9DE015003D000D0000E016E120040
:102DD000020EAE6FB06B3B0EAF6FB26B7AC0B1F04C
:102DE000020EB36FA7DF7AC080F07A6B12007A53BD
:102DF00001E0EEDF0CEF17F0AD530AE11A2C03D01F
:102E0000F1EC11F004D01A50020801E18CD704D083
:102E1000AD51020801E1EBD712002130AB6FAB33AB
:102E2000AB331F0EAB17215242E1040100513C0BA2
:102E30000001AC6F430E040100170001AC513408CF
:102E40001EE104010451800B01E0046B0001C3D5B5
:102E50006D98233C05D0AE6B030EAF6FD6DD0ED060
:102E6000AE6B020EAF6FD1DD2350FE0807E0B66BEC
:102E7000B86B23C0B7F0040EB96F5DDE17D0AC514C
:102E8000040814E1AD6B3BDFAE6B020EAF6FBDDD2E
:102E90002350FE080AE0233C01D007D0B66BB86B84
:102EA00023C0B7F0010EB96F46DE00D07BD02150B1
:102EB000040813E1430E0401041723680001AD6BFD
:102EC0009BDF233C01D008D0B66BB86B23C0B7F0B2
:102ED000020EB96F30DE00D065D021B42CD0BD6BAE
:102EE000ABC0BCF0BF6B080EBE6F5EEC11F002C051
:102EF000AEF001C0ADF001C001F0040E0224036E7B
:102F000001C0AFF0B06FBD6BABC0BCF0BF6B080EC3
:102F1000BE6F5EEC11F001C0E9FF040E0224EA6E00
:102F2000EF50430BB0C0EAFFAFC0E9FFEF6EABC09C
:102F3000ADF0E5DE37D0BD6BABC0BCF0BF6B080EAB
:102F4000BE6F5EEC11F002C0AEF001C0ADF0040E39
:102F5000AD27000EAE23ADC001F0040EAE25036E0A
:102F6000ADC0AFF0B06FBD6BABC0BCF0BF6B080EB7
:102F7000BE6F5EEC11F002C0B2F001C0B1F0040E01
:102F8000B127000EB223B1C0E9FF040EB225EA6EEC
:102F9000EF50430BB0C0EAFFAFC0E9FFEF6EABC02C
:102FA000ADF02ADF0BEF18F0A19A225201E139D0DF
:102FB000685237E068A404D069A402D019EF11F078
:102FC0006DA201D02ED068AA04D069AA02D031EF38
:102FD00011F068A204D069A202D038EF11F068A005
:102FE00004D069A002D0CFEF11F068A804D069A87E
:102FF00002D0E4EF11F068AC04D069AC02D0E9EF84
:1030000011F0AA6B68A608D069A606D06CCF21F093
:10301000CDEC11F002D701D004D0AA51AA2B03089D
:10302000F1E230EF10F04C6563746F7220616E61F5
:103030006C6F6769636F0D0A00004144433A254C89
:10304000752020563A25660A0D006D6A696A080ED9
:103050006F6E94503009946E226A196AF2BE198E0E
:10306000F29EB9EC11F019BEF28E38EF18F0EDD7E0
:103070005EEF18F0196AF2BE198EF29EB9EC11F0EB
:1030800019BEF28E6D6A140E6F6E696A6D86010E3E
:10309000226E4EEF18F06DB601D0ECD7222C0BD07B
:1030A0006DBA09D0686A696AA08AC00EF212110E60
:1030B000696E020E226E5FEF18F0D9D7ECD722505E
:1030C0000208FCE16BEF18F01B5202E10400FCD790
:1030D0006CEF18F0F2D7F8D7D0EF1BF0EA6A890E40
:1030E000E96EEF500EE00F0E016E006A002EFED763
:1030F000012EFBD78F0E006E002EFED70000EF2EA4
:10310000F2D712009891F2BE9881F29E7A513E0851
:1031100002E23E0E7A6F7A517A2B036A3B0FE96E18
:10312000000E0320EA6E97C0EFFFF29E98B1F28E78
:103130009DEF18F096C097F0E5D7196AF2BE198E88
:10314000F29E020EBB6FD0DC19BEF28E015207E078
:10315000196AF2BE198EF29E3BDE19BEF28ECAEFDC
:1031600018F07A513E0813E2196AF2BE198EF29EE7
:10317000020EBB6FB9DC19BEF28E015207E0196A6C
:10318000F2BE198EF29E24DE19BEF28EEAD795C0E9
:1031900096F0D0D712000900F5520CE0F6CF88F077
:1031A000F7CF89F0F5CF95F0DCDF88C0F6FF89C056
:1031B000F7FFF1D7DCEF1BF08E0E006E89C001F037
:1031C00088C002F0036A015209E102C001F0026AFC
:1031D000080E005E015202E1006A08D0D89001BEDC
:1031E00004D0023601360006F9D7019EF4EF1BF039
:1031F0008851D8B4A5D0946F8C51D8B4A1D0945F25
:1032000005E37F0E9427D8B09BD006D0810E945F43
:10321000D8A096D0D8B494D094C000F0016A026AC5
:10322000036A936B89C092F0928F8AC091F08BC031
:1032300090F0190E946F8F51905F0DE2010E915F27
:103240000AE2925F08E2935F06E2932B922B912BA6
:103250008F51902728D08E51915F12E2010E925F1C
:103260000FE2935F0DE2932B922B8E5191278F519A
:10327000902719E3912B17E1922B15E1932B13D093
:103280008D518009925F0EE2010E935F0BE2932B4A
:103290008D51800992278E519127E9E3922BE7E126
:1032A000932BE5D70380942F01D00BD0D890903783
:1032B000913792379337D8900336023601369537D7
:1032C000BAD795A106D0D890013202320332953395
:1032D00002D0000635E095BF1ED0D89090379137C8
:1032E000923793378F51905F07E2010E915F04E2AE
:1032F000925F02E2935F1AE38E51915F05E2010E45
:10330000925F02E2935F12E38D518009925F03E2C4
:10331000010E935F0BE3032A09E1022A07E1012A68
:1033200005E1002A0DE001320232033289C094F037
:103330008D51941B94AF02D0018E06D0019E04D013
:10334000006A016A026A036A04EF1CF09551D8B45E
:1033500071D0006E9951D8B46DD0002604E3810E6F
:10336000002668E204D07F0E005E64E363E096C04E
:103370009DF09A519D1B968F9A8F98519C03F4CF84
:103380009FF097519B03F4CF03F0F3CF9EF09C0383
:10339000F3509F27F4509E23000E032298519B0365
:1033A000F3509F27F4509E23000E026A032202224C
:1033B00096519C03F3509E27F4500322000E0222E4
:1033C00096519B03F3500326F4500222000E016A2B
:1033D000012298519A03F3509E27F4500322000EC5
:1033E0000222012297519A03F3500326F45002223D
:1033F000000E012296519A03F3500226F450012246
:10340000002A01BE05D09E3703360236013600067B
:10341000000E9EAF0AD0032A02220122015005E1CC
:10342000025003E1035001E1002A9DBF018E9DAFD0
:10343000019E04D0006A016A026A036A1200090050
:10344000F6CF89F0F7CF8AF0F5CF95F08ADE89C004
:10345000F6FF8AC0F7FF882FF2D71200EACF90F06C
:10346000E9CF8FF08939F0098B6F8B27E20F8C6FD2
:10347000320F8E6F89510F0B8C278C278E27E90F07
:103480008D6F8D278D2788390F0B8D278E278D37D0
:103490008E378E1F8E3788510F0B8E278B37070E76
:1034A0008A6F0A0E8D078E27FDE38C078D27FDE3BB
:1034B0008B078C27FDE38A078B27FDE3EA6A8A0ED8
:1034C000E96E070E8F158F9DE9268E0EE95CD8B444
:1034D0008F8DEF50006E08E18FBD06D08FB913D0ED
:1034E0008FB702D0200E03D08F878F99300E002621
:1034F000EACF89F0E9CF88F000C095F032DE89C0CC
:10350000EAFF88C0E9FFEE508FADDFD731EF1CF046
:103510009551B608956F036A96C099F0968FD8902A
:103520009633973398330332023201320032952FAB
:10353000F6D799AF0BD0001E011E021E031E002AF3
:10354000D8B4012AD8B4022AD8B4032A16EF1BF043
:10355000D8B203D0EA6A9D0EE96E006A016A026A77
:10356000036A9D6B9E6B9F6BA06B9C519B119A1184
:1035700099112CE0200EA16FD89095379637973788
:1035800098379D379E379F37A0379C51A05D08E143
:103590009B519F5D05E19A519E5D02E199519D5DB0
:1035A0000FE399519D5F9A51D8A09A3D9E5F9B5120
:1035B000D8A09B3D9F5F9C51D8A09C3DA05FD88028
:1035C0000036013602360336A12FD6D79DC0EFFF55
:1035D0009EC0ECFF9FC0ECFFA0C0ECFF1200E950C2
:1035E0008D6F8C518F6F19E08BC098F08AC097F067
:1035F00089C096F088C095F09C6B9B6B200E9A6FEB
:10360000820E996FA3DE03C08BF002C08AF001C066
:1036100089F000C088F08F2FE7D78BC098F08AC060
:1036200097F089C096F088C095F072D703C08BF0F0
:1036300002C08AF001C089F000C088F08BAF0DD0C5
:103640008D078D8B881F891F8A1F8B1F882BD8B4ED
:10365000892BD8B48A2BD8B48B2B3B0E946F9A0E3F
:10366000936FCA0E926F916B0A0E8F6F8C51D8B404
:103670008D2BD882EA6A880EE96E8BC098F08AC0DA
:1036800097F089C096F088C095F094C09CF093C0E4
:103690009BF092C09AF091C099F05ADF015000520D
:1036A0000FE18C298F5D0CE08D510CE00F0B8F5DCD
:1036B00001E037E28DBF35D08DBD04D0200E2DD076
:1036C000200E8D178DAB0CD08D9B8C51D8A48D07FF
:1036D00000508D6F2D0E956F44DD8D51006E8D6BFA
:1036E0008C518F5D0AE100508D6F2E0E956F39DD84
:1036F0008D51006E200E8D17000E300E8DAB0DD04B
:103700008D9B8C51D8A48D0700508D6F2D0E956F19
:1037100028DD8D51006E8D6B300E002600C095F0B7
:1037200020DDD89294C098F093C097F092C096F0A4
:1037300091C095F09C6B9B6B9A6B0A0E996F08DF9A
:1037400003C094F002C093F001C092F000C091F069
:103750008F2F8FD745EF1CF0F86AD09E078EEA6A4C
:10376000E96A226A276A7A6B816B836B826B876B4B
:10377000866B856B846BC150C00B0F09C16E070E41
:10378000B46E1E6A040E1F6E0C0E206EC150C00B6C
:103790000E09C16EC080C082C084C08EC2809AD41F
:1037A000080E886FFA0E896F99DC882FFBD7260EDA
:1037B000F66E300EF76EEFD4C80E896F8FDC000EF8
:1037C000016EC250C30B0110C26E050E896F86DCFC
:1037D000C282C2B2FED7C3CF82F0C4CF83F083C00F
:1037E00089F082C088F0E8D403C08BF002C08AF070
:1037F00001C089F000C088F08F6BC00E8E6F7F0E05
:103800008D6F880E8C6FF4D400C088F001C089F0F1
:1038100002C08AF003C08BF003C098F002C097F09A
:1038200001C096F000C095F09C6B9B6B200E9A6FC8
:10383000810E996F8BDD03C087F002C086F001C056
:1038400085F000C084F03A0EF66E300EF76E040E6E
:10385000886FF5DD100EE96E83C089F082C088F0B4
:10386000FDD5410EF66E300EF76E040E886FE7DD63
:10387000890EE96E87C08BF086C08AF085C089F01A
:1038800084C088F0020E8C6FAAD60A0E956F69DC90
:103890000D0E956F66DCC80E896F20DC90D7030093
:020000040030CA
:0E00000024CE3E1E0085A1000FC00FE00F4071
:00000001FF
;PIC18F4550
;CRC=B689  CREATED="21-may.-15 12:15"
