:0420000071EF18F074
:08200800046ED8CF05F0E0CF13
:1020100006F00001E9CF0CF0EACF07F0E1CF08F0BD
:10202000E2CF09F0D9CF0AF0DACF0BF0F3CF12F0FC
:10203000F4CF13F0FACF14F0F5CF15F0F6CF16F079
:10204000F7CF17F000C00EF001C00FF002C010F083
:1020500003C011F0A0AA30EF10F0A1BACEEF17F034
:102060000EC000F00FC001F010C002F011C003F06C
:102070000CC0E9FF07C0EAFF078E08C0E1FF09C0F6
:10208000E2FF0AC0D9FF0BC0DAFF12C0F3FF13C092
:10209000F4FF14C0FAFF15C0F5FF16C0F6FF17C015
:1020A000F7FF045006C0E0FF05C0D8FF1000F76A34
:1020B000BE0FF66E200EF7220900F5501200000345
:1020C00002FFFFFFFFFFFFFFFFFFFFFFFFFFF76ABA
:1020D000DE0FF66E200EF7220900F550120000FF09
:1020E00002FFFFFFFFFFFFFFFFFFFFFFFFFFF76A9A
:1020F000FE0FF66E200EF7220900F5501200400088
:102100000800400000000000000000000000000087
:102110000000000000000000000000000000F76A5E
:102120002E0FF66E210EF7220900F5501200400026
:10213000000040000000000000000000000000005F
:102140000000000000000000000000000000F76A2E
:102150005E0FF66E210EF7220900F55012000902FB
:102160004300020100803209040000010202010064
:1021700005240010010424020205240600010524A0
:10218000010001070581030800FA09040100020AA1
:10219000000000070502024000010705820240001E
:1021A0000100F76AB20FF66E210EF7220900F55012
:1021B00012000200F76AC40FF66E210EF722090022
:1021C000F550120012171B20FFFFFFFFF76ADC0F0C
:1021D000F66E210EF7220900F550120012011001CF
:1021E00002000040D8040200000101020001F76A69
:1021F000FE0FF66E210EF7220900F55012000403BF
:10220000090408034300430053001803530045002A
:102210005200490041004C002000440045004D00A0
:102220004F006D92699468A402D06894FCD7DAEFED
:1022300017F0400E0401016F040E036F180E026FB9
:10224000880E006F046B040E076F580E066F0001B6
:10225000120070A002D0EDDF7090689AE3EF17F0E3
:102260006A6A6892E9EF17F09B919ABF9B819A9FE7
:102270009A51100803E2000E016E17D09BA10BD0FB
:10228000036A9A5114DFFF0802E1000E01D0010E2B
:10229000016E0BD00AD0036A9A5119DFFF0802E1E0
:1022A000000E01D0010E016E00D012009F51A1035B
:1022B000F3CF01F0F4CF00F0A203F3500026A051B9
:1022C000A103F3500020026E1200036A9951700FAF
:1022D000E96E0F0E0320EA6EEF6A99C09AF0C4DF30
:1022E000015222E0A06B99C09FF0A26B080EA16F73
:1022F000DDDF01C0E9FF040E0224EA6EEF6AA06B85
:1023000099C09FF0A26B080EA16FD0DF02C09BF0B6
:1023100001C09AF0040E9A27000E9B239AC0E9FF91
:10232000040E9B25EA6EEF6A1200010E986F985119
:102330000F0805E398C099F0C8DF982BF8D7120072
:102340002D6A2C6A250E2B6E800E2A6E2E6A2F6A3D
:10235000080E306E7F6B7E91326A316A7A6B7B91A8
:10236000806B12008E6B8E5101080AE3036A8E5156
:10237000280FE96E000E0320EA6EEF6A8E2BF3D76A
:10238000DFDF1B6A010E1C6E1A6A120068961200CB
:102390006A6A686A9F0E6B6E3D0E696E6E6AC5DF73
:1023A000E1DF160E706E68A602D0F0DFFCD76D98E4
:1023B00040DF030E226EEFEF17F0698468986D829C
:1023C000F5EF17F0689CFBEF17F093C023F01200B5
:1023D00023681200916B275226E091513F0823E3B6
:1023E0001D5005E0020A08E0010A0BE00FD0036A65
:1023F0002650ADDE926F0AD0036A2650F8DE926F47
:1024000005D0036A2650E2DE926F00D0262A270606
:102410009151912B580FE96E040EEA6ED8B0EA2A5A
:1024200092C0EFFFD8D7275204E19151400801E054
:102430001A6A91C093F0C9DF1200266A1D6A04016E
:102440001B51010A000107E0030A0AE0010A0BE040
:10245000220A1BE02BD0120E276E030E1D6E28D011
:10246000430E276E25D0020E1D6E036A04011A5119
:102470001E0FE96E000E0320EA6EEFCF26F0036A0E
:1024800026500001B4DE276E13D0036A04011A51EE
:10249000000190DE266E263C01D006D0036A26504D
:1024A00056DE276E05D002D093DF0ED091DF0CD020
:1024B00004011F5305E127501E5D02E21EC427F0F0
:1024C000010E1A6E000186DF88EF13F0905304E1CD
:1024D000040E226E2ADFC9D0050E226E040E936F01
:1024E000980E926F010E916F91510F08D8A0BDD038
:1024F00091C099F0EADE946B036A9151E8DDFF0820
:1025000059E0040E946FD8909135036A08DE0900F3
:10251000F5CF03F0956F03C096F0A06B91C09FF0CC
:10252000A26B080EA16FC2DE01C098F0010E01245B
:10253000016E000E0220036E01C0E9FF040E0324A9
:10254000EA6E95C0EFFFA06B91C09FF0A26B080EE2
:10255000A16FACDE01C098F0020E0124016E000EE6
:102560000220036E01C0E9FF040E0324EA6E93C04B
:10257000ECFFED5292C0EFFFD8909135036ACFDDAA
:102580000900F5CF03F0922703509323880E976F2D
:1025900096B1978196B39783A06B91C09FF0A26B81
:1025A000080EA16F83DE01C0E9FF040E0224EA6E6B
:1025B00097C0EFFF036A91517ADDFF0840E09483F2
:1025C000A06B91C09FF0A26B080EA16F6FDE02C0DE
:1025D00099F001C098F0040E9827000E9923020E7E
:1025E0009825016E000E9921036E01C0E9FF040ECB
:1025F0000324EA6E93C0ECFFED5292C0EFFFD89037
:102600009135036A74DD0900F5CF03F0922703507A
:102610009323A06B91C09FF0A26B080EA16F46DEC2
:1026200002C099F001C098F0040E9827000E99237B
:1026300098C0E9FF040E9925EA6E400EEF6E9451A2
:10264000060802E10E0E946F036A915130DD010815
:10265000D8A49489036A9151700FE96E0F0E03207C
:10266000EA6E94C0EFFF912B3FD782EF13F0040185
:102670001951000A00010DE0010A14E0020A1EE0EF
:10268000060A27E0030A2CE00E0A2CE0010A30E0DB
:102690003DD01CC058F40401596B020E0001936F29
:1026A00094DE36D004011A2D06D0010E1C1600014E
:1026B000936B8BDE02D000018BDE2AD004011A2D31
:1026C00005D01C820001936B80DE02D0000180DE09
:1026D0001FD0020E1A6E1AC424F0936B76DE18D047
:1026E000ACD616D01BC058F4010E936F6EDE10D01E
:1026F00004011A51010808E31AC41BF01AC490F02F
:102700000001E4D6936B61DE000102D061DE00D0EF
:10271000FCEF14F01BC090F004011951000A0001F5
:1027200005E00A0A0BE0010A26E037D00401586BE5
:10273000596B020E0001936F48DE31D0905319E0BF
:10274000010E905D036A2DDD016E04011C5DD8A0B1
:1027500002D000010ED0036A1C51280FE96E000E52
:102760000320EA6EEFCF58F4010E0001936F2DDEC7
:1027700001D02EDE14D090530EE0036A04011C51E8
:10278000280FE96E000E0320EA6E1AC4EFFF000165
:10279000936B1BDE01D01CDE02D01ADE00D0FCEFF2
:1027A00014F0919190BF9181909F91A117D0A06B4F
:1027B00090C09FF0A26B080EA16F78DD02C093F06D
:1027C00001C092F0040E9227000E932392C0E9FFFD
:1027D000040E9325EA6E880EEF6E0DD0A06B90C0AC
:1027E0009FF0A26B080EA16F61DD01C0E9FF040E2E
:1027F0000224EA6EEF6A71EF14F0919190BF91811B
:10280000909F91A117D0A06B90C09FF0A26B080E73
:10281000A16F4CDD02C093F001C092F0040E92272C
:10282000000E932392C0E9FF040E9325EA6E840EF6
:10283000EF6E0ED0A06B90C09FF0A26B080EA16F40
:1028400035DD01C0E9FF040E0224EA6E840EEF6E4E
:1028500077EF14F0919190BF9181909F91A117D043
:10286000A06B90C09FF0A26B080EA16F1FDD02C08D
:1028700094F001C093F0040E9327000E942393C0AC
:10288000E9FF040E9425EA6EEFCF92F00ED0A06B14
:1028900090C09FF0A26B080EA16F08DD01C0E9FF98
:1028A000040E0224EA6EEFCF92F092AF02D092B5FE
:1028B00002D0000E01D0010E016E81EF14F01CC495
:1028C0009AF0D2DC015229E004011951010A0001F9
:1028D00005E0020A09E0030A0DE01DD01CC490F0D7
:1028E00060D7936B72DD19D01CC490F086D7936BC0
:1028F0006CDD13D00401586B596B1CC490F00001BF
:10290000A9D7015204E0010E0401586F0001020E24
:10291000936F5BDD02D05CDD00D0FCEF14F0FE0EA7
:10292000236E120004011C2D01D002D01C5349E17A
:102930001951000A00010BE0010A0DE0210A1CE018
:10294000010A1FE0030A2EE0010A31E037D0010E30
:10295000806FE5DF35D0040EEA6E580EE96EE26A4C
:10296000330EE16E080E016EE6CFEEFF012EFCD7AE
:102970001EC493F02ADD24D0020E806F7E81CFDF4B
:102980001FD0040EEA6E580EE96EE26A2A0EE16E5E
:10299000070E016EE6CFEEFF012EFCD7070E936FF8
:1029A00014DD0ED01AC47FF0936B0FDD09D01AC46A
:1029B00032F01BC431F0936B08DD02D009DD00D08A
:1029C00004010001FCEF14F01A6A040118517F0B96
:1029D000000A000107E0010A07E0030A07E0230AF2
:1029E00007E008D044D608D095D606D068D704D0E2
:1029F00099D702D0EDDC00D022EF17F0A06B91C088
:102A00009FF0A26B080EA16F51DC01C0E9FF040E1C
:102A10000224EA6EEFCF93F09251020806E193ADE3
:102A200002D0926B02D0010E926F9251030819E10D
:102A3000840E936FA06B91C09FF0A26B080EA16FE4
:102A400035DC02C097F001C096F0040E9627000E08
:102A5000972396C0E9FF040E9725EA6E840EEF6E69
:102A600007D0922D03D0C80E936F02D0880E936FBB
:102A7000D8909135036A8FEC10F00900F5CF03F080
:102A8000946F03C095F0A06B91C09FF0A26B080EED
:102A9000A16F0CDC01C096F0010E0124016E000E46
:102AA0000220036E01C0E9FF040E0324EA6E94C005
:102AB000EFFF95B1938195B39383A06B91C09FF085
:102AC000A26B080EA16F56EC11F001C0E9FF040ED5
:102AD0000224EA6E93C0EFFF1200036A9E51700F4A
:102AE000E96E0F0E0320EA6EEF5219E0A06B9EC054
:102AF0009FF0A26B080EA16F56EC11F002C0A0F07F
:102B000001C09FF0040E9F27000EA0239FC0E9FF85
:102B1000040EA025EA6EEFCFA1F0A1AF02D0000E07
:102B200001D0010E016E120099C09EF0D6DF015255
:102B3000D8B47CD0A06B99C09FF0A26B080EA16F97
:102B400056EC11F002C09FF001C09EF0040E9E27CB
:102B5000000E9F23010E9E25016E000E9F21036E25
:102B600001C0E9FF040E0324EA6E9AC0EFFF9C51F6
:102B700002081EE1A06B99C09FF0A26B080EA16F26
:102B800056EC11F002C09FF001C09EF0040E9E278B
:102B9000000E9F239EC0E9FF040E9F25EA6EEFCF33
:102BA0009DF09DAD02D09C6B02D0010E9C6F18D0A1
:102BB0009C51040815E1A06B99C09FF0A26B080E10
:102BC000A16F56EC11F001C0E9FF040E0224EA6E79
:102BD000EFCF9DF09DAD03D0010E9C6F01D09C6B9B
:102BE0009C2D03D0C80E9D6F02D0880E9D6F9BB1A7
:102BF0009D819BB39D83A06B99C09FF0A26B080E33
:102C0000A16F56EC11F002C09FF001C09EF0040EBF
:102C10009E27000E9F239EC0E9FF040E9F25EA6EAB
:102C20009DC0EFFF010E016E03D000D0000E016EBB
:102C300012008051010A03E0030A13E024D0EA6A7B
:102C4000330EE96E040EE26E180EE16E080E016E90
:102C5000E6CFEEFF012EFCD7936BE5EC11F0806B15
:102C600014D0EA6A2A0EE96E040EE26E180EE16EC6
:102C7000070E016EE6CFEEFF012EFCD7806B936B43
:102C8000E5EC11F002D0806B00D07AEF16F0A06B6B
:102C900091C09FF0A26B080EA16F56EC11F002C01C
:102CA00093F001C092F0010E0124016E000E02208B
:102CB000036E01C0E9FF040E0324EA6E036AEFCF3E
:102CC00001F003C002F070EF16F07B91020E916FDD
:102CD000926F94DE12007B817D6B020E916FD7D7CD
:102CE00001C07CF07C5301E1F0DF7FEF16F09053E0
:102CF00002E19FD704D09051020801E1ECD7120005
:102D000091C06EFF915303E0040E226E02D0020EBA
:102D1000226E90EF16F01B6A1A6A24C091F0F0D769
:102D200001EF17F091C09EF0D8DE015246E0A06B93
:102D300091C09FF0A26B080EA16F56EC11F002C07B
:102D40009AF001C099F0040E9927000E9A23020E02
:102D50009925016E000E9A21036E01C0E9FF040E51
:102D60000324EA6EECCF03F0ED52EFCF97F003C0EF
:102D700098F098C0EAFF97C0E9FF93C0E2FF92C0C5
:102D8000E1FF95C002F094C001F0015202E0022A76
:102D900002D0025206E0E6CFEEFF012EFCD7022E53
:102DA000FAD791C099F095C09BF094C09AF096C064
:102DB0009CF0BADE015003D000D0000E016EEEEFA1
:102DC00016F07A530EE0020E916F936B3B0E926FEA
:102DD000956B7AC094F0020E966FA4D7015201E071
:102DE0007A6BF4EF16F0EDD706EF17F090530AE187
:102DF0001A2C03D0EAEC11F004D01A50020801E1B9
:102E00008AD704D09051020801E1EDD71200213099
:102E10008E6F8E338E331F0E8E17215242E10401C6
:102E200000513C0B00018F6F430E0401001700019D
:102E30008F5134081EE104010451800B01E0046B42
:102E40000001C2D56D98233C05D0916B030E926FA3
:102E5000D5DD0ED0916B020E926FD0DD2350FE08AF
:102E600007E0996B9B6B23C09AF0040E9C6F5CDEAD
:102E700017D08F51040814E1906B39DF916B020E6B
:102E8000926FBCDD2350FE080AE0233C01D007D03E
:102E9000996B9B6B23C09AF0010E9C6F45DE00D0AE
:102EA0007BD02150040813E1430E0401041723686A
:102EB0000001906B9BDF233C01D008D0996B9B6B8A
:102EC00023C09AF0020E9C6F2FDE00D065D021B493
:102ED0002CD0A06B8EC09FF0A26B080EA16F56EC99
:102EE00011F002C091F001C090F001C001F0040E99
:102EF0000224036E01C092F0936FA06B8EC09FF00E
:102F0000A26B080EA16F56EC11F001C0E9FF040E90
:102F10000224EA6EEF50430B93C0EAFF92C0E9FF30
:102F2000EF6E8EC090F0E3DE37D0A06B8EC09FF0C6
:102F3000A26B080EA16F56EC11F002C091F001C017
:102F400090F0040E9027000E912390C001F0040E23
:102F50009125036E90C092F0936FA06B8EC09FF08E
:102F6000A26B080EA16F56EC11F002C095F001C0E3
:102F700094F0040E9427000E952394C0E9FF040EEC
:102F80009525EA6EEF50430B93C0EAFF92C0E9FF2C
:102F9000EF6E8EC090F02ADF05EF18F0A19A225252
:102FA00001E139D0685237E068A404D069A402D0A6
:102FB00011EF11F06DA201D02ED068AA04D069AA39
:102FC00002D029EF11F068A204D069A202D030EF3C
:102FD00011F068A004D069A002D0C8EF11F068A871
:102FE00004D069A802D0DDEF11F068AC04D069AC60
:102FF00002D0E2EF11F08D6B68A608D069A606D06A
:103000006CCF21F0C6EC11F002D701D004D08D5165
:103010008D2B0308F1E230EF10F06D6A696A080E3B
:103020006F6E94503009946E226A196AF2BE198E3E
:10303000F29EB2EC11F019BEF28E20EF18F0EDD72F
:1030400046EF18F0196AF2BE198EF29EB2EC11F03A
:1030500019BEF28E6D6A140E6F6E696A6D86010E6E
:10306000226E36EF18F06DB601D0ECD7222C0BD0C3
:103070006DBA09D0686A696AA08AC00EF212110E90
:10308000696E020E226E47EF18F0D9D7ECD72250A6
:103090000208FCE153EF18F01B5202E10400FCD7D8
:1030A00054EF18F0F2D7F8D78DEF18F07BB101D0BC
:1030B000FDD77D517D2BA00FE96E040EEA6ED8B0CE
:1030C000EA2AEFCF82F07C517D5D07E3196AF2BEF8
:1030D000198EF29EFADD19BEF28E82C001F093EFD6
:1030E00018F0F86AD09E078EEA6AE96A226A276AAF
:1030F000C150C00B0F09C16E070EB46E1E6A040EDC
:103100001F6E0C0E206E000E926E936A100E8A6E69
:10311000C150C00B0F09C16EC5D7000E7BB1010EA7
:10312000000A0DE0C3D701C081F08151720802E1AD
:10313000929889888151520802E192988998EDD736
:0231400003008A
:020000040030CA
:0E00000024CE3E1E0085A1000FC00FE00F4071
:00000001FF
;PIC18F4550
;CRC=4B5D  CREATED="22-sep-15 12:50"
