:0420000025EF1CF0BC
:08200800046ED8CF05F0E0CF13
:1020100006F00001E9CF0CF0EACF07F0E1CF08F0BD
:10202000E2CF09F0D9CF0AF0DACF0BF0F3CF12F0FC
:10203000F4CF13F0FACF14F0F5CF15F0F6CF16F079
:10204000F7CF17F000C00EF001C00FF002C010F083
:1020500003C011F0A0AA30EF10F0A1BACDEF17F035
:102060000EC000F00FC001F010C002F011C003F06C
:102070000CC0E9FF07C0EAFF078E08C0E1FF09C0F6
:10208000E2FF0AC0D9FF0BC0DAFF12C0F3FF13C092
:10209000F4FF14C0FAFF15C0F5FF16C0F6FF17C015
:1020A000F7FF045006C0E0FF05C0D8FF1000F76A34
:1020B000BE0FF66E200EF7220900F5501200000345
:1020C00002FFFFFFFFFFFFFFFFFFFFFFFFFFF76ABA
:1020D000DE0FF66E200EF7220900F550120000FF09
:1020E00002FFFFFFFFFFFFFFFFFFFFFFFFFFF76A9A
:1020F000FE0FF66E200EF7220900F5501200400088
:102100000800400000000000000000000000000087
:102110000000000000000000000000000000F76A5E
:102120002E0FF66E210EF7220900F5501200400026
:10213000000040000000000000000000000000005F
:102140000000000000000000000000000000F76A2E
:102150005E0FF66E210EF7220900F55012000902FB
:102160004300020100803209040000010202010064
:1021700005240010010424020205240600010524A0
:10218000010001070581030800FA09040100020AA1
:10219000000000070502024000010705820240001E
:1021A0000100F76AB20FF66E210EF7220900F55012
:1021B00012000200F76AC40FF66E210EF722090022
:1021C000F550120012171B20FFFFFFFFF76ADC0F0C
:1021D000F66E210EF7220900F550120012011001CF
:1021E00002000040D8040200000101020001F76A69
:1021F000FE0FF66E210EF7220900F55012000403BF
:10220000090408034300430053001803530045002A
:102210005200490041004C002000440045004D00A0
:102220004F006D92699468A402D06894FCD7D9EFEE
:1022300017F0400E0401016F040E036F180E026FB9
:10224000880E006F046B040E076F580E066F0001B6
:10225000120070A002D0EDDF7090689AE2EF17F0E4
:102260006A6A6892E8EF17F0B891B7BFB881B79F74
:10227000B751100803E2000E016E17D0B8A10BD0C1
:10228000036AB75114DFFF0802E1000E01D0010E0E
:10229000016E0BD00AD0036AB75119DFFF0802E1C3
:1022A000000E01D0010E016E00D01200BC51BE0321
:1022B000F3CF01F0F4CF00F0BF03F3500026BD517F
:1022C000BE03F3500020026E1200036AB651700F75
:1022D000E96E0F0E0320EA6EEF6AB6C0B7F0C4DFF6
:1022E000015222E0BD6BB6C0BCF0BF6B080EBE6FE2
:1022F000DDDF01C0E9FF040E0224EA6EEF6ABD6B68
:10230000B6C0BCF0BF6B080EBE6FD0DF02C0B8F025
:1023100001C0B7F0040EB727000EB823B7C0E9FF1D
:10232000040EB825EA6EEF6A1200010EB56FB551C2
:102330000F0805E3B5C0B6F0C8DFB52BF8D712001B
:102340002D6A2C6A250E2B6E800E2A6E2E6A2F6A3D
:10235000080E306E7F6B7E91326A316A7A6B7B91A8
:10236000806B1200AB6BAB5101080AE3036AAB51FF
:10237000280FE96E000E0320EA6EEF6AAB2BF3D74D
:10238000DFDF1B6A010E1C6E1A6A120068961200CB
:102390006A6A686A9F0E6B6E3D0E696E6E6AC5DF73
:1023A000E1DF160E706E68A602D0F0DFFCD76D98E4
:1023B00040DF030E226EEEEF17F0698468986D829D
:1023C000F4EF17F0689CFAEF17F0B0C023F012009A
:1023D00023681200AE6B275226E0AE513F0823E37C
:1023E0001D5005E0020A08E0010A0BE00FD0036A65
:1023F0002650ADDEAF6F0AD0036A2650F8DEAF6F0D
:1024000005D0036A2650E2DEAF6F00D0262A2706E9
:10241000AE51AE2B580FE96E040EEA6ED8B0EA2A20
:10242000AFC0EFFFD8D7275204E1AE51400801E01A
:102430001A6AAEC0B0F0C9DF1200266A1D6A040134
:102440001B51010A000107E0030A0AE0010A0BE040
:10245000220A1BE02BD0120E276E030E1D6E28D011
:10246000430E276E25D0020E1D6E036A04011A5119
:102470001E0FE96E000E0320EA6EEFCF26F0036A0E
:1024800026500001B4DE276E13D0036A04011A51EE
:10249000000190DE266E263C01D006D0036A26504D
:1024A00056DE276E05D002D093DF0ED091DF0CD020
:1024B00004011F5305E127501E5D02E21EC427F0F0
:1024C000010E1A6E000186DF88EF13F0AD5304E1B0
:1024D000040E226E2ADFC9D0050E226E040EB06FE4
:1024E000980EAF6F010EAE6FAE510F08D8A0BDD0E1
:1024F000AEC0B6F0EADEB16B036AAE51E8DDFF08AC
:1025000059E0040EB16FD890AE35036A08DE0900B9
:10251000F5CF03F0B26F03C0B3F0BD6BAEC0BCF03B
:10252000BF6B080EBE6FC2DE01C0B5F0010E012404
:10253000016E000E0220036E01C0E9FF040E0324A9
:10254000EA6EB2C0EFFFBD6BAEC0BCF0BF6B080E51
:10255000BE6FACDE01C0B5F0020E0124016E000EAC
:102560000220036E01C0E9FF040E0324EA6EB0C02E
:10257000ECFFED52AFC0EFFFD890AE35036ACFDD70
:102580000900F5CF03F0AF270350B023880EB46FD6
:10259000B3B1B481B3B3B483BD6BAEC0BCF0BF6B99
:1025A000080EBE6F83DE01C0E9FF040E0224EA6E4E
:1025B000B4C0EFFF036AAE517ADDFF0840E0B1839B
:1025C000BD6BAEC0BCF0BF6B080EBE6F6FDE02C04D
:1025D000B6F001C0B5F0040EB527000EB623020E0A
:1025E000B525016E000EB621036E01C0E9FF040E91
:1025F0000324EA6EB0C0ECFFED52AFC0EFFFD890FD
:10260000AE35036A74DD0900F5CF03F0AF27035040
:10261000B023BD6BAEC0BCF0BF6B080EBE6F46DE14
:1026200002C0B6F001C0B5F0040EB527000EB62307
:10263000B5C0E9FF040EB625EA6E400EEF6EB1514B
:10264000060802E10E0EB16F036AAE5130DD0108DB
:10265000D8A4B189036AAE51700FE96E0F0E032042
:10266000EA6EB1C0EFFFAE2B3FD782EF13F004014B
:102670001951000A00010DE0010A14E0020A1EE0EF
:10268000060A27E0030A2CE00E0A2CE0010A30E0DB
:102690003DD01CC058F40401596B020E0001B06F0C
:1026A00094DE36D004011A2D06D0010E1C1600014E
:1026B000B06B8BDE02D000018BDE2AD004011A2D14
:1026C00005D01C820001B06B80DE02D0000180DEEC
:1026D0001FD0020E1A6E1AC424F0B06B76DE18D02A
:1026E000ACD616D01BC058F4010EB06F6EDE10D001
:1026F00004011A51010808E31AC41BF01AC4ADF012
:102700000001E4D6B06B61DE000102D061DE00D0D2
:10271000FCEF14F01BC0ADF004011951000A0001D8
:1027200005E00A0A0BE0010A26E037D00401586BE5
:10273000596B020E0001B06F48DE31D0AD5319E085
:10274000010EAD5D036A2DDD016E04011C5DD8A094
:1027500002D000010ED0036A1C51280FE96E000E52
:102760000320EA6EEFCF58F4010E0001B06F2DDEAA
:1027700001D02EDE14D0AD530EE0036A04011C51CB
:10278000280FE96E000E0320EA6E1AC4EFFF000165
:10279000B06B1BDE01D01CDE02D01ADE00D0FCEFD5
:1027A00014F0AE91ADBFAE81AD9FAEA117D0BD6BA1
:1027B000ADC0BCF0BF6B080EBE6F78DD02C0B0F0DC
:1027C00001C0AFF0040EAF27000EB023AFC0E9FF89
:1027D000040EB025EA6E880EEF6E0DD0BD6BADC055
:1027E000BCF0BF6B080EBE6F61DD01C0E9FF040ED7
:1027F0000224EA6EEF6A71EF14F0AE91ADBFAE81C4
:10280000AD9FAEA117D0BD6BADC0BCF0BF6B080EC5
:10281000BE6F4CDD02C0B0F001C0AFF0040EAF27B8
:10282000000EB023AFC0E9FF040EB025EA6E840E9F
:10283000EF6E0ED0BD6BADC0BCF0BF6B080EBE6FAF
:1028400035DD01C0E9FF040E0224EA6E840EEF6E4E
:1028500077EF14F0AE91ADBFAE81AD9FAEA117D0B2
:10286000BD6BADC0BCF0BF6B080EBE6F1FDD02C0FC
:10287000B1F001C0B0F0040EB027000EB123B0C01B
:10288000E9FF040EB125EA6EEFCFAFF00ED0BD6BBD
:10289000ADC0BCF0BF6B080EBE6F08DD01C0E9FF24
:1028A000040E0224EA6EEFCFAFF0AFAF02D0AFB5A7
:1028B00002D0000E01D0010E016E81EF14F01CC495
:1028C000B7F0D2DC015229E004011951010A0001DC
:1028D00005E0020A09E0030A0DE01DD01CC4ADF0BA
:1028E00060D7B06B72DD19D01CC4ADF086D7B06B69
:1028F0006CDD13D00401586B596B1CC4ADF00001A2
:10290000A9D7015204E0010E0401586F0001020E24
:10291000B06F5BDD02D05CDD00D0FCEF14F0FE0E8A
:10292000236E120004011C2D01D002D01C5349E17A
:102930001951000A00010BE0010A0DE0210A1CE018
:10294000010A1FE0030A2EE0010A31E037D0010E30
:10295000806FE5DF35D0040EEA6E580EE96EE26A4C
:10296000330EE16E080E016EE6CFEEFF012EFCD7AE
:102970001EC4B0F02ADD24D0020E806F7E81CFDF2E
:102980001FD0040EEA6E580EE96EE26A2A0EE16E5E
:10299000070E016EE6CFEEFF012EFCD7070EB06FDB
:1029A00014DD0ED01AC47FF0B06B0FDD09D01AC44D
:1029B00032F01BC431F0B06B08DD02D009DD00D06D
:1029C00004010001FCEF14F01A6A040118517F0B96
:1029D000000A000107E0010A07E0030A07E0230AF2
:1029E00007E008D044D608D095D606D068D704D0E2
:1029F00099D702D0EDDC00D021EF17F0BD6BAEC04F
:102A0000BCF0BF6B080EBE6F51DC01C0E9FF040EC5
:102A10000224EA6EEFCFB0F0AF51020806E1B0AD8C
:102A200002D0AF6B02D0010EAF6FAF51030819E1B6
:102A3000840EB06FBD6BAEC0BCF0BF6B080EBE6F36
:102A400035DC02C0B4F001C0B3F0040EB327000EB1
:102A5000B423B3C0E9FF040EB425EA6E840EEF6E12
:102A600007D0AF2D03D0C80EB06F02D0880EB06F64
:102A7000D890AE35036A8FEC10F00900F5CF03F063
:102A8000B16F03C0B2F0BD6BAEC0BCF0BF6B080E3F
:102A9000BE6F0CDC01C0B3F0010E0124016E000E0C
:102AA0000220036E01C0E9FF040E0324EA6EB1C0E8
:102AB000EFFFB2B1B081B2B3B083BD6BAEC0BCF0BA
:102AC000BF6B080EBE6F56EC11F001C0E9FF040E9B
:102AD0000224EA6EB0C0EFFF1200036ABB51700F10
:102AE000E96E0F0E0320EA6EEF5219E0BD6BBBC01A
:102AF000BCF0BF6B080EBE6F56EC11F002C0BDF00B
:102B000001C0BCF0040EBC27000EBD23BCC0E9FF11
:102B1000040EBD25EA6EEFCFBEF0BEAF02D0000EB0
:102B200001D0010E016E1200B6C0BBF0D6DF01521B
:102B3000D8B47CD0BD6BB6C0BCF0BF6B080EBE6F06
:102B400056EC11F002C0BCF001C0BBF0040EBB2774
:102B5000000EBC23010EBB25016E000EBC21036ECE
:102B600001C0E9FF040E0324EA6EB7C0EFFFB951BC
:102B700002081EE1BD6BB6C0BCF0BF6B080EBE6F95
:102B800056EC11F002C0BCF001C0BBF0040EBB2734
:102B9000000EBC23BBC0E9FF040EBC25EA6EEFCFDC
:102BA000BAF0BAAD02D0B96B02D0010EB96F18D02D
:102BB000B951040815E1BD6BB6C0BCF0BF6B080E7F
:102BC000BE6F56EC11F001C0E9FF040E0224EA6E5C
:102BD000EFCFBAF0BAAD03D0010EB96F01D0B96B27
:102BE000B92D03D0C80EBA6F02D0880EBA6FB8B133
:102BF000BA81B8B3BA83BD6BB6C0BCF0BF6B080E68
:102C0000BE6F56EC11F002C0BCF001C0BBF0040E68
:102C1000BB27000EBC23BBC0E9FF040EBC25EA6E37
:102C2000BAC0EFFF010E016E03D000D0000E016E9E
:102C300012008051010A03E0030A13E024D0EA6A7B
:102C4000330EE96E040EE26E180EE16E080E016E90
:102C5000E6CFEEFF012EFCD7B06BE5EC11F0806BF8
:102C600014D0EA6A2A0EE96E040EE26E180EE16EC6
:102C7000070E016EE6CFEEFF012EFCD7806BB06B26
:102C8000E5EC11F002D0806B00D07BEF16F0BD6B4D
:102C9000AEC0BCF0BF6B080EBE6F56EC11F002C0A8
:102CA000B0F001C0AFF0010E0124016E000E022051
:102CB000036E01C0E9FF040E0324EA6E036AEFCF3E
:102CC00001F003C002F071EF16F07B91020EAE6FBF
:102CD000AF6F94DE76EF16F07B817D6B020EAE6FE8
:102CE000D6D701C07CF07C5301E1EFD780EF16F01E
:102CF000AD5302E19ED704D0AD51020801E1ECD7FB
:102D00001200AEC06EFFAE5303E0040E226E02D07E
:102D1000020E226E91EF16F01B6A1A6A24C0AEF002
:102D2000F0D700EF17F0AEC0BBF0D7DE015246E09F
:102D3000BD6BAEC0BCF0BF6B080EBE6F56EC11F0A1
:102D400002C0B7F001C0B6F0040EB627000EB723DC
:102D5000020EB625016E000EB721036E01C0E9FF19
:102D6000040E0324EA6EECCF03F0ED52EFCFB4F083
:102D700003C0B5F0B5C0EAFFB4C0E9FFB0C0E2FFE0
:102D8000AFC0E1FFB2C002F0B1C001F0015202E0F9
:102D9000022A02D0025206E0E6CFEEFF012EFCD757
:102DA000022EFAD7AEC0B6F0B2C0B8F0B1C0B7F0DC
:102DB000B3C0B9F0B9DE015003D000D0000E016EEF
:102DC00012007A530EE0020EAE6FB06B3B0EAF6F87
:102DD000B26B7AC0B1F0020EB36FA5DF015201E011
:102DE0007A6B1200EEDF05EF17F0AD530AE11A2CF3
:102DF00003D0EAEC11F004D01A50020801E18CD79C
:102E000004D0AD51020801E1EDD712002130AB6FC3
:102E1000AB33AB331F0EAB17215242E1040100511B
:102E20003C0B0001AC6F430E040100170001AC51D4
:102E300034081EE104010451800B01E0046B000121
:102E4000C3D56D98233C05D0AE6B030EAF6FD6DDB6
:102E50000ED0AE6B020EAF6FD1DD2350FE0807E03F
:102E6000B66BB86B23C0B7F0040EB96F5DDE17D038
:102E7000AC51040814E1AD6B3BDFAE6B020EAF6FDB
:102E8000BDDD2350FE080AE0233C01D007D0B66B1D
:102E9000B86B23C0B7F0010EB96F46DE00D07BD00F
:102EA0002150040813E1430E0401041723680001B4
:102EB000AD6B9BDF233C01D008D0B66BB86B23C051
:102EC000B7F0020EB96F30DE00D065D021B42CD03F
:102ED000BD6BABC0BCF0BF6B080EBE6F56EC11F003
:102EE00002C0AEF001C0ADF001C001F0040E02243A
:102EF000036E01C0AFF0B06FBD6BABC0BCF0BF6B79
:102F0000080EBE6F56EC11F001C0E9FF040E02245A
:102F1000EA6EEF50430BB0C0EAFFAFC0E9FFEF6EBF
:102F2000ABC0ADF0E5DE37D0BD6BABC0BCF0BF6B66
:102F3000080EBE6F56EC11F002C0AEF001C0ADF04D
:102F4000040EAD27000EAE23ADC001F0040EAE2579
:102F5000036EADC0AFF0B06FBD6BABC0BCF0BF6B6C
:102F6000080EBE6F56EC11F002C0B2F001C0B1F015
:102F7000040EB127000EB223B1C0E9FF040EB22542
:102F8000EA6EEF50430BB0C0EAFFAFC0E9FFEF6E4F
:102F9000ABC0ADF02ADF04EF18F0A19A225201E194
:102FA00039D0685237E068A404D069A402D011EF88
:102FB00011F06DA201D02ED068AA04D069AA02D067
:102FC00029EF11F068A204D069A202D030EF11F00D
:102FD00068A004D069A002D0C8EF11F068A804D09E
:102FE00069A802D0DDEF11F068AC04D069AC02D062
:102FF000E2EF11F0AA6B68A608D069A606D06CCFE4
:1030000021F0C6EC11F002D701D004D0AA51AA2BAE
:103010000308F1E230EF10F0563A254C7520543A8F
:10302000252E32662020202020005374617274699E
:103030006E6720544D5033350D0A00006D6A696A81
:10304000080E6F6E94503009946E226A196AF2BEAF
:10305000198EF29EB2EC11F019BEF28E31EF18F01B
:10306000EDD757EF18F0196AF2BE198EF29EB2EC46
:1030700011F019BEF28E6D6A140E6F6E696A6D865C
:10308000010E226E47EF18F06DB601D0ECD7222C5E
:103090000BD06DBA09D0686A696AA08AC00EF212B4
:1030A000110E696E020E226E58EF18F0D9D7ECD7C8
:1030B00022500208FCE164EF18F01B5202E1040008
:1030C000FCD765EF18F0F2D7F8D747EF1CF0EA6AA3
:1030D000880EE96EEF500EE00F0E016E006A002EB2
:1030E000FED7012EFBD78F0E006E002EFED70000FC
:1030F000EF2EF2D712009891F2BE9881F29E7A518B
:103100003E0802E23E0E7A6F7A517A2B036A3B0F39
:10311000E96E000E0320EA6E97C0EFFFF29E98B1B1
:10312000F28E96EF18F096C097F0E5D7196AF2BEC6
:10313000198EF29E020EBB6FD0DC19BEF28E0152C8
:1031400007E0196AF2BE198EF29E3BDE19BEF28EBE
:10315000B1EF18F07A513E0801E2FCD795C096F025
:10316000E2D712000900F5520CE0F6CF87F0F7CF56
:1031700088F0F5CF95F0EEDF87C0F6FF88C0F7FF47
:10318000F1D753EF1CF08E0E006E89C001F088C09D
:1031900002F0036A015209E102C001F0026A080E5E
:1031A000005E015202E1006A08D0D89001BE04D04E
:1031B000023601360006F9D7019EACEF1BF095519F
:1031C000D8B471D0006E9951D8B46DD0002604E304
:1031D000810E002668E204D07F0E005E64E363E0A7
:1031E00096C09DF09A519D1B968F9A8F98519C0383
:1031F000F4CF9FF097519B03F4CF03F0F3CF9EF0F1
:103200009C03F3509F27F4509E23000E03229851F5
:103210009B03F3509F27F4509E23000E026A032263
:10322000022296519C03F3509E27F4500322000E75
:10323000022296519B03F3500326F4500222000E03
:10324000016A012298519A03F3509E27F4500322F9
:10325000000E0222012297519A03F3500326F450E4
:103260000222000E012296519A03F3500226F450D6
:103270000122002A01BE05D09E37033602360136F0
:103280000006000E9EAF0AD0032A0222012201503E
:1032900005E1025003E1035001E1002A9DBF018EC8
:1032A0009DAF019E04D0006A016A026A036A12009F
:1032B0008C51D8B4A5D0986F9051D8B4A1D0985F54
:1032C00005E37F0E9827D8B09BD006D0810E985F7B
:1032D000D8A096D0D8B494D098C000F0016A026A01
:1032E000036A976B8DC096F0968F8EC095F08FC055
:1032F00094F0190E986F9351945F0DE2010E955F53
:103300000AE2965F08E2975F06E2972B962B952BD1
:103310009351942728D09251955F12E2010E965F47
:103320000FE2975F0DE2972B962B925195279351C1
:10333000942719E3952B17E1962B15E1972B13D0C2
:1033400091518009965F0EE2010E975F0BE2972B79
:1033500091518009962792519527E9E3962BE7E151
:10336000972BE5D70380982F01D00BD0D8909437B6
:10337000953796379737D890033602360136993706
:10338000BAD799A106D0D8900132023203329933CC
:1033900002D0000635E099BF1ED0D89094379537FB
:1033A000963797379351945F07E2010E955F04E2D9
:1033B000965F02E2975F1AE39251955F05E2010E74
:1033C000965F02E2975F12E391518009965F03E2F4
:1033D000010E975F0BE3032A09E1022A07E1012AA4
:1033E00005E1002A0DE00132023203328DC098F06F
:1033F0009151981B98AF02D0018E06D0019E04D047
:10340000006A016A026A036ADBEF1BF0EACF90F000
:10341000E9CF8FF08939F0098B6F8B27E20F8C6F22
:10342000320F8E6F89510F0B8C278C278E27E90F57
:103430008D6F8D278D2788390F0B8D278E278D3720
:103440008E378E1F8E3788510F0B8E278B37070EC6
:103450008A6F0A0E8D078E27FDE38C078D27FDE30B
:103460008B078C27FDE38A078B27FDE3EA6A8A0E28
:10347000E96E070E8F158F9DE9268E0EE95CD8B494
:103480008F8DEF50006E08E18FBD06D08FB913D03D
:103490008FB702D0200E03D08F878F99300E002671
:1034A000EACF89F0E9CF88F000C095F053DE89C0FB
:1034B000EAFF88C0E9FFEE508FADDFD707EF1CF0C1
:1034C0009551B608956F036A96C099F0968FD8907B
:1034D0009633973398330332023201320032952FFC
:1034E000F6D799AF0BD0001E011E021E031E002A44
:1034F000D8B4012AD8B4022AD8B4032AEEEF1AF0BD
:10350000D8B203D0EA6A9D0EE96E006A016A026AC7
:10351000036A9D6B9E6B9F6BA06B9C519B119A11D4
:1035200099112CE0200EA16FD890953796379737D8
:1035300098379D379E379F37A0379C51A05D08E193
:103540009B519F5D05E19A519E5D02E199519D5D00
:103550000FE399519D5F9A51D8A09A3D9E5F9B5170
:10356000D8A09B3D9F5F9C51D8A09C3DA05FD88078
:103570000036013602360336A12FD6D79DC0EFFFA5
:103580009EC0ECFF9FC0ECFFA0C0ECFF1200E95012
:103590008D6F8C518F6F19E08BC098F08AC097F0B7
:1035A00089C096F088C095F09C6B9B6B200E9A6F3B
:1035B000820E996F04DE03C08BF002C08AF001C056
:1035C00089F000C088F08F2FE7D78BC098F08AC0B1
:1035D00097F089C096F088C095F072D703C08BF041
:1035E00002C08AF001C089F000C088F08BAF0DD016
:1035F0008D078D8B881F891F8A1F8B1F882BD8B43E
:10360000892BD8B48A2BD8B48B2B3B0E946F9A0E8F
:10361000936FCA0E926F916B0A0E8F6F8C51D8B454
:103620008D2BD882EA6A880EE96E8BC098F08AC02A
:1036300097F089C096F088C095F094C09CF093C034
:103640009BF092C09AF091C099F05ADF015000525D
:103650000FE18C298F5D0CE08D510CE00F0B8F5D1D
:1036600001E037E28DBF35D08DBD04D0200E2DD0C6
:10367000200E8D178DAB0CD08D9B8C51D8A48D074F
:1036800000508D6F2D0E956F65DD8D51006E8D6B29
:103690008C518F5D0AE100508D6F2E0E956F5ADDB3
:1036A0008D51006E200E8D17000E300E8DAB0DD09B
:1036B0008D9B8C51D8A48D0700508D6F2D0E956F6A
:1036C00049DD8D51006E8D6B300E002600C095F0E7
:1036D00041DDD89294C098F093C097F092C096F0D4
:1036E00091C095F09C6B9B6B9A6B0A0E996F08DFEB
:1036F00003C094F002C093F001C092F000C091F0BA
:103700008F2F8FD71DEF1CF00900F6CF89F0F7CF70
:103710008AF0F5CF95F01EDD89C0F6FF8AC0F7FF6D
:10372000882FF2D724EF1CF08735006E0036FC0E90
:103730000016C250C30B0010C26E050E886FC7DCA6
:10374000C282C2B2FED7C3CF81F0C4CF82F082C0A2
:1037500089F081C088F017D500C088F001C089F0D9
:1037600002C08AF003C08BF003C098F002C097F04B
:1037700001C096F000C095F09C6B9B6B200E9A6F79
:10378000810E996F1CDD00C088F001C089F002C075
:103790008AF003C08BF003C08FF002C08EF001C02E
:1037A0008DF000C08CF0936BC00E926F7F0E916F06
:1037B000880E906F7DD500C088F001C089F002C0EE
:1037C0008AF003C08BF003C098F002C097F001C0EC
:1037D00096F000C095F09C6B9B6B480E9A6F850E1F
:1037E000996FEDDC03C086F002C085F001C084F063
:1037F00000C083F0560E956FADDC3A0E956FAADCD3
:10380000100EE96E82C089F081C088F0FFD5200ECD
:10381000956FA0DC540E956F9DDC3A0E956F9ADC87
:10382000890EE96E86C08BF085C08AF084C089F06D
:1038300083C088F0020E8C6FAAD6240EF66E300E6E
:10384000F76E050E886F60D71200F86AD09E078E5B
:10385000EA6AE96A226A276A826B816B866B856BEA
:10386000846B836BC150C00B0F09C16E070EB46E21
:103870001E6A040E1F6E0C0E206EC150C00B0D0987
:10388000C16EC080C082C084C08EC2801CD4080EAD
:10389000876FFA0E886F1BDC872FFBD72A0EF66E18
:1038A000300EF76E5FD4C80E886F11DC876B3CDF7B
:1038B000040E876FFA0E886F0ADC872FFBD7010E84
:1038C000876F32DF040E876FFA0E886F00DC872F58
:1038D000FBD70D0E956F3EDC0A0E956F3BDC0A0E92
:1038E000956F38DCC80E886F67EC18F0DFD70300DF
:020000040030CA
:0E00000024CE3E1E0085A1000FC00FE00F4071
:00000001FF
;PIC18F4550
;CRC=002E  CREATED="22-sep-15 12:58"
