:042000003EEF1CF0A3
:08200800046ED8CF05F0E0CF13
:1020100006F00001E9CF0CF0EACF07F0E1CF08F0BD
:10202000E2CF09F0D9CF0AF0DACF0BF0F3CF12F0FC
:10203000F4CF13F0FACF14F0F5CF15F0F6CF16F079
:10204000F7CF17F000C00EF001C00FF002C010F083
:1020500003C011F0A0AA30EF10F0A1BAD4EF17F02E
:102060000EC000F00FC001F010C002F011C003F06C
:102070000CC0E9FF07C0EAFF078E08C0E1FF09C0F6
:10208000E2FF0AC0D9FF0BC0DAFF12C0F3FF13C092
:10209000F4FF14C0FAFF15C0F5FF16C0F6FF17C015
:1020A000F7FF045006C0E0FF05C0D8FF1000F76A34
:1020B000BE0FF66E200EF7220900F5501200000345
:1020C00002FFFFFFFFFFFFFFFFFFFFFFFFFFF76ABA
:1020D000DE0FF66E200EF7220900F550120000FF09
:1020E00002FFFFFFFFFFFFFFFFFFFFFFFFFFF76A9A
:1020F000FE0FF66E200EF7220900F5501200400088
:102100000800400000000000000000000000000087
:102110000000000000000000000000000000F76A5E
:102120002E0FF66E210EF7220900F5501200400026
:10213000000040000000000000000000000000005F
:102140000000000000000000000000000000F76A2E
:102150005E0FF66E210EF7220900F55012000902FB
:102160004300020100803209040000010202010064
:1021700005240010010424020205240600010524A0
:10218000010001070581030800FA09040100020AA1
:10219000000000070502024000010705820240001E
:1021A0000100F76AB20FF66E210EF7220900F55012
:1021B00012000200F76AC40FF66E210EF722090022
:1021C000F550120012171B20FFFFFFFFF76ADC0F0C
:1021D000F66E210EF7220900F550120012011001CF
:1021E00002000040D8040200000101020001F76A69
:1021F000FE0FF66E210EF7220900F55012000403BF
:1022000009040C03500049004E00470055004900E6
:102210004E004F001803500049004E004700550083
:1022200049004E004F0020004A0041004300530087
:1022300053006D92699468A402D06894FCD7E0EFD3
:1022400017F0400E0401016F040E036F180E026FA9
:10225000880E006F046B040E076F580E066F0001A6
:10226000120070A002D0EDDF7090689AE9EF17F0CD
:102270006A6A6892EFEF17F0B991B8BFB981B89F59
:10228000B851100803E2000E016E17D0B9A10BD0AF
:10229000036AB8510CDFFF0802E1000E01D0010E05
:1022A000016E0BD00AD0036AB85111DFFF0802E1BA
:1022B000000E01D0010E016E00D01200BD51BF030F
:1022C000F3CF01F0F4CF00F0C003F3500026BE516D
:1022D000BF03F3500020026E1200036AB751700F63
:1022E000E96E0F0E0320EA6EEF6AB7C0B8F0C4DFE4
:1022F000015222E0BE6BB7C0BDF0C06B080EBF6FCD
:10230000DDDF01C0E9FF040E0224EA6EEF6ABE6B56
:10231000B7C0BDF0C06B080EBF6FD0DF02C0B9F010
:1023200001C0B8F0040EB827000EB923B8C0E9FF09
:10233000040EB925EA6EEF6A1200010EB66FB651AF
:102340000F0805E3B6C0B7F0C8DFB62BF8D7120008
:102350002D6A2C6A250E2B6E800E2A6E2E6A2F6A2D
:10236000080E306E7F6B7E91326A316A7A6B7B9198
:102370001200AC6BAC5101080AE3036AAC51280FA0
:10238000E96E000E0320EA6EEF6AAC2BF3D7E0DFB4
:102390001B6A010E1C6E1A6A1200689612006A6AA5
:1023A000686A9F0E6B6E3D0E696E6E6AC6DFE1DF76
:1023B000160E706E68A602D0F0DFFCD76D9841DF74
:1023C000030E226EF5EF17F0698468986D82FBEFBB
:1023D00017F0689C01EF18F0B1C023F012002368D9
:1023E0001200AF6B275226E0AF513F0823E31D5088
:1023F00005E0020A08E0010A0BE00FD0036A26504C
:10240000A6DEB06F0AD0036A2650F1DEB06F05D0A9
:10241000036A2650DBDEB06F00D0262A2706AF51B4
:10242000AF2B580FE96E040EEA6ED8B0EA2AB0C09E
:10243000EFFFD8D7275204E1AF51400801E01A6AF4
:10244000AFC0B1F0C9DF1200266A1D6A04011B513A
:10245000010A000107E0030A0AE0010A0BE0220A70
:102460001BE02BD0120E276E030E1D6E28D0430EDC
:10247000276E25D0020E1D6E036A04011A511E0F2D
:10248000E96E000E0320EA6EEFCF26F0036A2650B5
:102490000001ADDE276E13D0036A04011A5100015A
:1024A00089DE266E263C01D006D0036A26504FDE18
:1024B000276E05D002D093DF0ED091DF0CD004013F
:1024C0001F5305E127501E5D02E21EC427F0010ED6
:1024D0001A6E000186DF8FEF13F0AE5304E1040E95
:1024E000226E2BDFC9D0050E226E040EB16F980E3E
:1024F000B06F010EAF6FAF510F08D8A0BDD0AFC005
:10250000B7F0EBDEB26B036AAF51E1DDFF0859E0D3
:10251000040EB26FD890AF35036A01DE0900F5CF23
:1025200003F0B36F03C0B4F0BE6BAFC0BDF0C06BBF
:10253000080EBF6FC3DE01C0B6F0010E0124016EAC
:10254000000E0220036E01C0E9FF040E0324EA6EB0
:10255000B3C0EFFFBE6BAFC0BDF0C06B080EBF6F66
:10256000ADDE01C0B6F0020E0124016E000E0220A5
:10257000036E01C0E9FF040E0324EA6EB1C0ECFF54
:10258000ED52B0C0EFFFD890AF35036AC8DD090047
:10259000F5CF03F0B0270350B123880EB56FB4B167
:1025A000B581B4B3B583BE6BAFC0BDF0C06B080ED0
:1025B000BF6F84DE01C0E9FF040E0224EA6EB5C0DD
:1025C000EFFF036AAF5173DDFF0840E0B283BE6BDB
:1025D000AFC0BDF0C06B080EBF6F70DE02C0B7F0B9
:1025E00001C0B6F0040EB627000EB723020EB625C2
:1025F000016E000EB721036E01C0E9FF040E032433
:10260000EA6EB1C0ECFFED52B0C0EFFFD890AF352D
:10261000036A6DDD0900F5CF03F0B0270350B12345
:10262000BE6BAFC0BDF0C06B080EBF6F47DE02C00F
:10263000B7F001C0B6F0040EB627000EB723B6C03F
:10264000E9FF040EB725EA6E400EEF6EB2510608A0
:1026500002E10E0EB26F036AAF5129DD0108D8A462
:10266000B289036AAF51700FE96E0F0E0320EA6E54
:10267000B2C0EFFFAF2B3FD789EF13F00401195120
:10268000000A00010DE0010A14E0020A1EE0060A39
:1026900027E0030A2CE00E0A2CE0010A30E03DD0CE
:1026A0001CC058F40401596B020E0001B16F94DE96
:1026B00036D004011A2D06D0010E1C160001B16B94
:1026C0008BDE02D000018BDE2AD004011A2D05D04A
:1026D0001C820001B16B80DE02D0000180DE1FD0C1
:1026E000020E1A6E1AC424F0B16B76DE18D0ACD686
:1026F00016D01BC058F4010EB16F6EDE10D004016D
:102700001A51010808E31AC41BF01AC4AEF0000104
:10271000E4D6B16B61DE000102D061DE00D003EFD0
:1027200015F01BC0AEF004011951000A000105E0CC
:102730000A0A0BE0010A26E037D00401586B596BF6
:10274000020E0001B16F48DE31D0AE5319E0010E28
:10275000AE5D036A26DD016E04011C5DD8A002D0C7
:1027600000010ED0036A1C51280FE96E000E0320F1
:10277000EA6EEFCF58F4010E0001B16F2DDE01D0EB
:102780002EDE14D0AE530EE0036A04011C51280F54
:10279000E96E000E0320EA6E1AC4EFFF0001B16B70
:1027A0001BDE01D01CDE02D01ADE00D003EF15F0D4
:1027B000AF91AEBFAF81AE9FAFA117D0BE6BAEC021
:1027C000BDF0C06B080EBF6F79DD02C0B1F001C073
:1027D000B0F0040EB027000EB123B0C0E9FF040E24
:1027E000B125EA6E880EEF6E0DD0BE6BAEC0BDF0A7
:1027F000C06B080EBF6F62DD01C0E9FF040E02244A
:10280000EA6EEF6A78EF14F0AF91AEBFAF81AE9F82
:10281000AFA117D0BE6BAEC0BDF0C06B080EBF6FCE
:102820004DDD02C0B1F001C0B0F0040EB027000EC3
:10283000B123B0C0E9FF040EB125EA6E840EEF6E3D
:102840000ED0BE6BAEC0BDF0C06B080EBF6F36DDE4
:1028500001C0E9FF040E0224EA6E840EEF6E7EEFE3
:1028600014F0AF91AEBFAF81AE9FAFA117D0BE6BDA
:10287000AEC0BDF0C06B080EBF6F20DD02C0B2F06D
:1028800001C0B1F0040EB127000EB223B1C0E9FFC0
:10289000040EB225EA6EEFCFB0F00ED0BE6BAEC024
:1028A000BDF0C06B080EBF6F09DD01C0E9FF040E6B
:1028B0000224EA6EEFCFB0F0B0AF02D0B0B502D0D4
:1028C000000E01D0010E016E88EF14F01CC4B8F0A8
:1028D000D3DC015229E004011951010A000105E08D
:1028E000020A09E0030A0DE01DD01CC4AEF060D757
:1028F000B16B72DD19D01CC4AEF086D7B16B6CDD44
:1029000013D00401586B596B1CC4AEF00001A9D759
:10291000015204E0010E0401586F0001020EB16F74
:102920005BDD02D05CDD00D003EF15F0FE0E236E00
:10293000120004011C2D01D002D01C5349E1195191
:10294000000A00010BE0010A0DE0210A1CE0010A67
:102950001FE0030A2EE0010A31E037D0010E816F3B
:10296000E5DF35D0040EEA6E580EE96EE26A330EEA
:10297000E16E080E016EE6CFEEFF012EFCD71EC4FD
:10298000B1F02ADD24D0020E816F7E81CFDF1FD00F
:10299000040EEA6E580EE96EE26A2A0EE16E070E28
:1029A000016EE6CFEEFF012EFCD7070EB16F14DDEE
:1029B0000ED01AC47FF0B16B0FDD09D01AC432F00B
:1029C0001BC431F0B16B08DD02D009DD00D0040179
:1029D000000103EF15F01A6A040118517F0B000A79
:1029E000000107E0010A07E0030A07E0230A07E005
:1029F00008D044D608D095D606D068D704D099D749
:102A000002D0EDDC00D028EF17F0BE6BAFC0BDF0F8
:102A1000C06B080EBF6F52DC01C0E9FF040E022438
:102A2000EA6EEFCFB1F0B051020806E1B1AD02D0CD
:102A3000B06B02D0010EB06FB051030819E1840EE3
:102A4000B16FBE6BAFC0BDF0C06B080EBF6F36DCA0
:102A500002C0B5F001C0B4F0040EB427000EB523D7
:102A6000B4C0E9FF040EB525EA6E840EEF6E07D000
:102A7000B02D03D0C80EB16F02D0880EB16FD890C0
:102A8000AF35036A8FEC10F00900F5CF03F0B26F99
:102A900003C0B3F0BE6BAFC0BDF0C06B080EBF6F1C
:102AA0000DDC01C0B4F0010E0124016E000E022005
:102AB000036E01C0E9FF040E0324EA6EB2C0EFFF0B
:102AC000B3B1B181B3B3B183BE6BAFC0BDF0C06B66
:102AD000080EBF6F5EEC11F001C0E9FF040E022486
:102AE000EA6EB1C0EFFF1200036ABC51700FE96ECD
:102AF0000F0E0320EA6EEF5219E0BE6BBCC0BDF0B2
:102B0000C06B080EBF6F5EEC11F002C0BEF001C0DA
:102B1000BDF0040EBD27000EBE23BDC0E9FF040EAC
:102B2000BE25EA6EEFCFBFF0BFAF02D0000E01D0DE
:102B3000010E016E1200B7C0BCF0D6DF0152D8B44E
:102B40007CD0BE6BB7C0BDF0C06B080EBF6F5EEC33
:102B500011F002C0BDF001C0BCF0040EBC27000E95
:102B6000BD23010EBC25016E000EBD21036E01C008
:102B7000E9FF040E0324EA6EB8C0EFFFBA51020861
:102B80001EE1BE6BB7C0BDF0C06B080EBF6F5EEC40
:102B900011F002C0BDF001C0BCF0040EBC27000E55
:102BA000BD23BCC0E9FF040EBD25EA6EEFCFBBF02C
:102BB000BBAD02D0BA6B02D0010EBA6F18D0BA51B9
:102BC000040815E1BE6BB7C0BDF0C06B080EBF6F47
:102BD0005EEC11F001C0E9FF040E0224EA6EEFCFB3
:102BE000BBF0BBAD03D0010EBA6F01D0BA6BBA2DEA
:102BF00003D0C80EBB6F02D0880EBB6FB9B1BB81CA
:102C0000B9B3BB83BE6BB7C0BDF0C06B080EBF6F5E
:102C10005EEC11F002C0BDF001C0BCF0040EBC2798
:102C2000000EBD23BCC0E9FF040EBD25EA6EBBC08B
:102C3000EFFF010E016E03D000D0000E016E1200F6
:102C40008151010A03E0030A13E024D0EA6A330E3B
:102C5000E96E040EE26E180EE16E080E016EE6CF0C
:102C6000EEFF012EFCD7B16BECEC11F0816B14D0B0
:102C7000EA6A2A0EE96E040EE26E180EE16E070E85
:102C8000016EE6CFEEFF012EFCD7816BB16BECEC51
:102C900011F002D0816B00D082EF16F0BE6BAFC096
:102CA000BDF0C06B080EBF6F5EEC11F002C0B1F05A
:102CB00001C0B0F0010E0124016E000E0220036E6F
:102CC00001C0E9FF040E0324EA6E036AEFCF01F0AE
:102CD00003C002F078EF16F07B91020EAF6FB06F79
:102CE00094DE7DEF16F07B817D6B020EAF6FD6D741
:102CF00001C07CF07C5301E1EFD787EF16F0AE53B3
:102D000002E19ED704D0AE51020801E1ECD71200D7
:102D1000AFC06EFFAF5303E0040E226E02D0020E6E
:102D2000226E98EF16F01B6A1A6A24C0AFF0F0D733
:102D300007EF17F0AFC0BCF0D7DE015246E0BE6B24
:102D4000AFC0BDF0C06B080EBF6F5EEC11F002C0EB
:102D5000B8F001C0B7F0040EB727000EB823020E7A
:102D6000B725016E000EB821036E01C0E9FF040E05
:102D70000324EA6EECCF03F0ED52EFCFB5F003C0C1
:102D8000B6F0B6C0EAFFB5C0E9FFB1C0E2FFB0C01F
:102D9000E1FFB3C002F0B2C001F0015202E0022A2A
:102DA00002D0025206E0E6CFEEFF012EFCD7022E43
:102DB000FAD7AFC0B7F0B3C0B9F0B2C0B8F0B4C082
:102DC000BAF0B9DE015003D000D0000E016E12003F
:102DD000020EAF6FB16B3B0EB06FB36B7AC0B2F047
:102DE000020EB46FA7DF7AC080F07A6B12007A53BC
:102DF00001E0EEDF0CEF17F0AE530AE11A2C03D01E
:102E0000F1EC11F004D01A50020801E18CD704D083
:102E1000AE51020801E1EBD712002130AC6FAC33A8
:102E2000AC331F0EAC17215242E1040100513C0BA0
:102E30000001AD6F430E040100170001AD513408CD
:102E40001EE104010451800B01E0046B0001C3D5B5
:102E50006D98233C05D0AF6B030EB06FD6DD0ED05E
:102E6000AF6B020EB06FD1DD2350FE0807E0B76BE9
:102E7000B96B23C0B8F0040EBA6F5DDE17D0AD5148
:102E8000040814E1AE6B3BDFAF6B020EB06FBDDD2B
:102E90002350FE080AE0233C01D007D0B76BB96B82
:102EA00023C0B8F0010EBA6F46DE00D07BD02150AF
:102EB000040813E1430E0401041723680001AE6BFC
:102EC0009BDF233C01D008D0B76BB96B23C0B8F0AF
:102ED000020EBA6F30DE00D065D021B42CD0BE6BAC
:102EE000ACC0BDF0C06B080EBF6F5EEC11F002C04D
:102EF000AFF001C0AEF001C001F0040E0224036E79
:102F000001C0B0F0B16FBE6BACC0BDF0C06B080EBD
:102F1000BF6F5EEC11F001C0E9FF040E0224EA6EFF
:102F2000EF50430BB1C0EAFFB0C0E9FFEF6EACC099
:102F3000AEF0E5DE37D0BE6BACC0BDF0C06B080EA6
:102F4000BF6F5EEC11F002C0AFF001C0AEF0040E36
:102F5000AE27000EAF23AEC001F0040EAF25036E06
:102F6000AEC0B0F0B16FBE6BACC0BDF0C06B080EB0
:102F7000BF6F5EEC11F002C0B3F001C0B2F0040EFE
:102F8000B227000EB323B2C0E9FF040EB325EA6EE8
:102F9000EF50430BB1C0EAFFB0C0E9FFEF6EACC029
:102FA000AEF02ADF0BEF18F0A19A225201E139D0DE
:102FB000685237E068A404D069A402D019EF11F078
:102FC0006DA201D02ED068AA04D069AA02D031EF38
:102FD00011F068A204D069A202D038EF11F068A005
:102FE00004D069A002D0CFEF11F068A804D069A87E
:102FF00002D0E4EF11F068AC04D069AC02D0E9EF84
:1030000011F0AB6B68A608D069A606D06CCF21F092
:10301000CDEC11F002D701D004D0AB51AB2B03089B
:10302000F1E230EF10F0563A254C7520543A252E37
:1030300032662020202020005374617274696E670C
:1030400020544D5033350D0A00006D6A696A080E30
:103050006F6E94503009946E226A196AF2BE198E0E
:10306000F29EB9EC11F019BEF28E38EF18F0EDD7E0
:103070005EEF18F0196AF2BE198EF29EB9EC11F0EB
:1030800019BEF28E6D6A140E6F6E696A6D86010E3E
:10309000226E4EEF18F06DB601D0ECD7222C0BD07B
:1030A0006DBA09D0686A696AA08AC00EF212110E60
:1030B000696E020E226E5FEF18F0D9D7ECD722505E
:1030C0000208FCE16BEF18F01B5202E10400FCD790
:1030D0006CEF18F0F2D7F8D762EF1CF0EA6A890EAD
:1030E000E96EEF500EE00F0E016E006A002EFED763
:1030F000012EFBD78F0E006E002EFED70000EF2EA4
:10310000F2D712009991F2BE9981F29E7A513E084F
:1031100002E23E0E7A6F7A517A2B036A3B0FE96E18
:10312000000E0320EA6E98C0EFFFF29E99B1F28E76
:103130009DEF18F097C098F0E5D7196AF2BE198E86
:10314000F29E020EBC6FD0DC19BEF28E015207E077
:10315000196AF2BE198EF29E3BDE19BEF28ECAEFDC
:1031600018F07A513E0813E2196AF2BE198EF29EE7
:10317000020EBC6FB9DC19BEF28E015207E0196A6B
:10318000F2BE198EF29E24DE19BEF28EEAD796C0E8
:1031900097F0D0D712000900F5520CE0F6CF88F076
:1031A000F7CF89F0F5CF96F0DCDF88C0F6FF89C055
:1031B000F7FFF1D76EEF1CF08E0E006E8AC001F0A3
:1031C00089C002F0036A015209E102C001F0026AFB
:1031D000080E005E015202E1006A08D0D89001BEDC
:1031E00004D0023601360006F9D7019EC5EF1BF068
:1031F0009651D8B471D0006E9A51D8B46DD00026D3
:1032000004E3810E002668E204D07F0E005E64E3D2
:1032100063E097C09EF09B519E1B978F9B8F9951A7
:103220009D03F4CFA0F098519C03F4CF03F0F3CFAB
:103230009FF09D03F350A027F4509F23000E03221C
:1032400099519C03F350A027F4509F23000E026A6B
:103250000322022297519D03F3509F27F45003222B
:10326000000E022297519C03F3500326F4500222D1
:10327000000E016A012299519B03F3509F27F450DD
:103280000322000E0222012298519B03F3500326D1
:10329000F4500222000E012297519B03F3500226A4
:1032A000F4500122002A01BE05D09F3703360236B2
:1032B00001360006000E9FAF0AD0032A0222012227
:1032C000015005E1025003E1035001E1002A9EBFD5
:1032D000018E9EAF019E04D0006A016A026A036AF1
:1032E00012008D51D8B4A5D0996F9151D8B4A1D006
:1032F000995F05E37F0E9927D8B09BD006D0810E49
:10330000995FD8A096D0D8B494D099C000F0016A43
:10331000026A036A986B8EC097F0978F8FC096F001
:1033200090C095F0190E996F9451955F0DE2010EC2
:10333000965F0AE2975F08E2985F06E2982B972B68
:10334000962B9451952728D09351965F12E2010E47
:10335000975F0FE2985F0DE2982B972B935196277A
:103360009451952719E3962B17E1972B15E1982B8C
:1033700013D092518009975F0EE2010E985F0BE225
:10338000982B92518009972793519627E9E3972B21
:10339000E7E1982BE5D70380992F01D00BD0D89087
:1033A0009537963797379837D890033602360136D7
:1033B0009A37BAD79AA106D0D89001320232033296
:1033C0009A3302D0000635E09ABF1ED0D8909537C8
:1033D0009637973798379451955F07E2010E965FBD
:1033E00004E2975F02E2985F1AE39351965F05E269
:1033F000010E975F02E2985F12E392518009975F96
:1034000003E2010E985F0BE3032A09E1022A07E1B8
:10341000012A05E1002A0DE00132023203328EC09A
:1034200099F09251991B99AF02D0018E06D0019E5E
:1034300004D0006A016A026A036AF4EF1BF0EACF63
:1034400091F0E9CF90F08A39F0098C6F8C27E20F68
:103450008D6F320F8F6F8A510F0B8D278D278F271E
:10346000E90F8E6F8E278E2789390F0B8E278F27B6
:103470008E378F378F1F8F3789510F0B8F278C37E0
:10348000070E8B6F0A0E8E078F27FDE38D078E27A1
:10349000FDE38C078D27FDE38B078C27FDE3EA6AAC
:1034A0008B0EE96E070E9015909DE9268F0EE95C54
:1034B000D8B4908DEF50006E08E190BD06D090B961
:1034C00013D090B702D0200E03D090879099300E81
:1034D0000026EACF8AF0E9CF89F000C096F041DEFD
:1034E0008AC0EAFF89C0E9FFEE5090ADDFD720EF38
:1034F0001CF09651B608966F036A97C09AF0978FA2
:10350000D890973398339933033202320132003224
:10351000962FF6D79AAF0BD0001E011E021E031E77
:10352000002AD8B4012AD8B4022AD8B4032A07EF53
:103530001BF0D8B203D0EA6A9E0EE96E006A016AF7
:10354000026A036A9E6B9F6BA06BA16B9D519C11DD
:103550009B119A112CE0200EA26FD89096379737C6
:10356000983799379E379F37A037A1379D51A15D76
:1035700008E19C51A05D05E19B519F5D02E19A51DC
:103580009E5D0FE39A519E5F9B51D8A09B3D9F5F2C
:103590009C51D8A09C3DA05F9D51D8A09D3DA15FAE
:1035A000D8800036013602360336A22FD6D79EC009
:1035B000EFFF9FC0ECFFA0C0ECFFA1C0ECFF12002A
:1035C000E9508E6F8D51906F19E08CC099F08BC0CF
:1035D00098F08AC097F089C096F09D6B9C6B200E86
:1035E0009B6F820E9A6F04DE03C08CF002C08BF0DA
:1035F00001C08AF000C089F0902FE7D78CC099F005
:103600008BC098F08AC097F089C096F072D703C03B
:103610008CF002C08BF001C08AF000C089F08CAF42
:103620000DD08E078E8B891F8A1F8B1F8C1F892BB5
:10363000D8B48A2BD8B48B2BD8B48C2B3B0E956F77
:103640009A0E946FCA0E936F926B0A0E906F8D5103
:10365000D8B48E2BD882EA6A890EE96E8CC099F0B4
:103660008BC098F08AC097F089C096F095C09DF005
:1036700094C09CF093C09BF092C09AF05ADF015026
:1036800000520FE18D29905D0CE08E510CE00F0B84
:10369000905D01E037E28EBF35D08EBD04D0200EA4
:1036A0002DD0200E8E178EAB0CD08E9B8D51D8A4B2
:1036B0008E0700508E6F2D0E966F53DD8E51006E6B
:1036C0008E6B8D51905D0AE100508E6F2E0E966FBD
:1036D00048DD8E51006E200E8E17000E300E8EAB20
:1036E0000DD08E9B8D51D8A48E0700508E6F2D0E5D
:1036F000966F37DD8E51006E8E6B300E002600C047
:1037000096F02FDDD89295C099F094C098F093C0B0
:1037100097F092C096F09D6B9C6B9B6B0A0E9A6F14
:1037200008DF03C095F002C094F001C093F000C020
:1037300092F0902F8FD736EF1CF00900F6CF8AF069
:10374000F7CF8BF0F5CF96F00CDD8AC0F6FF8BC07B
:10375000F7FF892FF2D73DEF1CF08835006E003659
:10376000FC0E0016C250C30B0010C26E050E896F0E
:10377000B5DCC282C2B2FED7C3CF82F0C4CF83F021
:1037800083C08AF082C089F017D500C089F001C0DB
:103790008AF002C08BF003C08CF003C099F002C025
:1037A00098F001C097F000C096F09D6B9C6B200EC6
:1037B0009B6F810E9A6F1CDD00C089F001C08AF0FA
:1037C00002C08BF003C08CF003C090F002C08FF0F9
:1037D00001C08EF000C08DF0946BC00E936F7F0E11
:1037E000926F880E916F7DD500C089F001C08AF07C
:1037F00002C08BF003C08CF003C099F002C098F0B7
:1038000001C097F000C096F09D6B9C6B480E9B6FBB
:10381000850E9A6FEDDC03C087F002C086F001C010
:1038200085F000C084F0560E966F9BDC3A0E966FC2
:1038300098DC100EE96E83C08AF082C089F0FFD553
:10384000200E966F8EDC540E966F8BDC3A0E966FC0
:1038500088DC890EE96E87C08CF086C08BF085C04D
:103860008AF084C089F0020E8D6FAAD6320EF66EF1
:10387000300EF76E050E896F60D71200F86AD09E81
:10388000078EEA6AE96A226A276A7A6B816B836B20
:10389000826B876B866B856B846BC150C00B0F0985
:1038A000C16E070EB46E1E6A040E1F6E0C0E206EE3
:1038B000C150C00B0D09C16EC080C082C084C08ED3
:1038C000C28008D4080E886FFA0E896F07DC882F33
:1038D000FBD7380EF66E300EF76E5DD4C80E896FCA
:1038E0006EEC18F0886B39DF040E886FFA0E896F62
:1038F0006EEC18F0882FFAD7010E886F2EDF040EB9
:10390000886FFA0E896F6EEC18F0882FFAD70D0EBB
:10391000966F27DC0A0E966F24DC0A0E966F21DC68
:0C392000C80E896F6EEC18F0DDD70300B4
:020000040030CA
:0E00000024CE3E1E0085A1000FC00FE00F4071
:00000001FF
;PIC18F4550
;CRC=1EE4  CREATED="09-jul.-14 18:21"
