:0420000028EF10F0C5
:08200800010E065E0CE3EA6A1A
:10201000060EE96EEF5007E0020E006E002EFED7AE
:1020200000D0EF2EF9D71200EA6A050EE96EEF50E4
:102030000EE00F0E016E006A002EFED7012EFBD7B8
:102040008F0E006E002EFED70000EF2EF2D712008A
:10205000F86AD09EEA6AE96A046AC150C00B0F09A7
:10206000C16E070EB46E046A0450630810E39390C7
:102070008A80050E056E6E0E066EC6DF052EFBD736
:1020800093908A90140E056ECFDF042AEDD7046A70
:102090000450630813E393908A80010E056EC4DF39
:1020A000020E056EFA0E066EAFDF052EFBD793907B
:1020B0008A90140E056EB8DF042AEAD7046A045029
:1020C000630813E393908A80020E056EADDF020E63
:1020D000056EE10E066E98DF052EFBD793908A9071
:0E20E000140E056EA1DF042AEAD7BDD7030057
:020000040030CA
:0E00000024CE3E1E0085A1000FC00FE00F4071
:00000001FF
;PIC18F4550
;CRC=501A  CREATED="22-sep-15 12:58"
