:0420000070EF1DF070
:08200800046ED8CF05F0E0CF13
:1020100006F00001E9CF0CF0EACF07F0E1CF08F0BD
:10202000E2CF09F0D9CF0AF0DACF0BF0F3CF12F0FC
:10203000F4CF13F0FACF14F0F5CF15F0F6CF16F079
:10204000F7CF17F000C00EF001C00FF002C010F083
:1020500003C011F0A0A230EF10F0A1B21FEF11F0F9
:10206000A0AA36EF10F0A1BA5FEF18F00EC000F092
:102070000FC001F010C002F011C003F00CC0E9FF66
:1020800007C0EAFF078E08C0E1FF09C0E2FF0AC0EF
:10209000D9FF0BC0DAFF12C0F3FF13C0F4FF14C066
:1020A000FAFF15C0F5FF16C0F6FF17C0F7FF045082
:1020B00006C0E0FF05C0D8FF1000F76ACA0FF66E31
:1020C000200EF7220900F5501200000302FFFFFF67
:1020D000FFFFFFFFFFFFFFFFFFFFF76AEA0FF66E4C
:1020E000200EF7220900F550120000FF02FFFFFF4B
:1020F000FFFFFFFFFFFFFFFFFFFFF76A0A0FF66E0C
:10210000210EF7220900F55012004000080040009F
:1021100000000000000000000000000000000000BF
:1021200000000000000000000000F76A3A0FF66EA1
:10213000210EF7220900F550120040000000400077
:10214000000000000000000000000000000000008F
:1021500000000000000000000000F76A6A0FF66E41
:10216000210EF7220900F550120009024300020176
:102170000080320904000001020201000524001061
:1021800001042402020524060001052401000107C0
:102190000581030800FA09040100020A0000000793
:1021A0000502024000010705820240000100F76AB3
:1021B000BE0FF66E210EF7220900F5501200020044
:1021C000F76AD00FF66E210EF7220900F5501200C3
:1021D00012171B20FFFFFFFFF76AE80FF66E210EB4
:1021E000F7220900F5501200120110010200004010
:1021F000D8040200000101020001F76A0A0FF66E1E
:10220000220EF7220900F5501200040309040C0302
:10221000500049004E004700550049004E004F0055
:102220001803500049004E004700550049004E0079
:102230004F0020004A004100430053005300F60EB7
:10224000B36E9F0EB26E1AA008D029501C5C03E337
:1022500093908A8002D093908A901AA208D0295035
:102260001D5C03E393928A8202D093928A921AA40D
:1022700008D029501E5C03E393948A8402D093947F
:102280008A941AA608D029501F5C03E393968A8685
:1022900002D093968A961AA808D02950205C03E3AE
:1022A00093988A8802D093988A981AAA08D02950BD
:1022B000215C03E3939A8A8A02D0939A8A9A1AAC91
:1022C00008D02950225C03E3939C8A8C02D0939C13
:1022D0008A9C1AAE08D02950235C03E3939E8A8E11
:1022E00002D0939E8A9E1BA008D02950245C03E351
:1022F00095908C8002D095908C901BA208D029508C
:10230000265C03E395928C8202D095928C921BA45A
:1023100008D02950275C03E395948C8402D09594CF
:102320008C941BA608D02950285C03E392988988D6
:1023300002D092988998292A29500A0802E2010EAF
:10234000296EA19236EF10F06D92699468A402D0C4
:102350006894FCD76BEF18F0400E0401016F040E77
:10236000036F180E026F880E006F046B040E076F68
:10237000580E066F0001120070A002D0EDDF7090C1
:10238000689A74EF18F06A6A68927AEF18F0C5914B
:10239000C4BFC581C49FC451100803E2000E016E82
:1023A00017D0C5A10BD0036AC45187DEFF0802E134
:1023B000000E01D0010E016E0BD00AD0036AC45189
:1023C0008CDEFF0802E1000E01D0010E016E00D08C
:1023D0001200C951CB03F3CF01F0F4CF00F0CC03CE
:1023E000F3500026CA51CB03F3500020026E1200B6
:1023F000036AC351700FE96E0F0E0320EA6EEF6A95
:10240000C3C0C4F0C4DF015222E0CA6BC3C0C9F02C
:10241000CC6B080ECB6FDDDF01C0E9FF040E022498
:10242000EA6EEF6ACA6BC3C0C9F0CC6B080ECB6F03
:10243000D0DF02C0C5F001C0C4F0040EC427000EF6
:10244000C523C4C0E9FF040EC525EA6EEF6A120079
:10245000010EC26FC2510F0805E3C2C0C3F0C8DF4E
:10246000C22BF8D712003C6A3B6A250E3A6E800EEA
:10247000396E3D6A3E6A080E3F6E8D6B1B9C416A49
:10248000406A896B8A911200B86BB85101080AE35F
:10249000036AB851370FE96E000E0320EA6EEF6A47
:1024A000B82BF3D7E0DF2B6A010E2C6E2A6A1200DC
:1024B000689612006A6A686A9F0E6B6E3D0E696EBE
:1024C0006E6AC6DFE1DF160E706E68A602D0F0DF1E
:1024D000FCD76D9841DF030E326E80EF18F06984EF
:1024E00068986D8286EF18F0689C8CEF18F0BDC07C
:1024F00033F0120033681200BB6B365226E0BB513A
:102500003F0823E32D5005E0020A08E0010A0BE032
:102510000FD0036A355021DEBC6F0AD0036A3550F4
:102520006CDEBC6F05D0036A355056DEBC6F00D040
:10253000352A3606BB51BB2B580FE96E040EEA6EE6
:10254000D8B0EA2ABCC0EFFFD8D7365204E1BB515D
:10255000400801E02A6ABBC0BDF0C9DF1200356A3D
:102560002D6A04011B51010A000107E0030A0AE079
:10257000010A0BE0220A1BE02BD0120E366E030E6E
:102580002D6E28D0430E366E25D0020E2D6E036AB6
:1025900004011A512E0FE96E000E0320EA6EEFCFF0
:1025A00035F0036A3550000128DE366E13D0036A19
:1025B00004011A51000104DE356E353C01D006D00D
:1025C000036A3550CADD366E05D002D093DF0ED0D7
:1025D00091DF0CD004011F5305E136501E5D02E26D
:1025E0001EC436F0010E2A6E000186DF1AEF14F0C9
:1025F000BA5304E1040E326E2BDFC9D0050E326EE1
:10260000040EBD6F980EBC6F010EBB6FBB510F085F
:10261000D8A0BDD0BBC0C3F0EBDEBE6B036ABB511C
:102620005CDDFF0859E0040EBE6FD890BB35036A2D
:102630007CDD0900F5CF03F0BF6F03C0C0F0CA6BAB
:10264000BBC0C9F0CC6B080ECB6FC3DE01C0C2F0BB
:10265000010E0124016E000E0220036E01C0E9FF8D
:10266000040E0324EA6EBFC0EFFFCA6BBBC0C9F003
:10267000CC6B080ECB6FADDE01C0C2F0020E0124A0
:10268000016E000E0220036E01C0E9FF040E032458
:10269000EA6EBDC0ECFFED52BCC0EFFFD890BB3579
:1026A000036A43DD0900F5CF03F0BC270350BD23C7
:1026B000880EC16FC0B1C181C0B3C183CA6BBBC03A
:1026C000C9F0CC6B080ECB6F84DE01C0E9FF040EAD
:1026D0000224EA6EC1C0EFFF036ABB51EEDCFF08C3
:1026E00040E0BE83CA6BBBC0C9F0CC6B080ECB6F99
:1026F00070DE02C0C3F001C0C2F0040EC227000E9B
:10270000C323020EC225016E000EC321036E01C059
:10271000E9FF040E0324EA6EBDC0ECFFED52BCC01D
:10272000EFFFD890BB35036AE8DC0900F5CF03F072
:10273000BC270350BD23CA6BBBC0C9F0CC6B080ECD
:10274000CB6F47DE02C0C3F001C0C2F0040EC22747
:10275000000EC323C2C0E9FF040EC325EA6E400E7B
:10276000EF6EBE51060802E10E0EBE6F036ABB514A
:10277000A4DC0108D8A4BE89036ABB51700FE96EBE
:102780000F0E0320EA6EBEC0EFFFBB2B3FD714EF46
:1027900014F004011951000A00010DE0010A14E0CF
:1027A000020A1EE0060A27E0030A2CE00E0A2CE0CB
:1027B000010A30E03DD02CC058F40401596B020EE0
:1027C0000001BD6F94DE36D004011A2D06D0010E33
:1027D0002C160001BD6B8BDE02D000018BDE2AD0EF
:1027E00004011A2D05D02C820001BD6B80DE02D0C1
:1027F000000180DE1FD0020E2A6E1AC434F0BD6BB9
:1028000076DE18D0ACD616D02BC058F4010EBD6FB2
:102810006EDE10D004011A51010808E31AC42BF02F
:102820001AC4BAF00001E4D6BD6B61DE000102D02B
:1028300061DE00D08EEF15F02BC0BAF00401195103
:10284000000A000105E00A0A0BE0010A26E037D081
:102850000401586B596B020E0001BD6F48DE31D088
:10286000BA5319E0010EBA5D036AA1DC016E0401DE
:102870001C5DD8A002D000010ED0036A1C51370F96
:10288000E96E000E0320EA6EEFCF58F4010E00014E
:10289000BD6F2DDE01D02EDE14D0BA530EE0036AD8
:1028A00004011C51370FE96E000E0320EA6E1AC4B2
:1028B000EFFF0001BD6B1BDE01D01CDE02D01ADE73
:1028C00000D08EEF15F0BB91BABFBB81BA9FBBA100
:1028D00017D0CA6BBAC0C9F0CC6B080ECB6F79DDCC
:1028E00002C0BDF001C0BCF0040EBC27000EBD2329
:1028F000BCC0E9FF040EBD25EA6E880EEF6E0DD058
:10290000CA6BBAC0C9F0CC6B080ECB6F62DD01C0D8
:10291000E9FF040E0224EA6EEF6A03EF15F0BB91A3
:10292000BABFBB81BA9FBBA117D0CA6BBAC0C9F0EE
:10293000CC6B080ECB6F4DDD02C0BDF001C0BCF00A
:10294000040EBC27000EBD23BCC0E9FF040EBD254C
:10295000EA6E840EEF6E0ED0CA6BBAC0C9F0CC6BB3
:10296000080ECB6F36DD01C0E9FF040E0224EA6ECB
:10297000840EEF6E09EF15F0BB91BABFBB81BA9F11
:10298000BBA117D0CA6BBAC0C9F0CC6B080ECB6F15
:1029900020DD02C0BEF001C0BDF0040EBD27000E58
:1029A000BE23BDC0E9FF040EBE25EA6EEFCFBCF02A
:1029B0000ED0CA6BBAC0C9F0CC6B080ECB6F09DD64
:1029C00001C0E9FF040E0224EA6EEFCFBCF0BCAFF9
:1029D00002D0BCB502D0000E01D0010E016E13EF83
:1029E00015F01CC4C4F0D3DC015229E004011951D4
:1029F000010A000105E0020A09E0030A0DE01DD00A
:102A00001CC4BAF060D7BD6B72DD19D01CC4BAF01B
:102A100086D7BD6B6CDD13D00401586B596B1CC499
:102A2000BAF00001A9D7015204E0010E0401586F69
:102A30000001020EBD6F5BDD02D05CDD00D08EEFC9
:102A400015F0FE0E336E120004011C2D01D002D0D1
:102A50001C5349E11951000A00010BE0010A0DE085
:102A6000210A1CE0010A1FE0030A2EE0010A31E0FE
:102A700037D0010E8F6FE5DF35D0040EEA6E580EA9
:102A8000E96EE26A420EE16E080E016EE6CFEEFFDD
:102A9000012EFCD71EC4BDF02ADD24D0020E8F6F9C
:102AA0001B8CCFDF1FD0040EEA6E580EE96EE26A6F
:102AB000390EE16E070E016EE6CFEEFF012EFCD758
:102AC000070EBD6F14DD0ED01AC48DF0BD6B0FDD87
:102AD00009D01AC441F01BC440F0BD6B08DD02D020
:102AE00009DD00D0040100018EEF15F02A6A04010F
:102AF00018517F0B000A000107E0010A07E0030AF2
:102B000007E0230A07E008D044D608D095D606D0BF
:102B100068D704D099D702D0EDDC00D0B3EF17F01E
:102B2000CA6BBBC0C9F0CC6B080ECB6F52DC01C0C6
:102B3000E9FF040E0224EA6EEFCFBDF0BC5102089B
:102B400006E1BDAD02D0BC6B02D0010EBC6FBC5122
:102B5000030819E1840EBD6FCA6BBBC0C9F0CC6B12
:102B6000080ECB6F36DC02C0C1F001C0C0F0040E0D
:102B7000C027000EC123C0C0E9FF040EC125EA6EC4
:102B8000840EEF6E07D0BC2D03D0C80EBD6F02D0EF
:102B9000880EBD6FD890BB35036A95EC10F0090024
:102BA000F5CF03F0BE6F03C0BFF0CA6BBBC0C9F066
:102BB000CC6B080ECB6F0DDC01C0C0F0010E012400
:102BC000016E000E0220036E01C0E9FF040E032413
:102BD000EA6EBEC0EFFFBFB1BD81BFB3BD83CA6B9C
:102BE000BBC0C9F0CC6B080ECB6FE9EC11F001C093
:102BF000E9FF040E0224EA6EBDC0EFFF1200036A73
:102C0000C851700FE96E0F0E0320EA6EEF5219E003
:102C1000CA6BC8C0C9F0CC6B080ECB6FE9EC11F0E1
:102C200002C0CAF001C0C9F0040EC927000ECA23B1
:102C3000C9C0E9FF040ECA25EA6EEFCFCBF0CBAFD7
:102C400002D0000E01D0010E016E1200C3C0C8F008
:102C5000D6DF0152D8B47CD0CA6BC3C0C9F0CC6BEC
:102C6000080ECB6FE9EC11F002C0C9F001C0C8F04A
:102C7000040EC827000EC923010EC825016E000EE0
:102C8000C921036E01C0E9FF040E0324EA6EC4C02B
:102C9000EFFFC65102081EE1CA6BC3C0C9F0CC6B7E
:102CA000080ECB6FE9EC11F002C0C9F001C0C8F00A
:102CB000040EC827000EC923C8C0E9FF040EC925A9
:102CC000EA6EEFCFC7F0C7AD02D0C66B02D0010EDF
:102CD000C66F18D0C651040815E1CA6BC3C0C9F04D
:102CE000CC6B080ECB6FE9EC11F001C0E9FF040ECC
:102CF0000224EA6EEFCFC7F0C7AD03D0010EC66F56
:102D000001D0C66BC62D03D0C80EC76F02D0880E87
:102D1000C76FC5B1C781C5B3C783CA6BC3C0C9F08C
:102D2000CC6B080ECB6FE9EC11F002C0C9F001C00A
:102D3000C8F0040EC827000EC923C8C0E9FF040E5E
:102D4000C925EA6EC7C0EFFF010E016E03D000D0A7
:102D5000000E016E12008F51010A03E0030A13E016
:102D600024D0EA6A420EE96E040EE26E180EE16E9D
:102D7000080E016EE6CFEEFF012EFCD7BD6B77EC9F
:102D800012F08F6B14D0EA6A390EE96E040EE26E0F
:102D9000180EE16E070E016EE6CFEEFF012EFCD796
:102DA0008F6BBD6B77EC12F002D08F6B00D00DEF04
:102DB00017F0CA6BBBC0C9F0CC6B080ECB6FE9EC47
:102DC00011F002C0BDF001C0BCF0010E0124016E83
:102DD000000E0220036E01C0E9FF040E0324EA6E18
:102DE000036AEFCF01F003C002F003EF17F08A91FE
:102DF000020EBB6FBC6F94DE08EF17F08A818C6BFC
:102E0000020EBB6FD6D701C08BF08B5301E1EFD719
:102E100012EF17F0BA5302E19ED704D0BA5102085C
:102E200001E1ECD71200BBC06EFFBB5303E0040E00
:102E3000326E02D0020E326E23EF17F02B6A2A6A2E
:102E400034C0BBF0F0D792EF17F0BBC0C8F0D7DEAC
:102E5000015246E0CA6BBBC0C9F0CC6B080ECB6F09
:102E6000E9EC11F002C0C4F001C0C3F0040EC327A6
:102E7000000EC423020EC325016E000EC421036E92
:102E800001C0E9FF040E0324EA6EECCF03F0ED521B
:102E9000EFCFC1F003C0C2F0C2C0EAFFC1C0E9FF7A
:102EA000BDC0E2FFBCC0E1FFBFC002F0BEC001F088
:102EB000015202E0022A02D0025206E0E6CFEEFF03
:102EC000012EFCD7022EFAD7BBC0C3F0BFC0C5F09D
:102ED000BEC0C4F0C0C0C6F0B9DE015003D000D0FF
:102EE000000E016E1200020EBB6FBD6B4A0EBC6F6E
:102EF000BF6B89C0BEF0020EC06FA7DF89C08EF025
:102F0000896B1200895301E0EEDF97EF17F0BA5397
:102F10000AE12A2C03D07CEC12F004D02A500208DB
:102F200001E18CD704D0BA51020801E1EBD71200BD
:102F30003130B86FB833B8331F0EB817315242E191
:102F4000040100513C0B0001B96F430E040100174E
:102F50000001B95134081EE104010451800B01E065
:102F6000046B0001C3D56D98333C05D0BB6B030ED9
:102F7000BC6FD6DD0ED0BB6B020EBC6FD1DD335003
:102F8000FE0807E0C36BC56B33C0C4F0040EC66F08
:102F90005DDE17D0B951040814E1BA6B3BDFBB6B9F
:102FA000020EBC6FBDDD3350FE080AE0333C01D099
:102FB00007D0C36BC56B33C0C4F0010EC66F46DECD
:102FC00000D07BD03150040813E1430E04010417F4
:102FD00033680001BA6B9BDF333C01D008D0C36B70
:102FE000C56B33C0C4F0020EC66F30DE00D065D0B2
:102FF00031B42CD0CA6BB8C0C9F0CC6B080ECB6F03
:10300000E9EC11F002C0BBF001C0BAF001C001F060
:10301000040E0224036E01C0BCF0BD6FCA6BB8C0C1
:10302000C9F0CC6B080ECB6FE9EC11F001C0E9FFE1
:10303000040E0224EA6EEF50430BBDC0EAFFBCC091
:10304000E9FFEF6EB8C0BAF0E5DE37D0CA6BB8C0A2
:10305000C9F0CC6B080ECB6FE9EC11F002C0BBF0ED
:1030600001C0BAF0040EBA27000EBB23BAC001F0AB
:10307000040EBB25036EBAC0BCF0BD6FCA6BB8C0EE
:10308000C9F0CC6B080ECB6FE9EC11F002C0BFF0B9
:1030900001C0BEF0040EBE27000EBF23BEC0E9FF74
:1030A000040EBF25EA6EEF50430BBDC0EAFFBCC063
:1030B000E9FFEF6EB8C0BAF02ADF96EF18F0A19AD8
:1030C000325201E139D0685237E068A404D069A4D3
:1030D00002D0A4EF11F06DA201D02ED068AA04D0C6
:1030E00069AA02D0BCEF11F068A204D069A202D094
:1030F000C3EF11F068A004D069A002D05AEF12F01B
:1031000068A804D069A802D06FEF12F068AC04D0B0
:1031100069AC02D074EF12F0B76B68A608D069A64C
:1031200006D06CCF31F058EC12F002D701D004D0A9
:10313000B751B72B0308F1E236EF10F06D6A696AF8
:10314000080E6F6E94503009946E326A196AF2BE9E
:10315000198EF29E44EC12F019BEF28EB1EF18F007
:10316000EDD7D7EF18F0196AF2BE198EF29E44EC33
:1031700012F019BEF28E6D6A140E6F6E696A6D865A
:10318000010E326EC7EF18F06DB601D0ECD7322CBD
:103190000BD06DBA09D0686A696AA08AC00EF212B3
:1031A000110E696E020E326ED8EF18F0D9D7ECD737
:1031B00032500208FCE1E4EF18F02B5202E1040067
:1031C000FCD7E5EF18F0F2D7F8D78AEF1DF0C080F2
:1031D000C082C084C09EC280C150C00BC16E9535F4
:1031E000006E0036FC0E0016C250C30B0010C26EFB
:1031F000270E006E002EFED700D0C282C2B2FED7CC
:10320000C4CF96F0C150C00B0F09C16E96C001F03B
:103210008EEF1DF08E0E006E96C001F095C002F08C
:10322000036A015209E102C001F0026A080E005E61
:10323000015202E1006A08D0D89001BE04D00236E3
:1032400001360006F9D7019E95EF1DF0A251D8B4C2
:1032500071D0006EA651D8B46DD0002604E3810E63
:10326000002668E204D07F0E005E64E363E0A3C042
:10327000AAF0A751AA1BA38FA78FA551A903F4CF2A
:10328000ACF0A451A803F4CF03F0F3CFABF0A90343
:10329000F350AC27F450AB23000E0322A551A80332
:1032A000F350AC27F450AB23000E026A0322022233
:1032B000A351A903F350AB27F4500322000E0222BE
:1032C000A351A803F3500326F4500222000E016A12
:1032D0000122A551A703F350AB27F4500322000E9F
:1032E00002220122A451A703F3500326F450022224
:1032F000000E0122A351A703F3500226F45001222D
:10330000002A01BE05D0AB3703360236013600066F
:10331000000EABAF0AD0032A02220122015005E1C0
:10332000025003E1035001E1002AAABF018EAAAFB7
:10333000019E04D0006A016A026A036A1200A15168
:10334000D8B4A5D0AD6FA551D8B4A1D0AD5F05E379
:103350007F0EAD27D8B09BD006D0810EAD5FD8A030
:1033600096D0D8B494D0ADC000F0016A026A036A66
:10337000AC6BA2C0ABF0AB8FA3C0AAF0A4C0A9F005
:10338000190EAD6FA851A95F0DE2010EAA5F0AE206
:10339000AB5F08E2AC5F06E2AC2BAB2BAA2BA851CB
:1033A000A92728D0A751AA5F12E2010EAB5F0FE256
:1033B000AC5F0DE2AC2BAB2BA751AA27A851A927D4
:1033C00019E3AA2B17E1AB2B15E1AC2B13D0A651B7
:1033D0008009AB5F0EE2010EAC5F0BE2AC2BA65195
:1033E0008009AB27A751AA27E9E3AB2BE7E1AC2B78
:1033F000E5D70380AD2F01D00BD0D890A937AA37DD
:10340000AB37AC37D890033602360136AE37BAD771
:10341000AEA106D0D890013202320332AE3302D0D0
:10342000000635E0AEBF1ED0D890A937AA37AB371B
:10343000AC37A851A95F07E2010EAA5F04E2AB5FB7
:1034400002E2AC5F1AE3A751AA5F05E2010EAB5F8F
:1034500002E2AC5F12E3A6518009AB5F03E2010E0A
:10346000AC5F0BE3032A09E1022A07E1012A05E127
:10347000002A0DE0013202320332A2C0ADF0A651A3
:10348000AD1BADAF02D0018E06D0019E04D0006A04
:10349000016A026A036A82EF1AF09CC0A5F09BC021
:1034A000A4F09AC0A3F099C0A2F0A96BA86B200E5B
:1034B000A76F810EA66FCADEA56BA46B480EA36F23
:1034C000850EA26F03C0A9F002C0A8F001C0A7F04A
:1034D00000C0A6F0BBDE00C09DF001C09EF002C09F
:1034E0009FF003C0A0F003C0A4F002C0A3F001C08D
:1034F000A2F000C0A1F0A86BA76B7F0EA66F860E8E
:10350000A56F1DD703C09CF002C09BF001C09AF0CC
:1035100000C099F099C000F09AC001F09BC002F081
:103520009CC003F0A6EF1DF0800ED8B2A71BAC6BB9
:10353000AD6BA3C0ABF0A751AB1BA251D8B4DCD08C
:10354000AA6F006EA651D8B4E0D0AA5FD8B481D0DB
:103550003DE3A7C0B0F0B08FA8C0AFF0A9C0AEF0F7
:10356000AD6BD890B033AF33AE33AD33AA2FF8D7AD
:10357000ABAF03D0AC81DDD0AC91AA91AC89EA6A43
:10358000A50EE96EE9D0AC99ABBF0AD0AAA113D0C1
:10359000B033AF33AE33AD33002AD8B4C5D00BD07F
:1035A000B0BF0CD0D890AD37AE37AF37B0370006CC
:1035B000D8B4BAD0F5D7AC8D6BD0AC9DA3C0ABF06E
:1035C000A3AF02D0B08FA9D0B09FA7D0A6C0AAF059
:1035D000A6C000F0A251AA5FA3C0B0F0B08FA4C0F3
:1035E000AFF0A5C0AEF0AD6BD890B033AF33AE3313
:1035F000AD33AA2FF8D7ABAF03D0AC839AD0AC933E
:10360000AA91AC8BEA6AA90EE96EA6D0AC9BABBFBF
:103610000AD0AAA113D0B033AF33AE33AD33002AF2
:10362000D8B482D00BD0B0BF0CD0D890AD37AE3765
:10363000AF37B0370006D8B477D0F5D7AC8F28D0E5
:10364000AC9FA7C0ABF0A7AF02D0B08F66D0B09F41
:1036500064D0A7C0B0F0B08FA8C0AFF0A9C0AEF0E2
:10366000ABAF04D0B09FAC8564D0AC95AD6BAA91E4
:10367000EA6AA50EE96E70D0ABBF1CD0A3C0ABF058
:10368000AAA106D0B033AF33AE33AD33002A4CE03D
:10369000ADAF0BD0AE2B09E1AF2B07E1B02B05E1AD
:1036A000B033AF33AE33002A3FE0ACBD86D7ACBFFA
:1036B000C7D71CD0800EB01BB0AF04D03AD0A7C083
:1036C000ABF00AD0A3C0ABF0B05306E1AF5304E1B6
:1036D000AE5302E1006A21D0B0BF08D0D890AD3718
:1036E000AE37AF37B037002EF7D71ED0ABAF02D012
:1036F000B08F13D0B09F11D0A6C000F0A7C0B0F01B
:10370000A8C0AFF0A9C0AEF008D0A2C000F0A3C01E
:10371000B0F0A4C0AFF0A5C0AEF0B0C001F0AFC033
:1037200002F0AEC003F034D0006A016A026A036A94
:103730002FD0AD6BAE1FAF1FB01FAD1FAD2B05E17E
:10374000AE2B03E1AF2B01E1B02BACB115D7ACB37D
:1037500056D7ACB58AD7B3D7EF50AE2705E3AF2B1A
:1037600003E1B02BD8B4AA81ED52EF50AF2703E3A9
:10377000B02BD8B4AA81ED52EF50EFBE01D0800A31
:10378000B027D8B0AA81ACB9FED6ACBB3FD774D7AE
:10379000B4EF1CF0A251B608A26F036AA3C0A6F052
:1037A000A38FD890A333A433A5330332023201325E
:1037B0000032A22FF6D7A6AF0BD0001E011E021EAC
:1037C000031E002AD8B4012AD8B4022AD8B4032A86
:1037D000C5EF1CF0D8B203D0EA6AAA0EE96E006AFF
:1037E000016A026A036AAA6BAB6BAC6BAD6BA95141
:1037F000A811A711A6112CE0200EAE6FD890A23709
:10380000A337A437A537AA37AB37AC37AD37A951A3
:10381000AD5D08E1A851AC5D05E1A751AB5D02E1EA
:10382000A651AA5D0FE3A651AA5FA751D8A0A73D54
:10383000AB5FA851D8A0A83DAC5FA951D8A0A93DC5
:10384000AD5FD8800036013602360336AE2FD6D7AC
:10385000AAC0EFFFABC0ECFFACC0ECFFADC0ECFF0B
:103860001200A591F2BEA581F29E89513E0802E2A6
:103870003E0E896F8951892B036A4A0FE96E000E4B
:103880000320EA6EA4C0EFFFF29EA5B1F28E4CEFCA
:103890001CF0A3C0A4F0E5D7196AF2BE198EF29EFF
:1038A000020EC86FFFEC15F019BEF28E015208E04F
:1038B000196AF2BE198EF29E73EC17F019BEF28EE1
:1038C0007DEF1CF089513E0815E2196AF2BE198E8F
:1038D000F29E020EC86FFFEC15F019BEF28E015277
:1038E00008E0196AF2BE198EF29E73EC17F019BE49
:1038F000F28EE8D7A2C0A3F0CCD71200E9509A6F9D
:1039000099519C6F19E098C0A5F097C0A4F096C09B
:10391000A3F095C0A2F0A96BA86B200EA76F820E32
:10392000A66F94DC03C098F002C097F001C096F037
:1039300000C095F09C2FE7D77E0E006E016A96BFFF
:10394000018E026A036AD89298C0A5F097C0A4F0CD
:1039500096C0A3F095C0A2F003C0A9F002C0A8F0E1
:1039600001C0A7F0A66FE0D503C098F002C097F0A1
:1039700001C096F000C095F098C0A5F097C0A4F0E3
:1039800096C0A3F095C0A2F005D703C098F002C07E
:1039900097F001C096F000C095F098AF0DD09A074F
:1039A0009A8B951F961F971F981F952BD8B4962B0F
:1039B000D8B4972BD8B4982B3B0EA16F9A0EA06F5A
:1039C000CA0E9F6F9E6B0A0E9C6F9951D8B49A2BAA
:1039D000D882EA6A950EE96E98C0A5F097C0A4F067
:1039E00096C0A3F095C0A2F0A1C0A9F0A0C0A8F015
:1039F0009FC0A7F09EC0A6F0EDDE015000520FE17F
:103A000099299C5D0CE09A510CE00F0B9C5D01E044
:103A100037E29ABF35D09ABD04D0200E2DD0200EAB
:103A20009A179AAB0CD09A9B9951D8A49A07005038
:103A30009A6F2D0EA26F46DF9A51006E9A6B9951C4
:103A40009C5D0AE100509A6F2E0EA26F3BDF9A51E7
:103A5000006E200E9A17000E300E9AAB0DD09A9B76
:103A60009951D8A49A0700509A6F2D0EA26F2ADFA1
:103A70009A51006E9A6B300E002600C0A2F022DF31
:103A8000D892A1C0A5F0A0C0A4F09FC0A3F09EC092
:103A9000A2F0A96BA86BA76B0A0EA66F9BDE03C0F2
:103AA000A1F002C0A0F001C09FF000C09EF09C2FCA
:103AB0008FD7BBEF1DF0EA6A960EE96EEF500EE06D
:103AC0000F0E016E006A002EFED7012EFBD78F0E5F
:103AD000006E002EFED70000EF2EF2D7C6EF1DF0CD
:103AE000F86AD09E078EEA6AE96A1B981B9A010E53
:103AF000296E326A366A896B8F6BC150C00B0F0911
:103B0000C16E070EB46E2E6A040E2F6E0C0E306E50
:103B1000E3EF18F0010E956FE7EF18F001C090F099
:103B2000966B90C095F00AEF19F000C095F001C0B7
:103B300096F002C097F003C098F003C09CF002C05A
:103B40009BF001C09AF000C099F0A7D403C094F094
:103B500002C093F001C092F000C091F0890EE96EAE
:103B600094C098F093C097F092C096F091C095F0F1
:103B7000020E996FC3D6200EA26FA4DE0D0EA26FA7
:103B8000A1DE040E956FFA0E966F95D7952FFBD791
:043B9000C1D7030096
:020000040030CA
:0E00000024CE3E1E0085A1000FC00FE00F4071
:00000001FF
;PIC18F4550
;CRC=053E  CREATED="27-ene-13 20:59"
