:04200000FFEF1DF0E1
:08200800046ED8CF05F0E0CF13
:1020100006F00001E9CF0CF0EACF07F0E1CF08F0BD
:10202000E2CF09F0D9CF0AF0DACF0BF0F3CF12F0FC
:10203000F4CF13F0FACF14F0F5CF15F0F6CF16F079
:10204000F7CF17F000C00EF001C00FF002C010F083
:1020500003C011F0A0A230EF10F0A1B217EF11F001
:10206000A0AA36EF10F0A1BA58EF18F00EC000F099
:102070000FC001F010C002F011C003F00CC0E9FF66
:1020800007C0EAFF078E08C0E1FF09C0E2FF0AC0EF
:10209000D9FF0BC0DAFF12C0F3FF13C0F4FF14C066
:1020A000FAFF15C0F5FF16C0F6FF17C0F7FF045082
:1020B00006C0E0FF05C0D8FF1000F76ACA0FF66E31
:1020C000200EF7220900F5501200000302FFFFFF67
:1020D000FFFFFFFFFFFFFFFFFFFFF76AEA0FF66E4C
:1020E000200EF7220900F550120000FF02FFFFFF4B
:1020F000FFFFFFFFFFFFFFFFFFFFF76A0A0FF66E0C
:10210000210EF7220900F55012004000080040009F
:1021100000000000000000000000000000000000BF
:1021200000000000000000000000F76A3A0FF66EA1
:10213000210EF7220900F550120040000000400077
:10214000000000000000000000000000000000008F
:1021500000000000000000000000F76A6A0FF66E41
:10216000210EF7220900F550120009024300020176
:102170000080320904000001020201000524001061
:1021800001042402020524060001052401000107C0
:102190000581030800FA09040100020A0000000793
:1021A0000502024000010705820240000100F76AB3
:1021B000BE0FF66E210EF7220900F5501200020044
:1021C000F76AD00FF66E210EF7220900F5501200C3
:1021D00012171B20FFFFFFFFF76AE80FF66E210EB4
:1021E000F7220900F5501200120110010200004010
:1021F00061043300000101020001F76A0A0FF66E64
:10220000220EF7220900F550120004030904080306
:102210004300430053001803530045005200490097
:1022200041004C002000440045004D004F00F60ED8
:10223000B36E9F0EB26E1AA008D029501C5C03E347
:1022400093908A8002D093908A901AA208D0295045
:102250001D5C03E393928A8202D093928A921AA41D
:1022600008D029501E5C03E393948A8402D093948F
:102270008A941AA608D029501F5C03E393968A8695
:1022800002D093968A961AA808D02950205C03E3BE
:1022900093988A8802D093988A981AAA08D02950CD
:1022A000215C03E3939A8A8A02D0939A8A9A1AACA1
:1022B00008D02950225C03E3939C8A8C02D0939C23
:1022C0008A9C1AAE08D02950235C03E3939E8A8E21
:1022D00002D0939E8A9E1BA008D02950245C03E361
:1022E00095908C8002D095908C901BA208D029509C
:1022F000265C03E395928C8202D095928C921BA46B
:1023000008D02950275C03E395948C8402D09594DF
:102310008C941BA608D02950285C03E392988988E6
:1023200002D092988998292A29500A0802E2010EBF
:10233000296EA19236EF10F06D92699468A402D0D4
:102340006894FCD764EF18F0400E0401016F040E8E
:10235000036F180E026F880E006F046B040E076F78
:10236000580E066F0001120070A002D0EDDF7090D1
:10237000689A6DEF18F06A6A689273EF18F0C89166
:10238000C7BFC881C79FC751100803E2000E016E86
:1023900017D0C8A10BD0036AC7518FDEFF0802E136
:1023A000000E01D0010E016E0BD00AD0036AC75196
:1023B00094DEFF0802E1000E01D0010E016E00D094
:1023C0001200CC51CE03F3CF01F0F4CF00F0CF03D5
:1023D000F3500026CD51CE03F3500020026E1200C0
:1023E000036AC651700FE96E0F0E0320EA6EEF6AA2
:1023F000C6C0C7F0C4DF015222E0CD6BC6C0CCF02E
:10240000CF6B080ECE6FDDDF01C0E9FF040E0224A2
:10241000EA6EEF6ACD6BC6C0CCF0CF6B080ECE6F04
:10242000D0DF02C0C8F001C0C7F0040EC727000EFD
:10243000C823C7C0E9FF040EC825EA6EEF6A120080
:10244000010EC56FC5510F0805E3C5C0C6F0C8DF52
:10245000C52BF8D712003C6A3B6A250E3A6E800EF7
:10246000396E3D6A3E6A080E3F6E8D6B1B9C416A59
:10247000406A896B8A918E6B1200BB6BBB5101085D
:102480000AE3036ABB51370FE96E000E0320EA6EC0
:10249000EF6ABB2BF3D7DFDF2B6A010E2C6E2A6AA3
:1024A0001200689612006A6A686A9F0E6B6E3D0E93
:1024B000696E6E6AC5DFE1DF160E706E68A602D027
:1024C000F0DFFCD76D9840DF030E326E79EF18F025
:1024D000698468986D827FEF18F0689C85EF18F02A
:1024E000C0C033F0120033681200BE6B365226E0D3
:1024F000BE513F0823E32D5005E0020A08E0010A1F
:102500000BE00FD0036A355028DEBF6F0AD0036A94
:10251000355073DEBF6F05D0036A35505DDEBF6F87
:1025200000D0352A3606BE51BE2B580FE96E040E78
:10253000EA6ED8B0EA2ABFC0EFFFD8D7365204E11E
:10254000BE51400801E02A6ABEC0C0F0C9DF1200D7
:10255000356A2D6A04011B51010A000107E0030AD4
:102560000AE0010A0BE0220A1BE02BD0120E366EA5
:10257000030E2D6E28D0430E366E25D0020E2D6E22
:10258000036A04011A512E0FE96E000E0320EA6E51
:10259000EFCF35F0036A355000012FDE366E13D0D1
:1025A000036A04011A5100010BDE356E353C01D07F
:1025B00006D0036A3550D1DD366E05D002D093DFE8
:1025C0000ED091DF0CD004011F5305E136501E5D83
:1025D00002E21EC436F0010E2A6E000186DF13EF00
:1025E00014F0BD5304E1040E326E2ADFC9D0050E8B
:1025F000326E040EC06F980EBF6F010EBE6FBE51DB
:102600000F08D8A0BDD0BEC0C6F0EADEC16B036A19
:10261000BE5163DDFF0859E0040EC16FD890BE358E
:10262000036A83DD0900F5CF03F0C26F03C0C3F076
:10263000CD6BBEC0CCF0CF6B080ECE6FC2DE01C03A
:10264000C5F0010E0124016E000E0220036E01C0D0
:10265000E9FF040E0324EA6EC2C0EFFFCD6BBEC0DB
:10266000CCF0CF6B080ECE6FACDE01C0C5F0020E11
:102670000124016E000E0220036E01C0E9FF040E6A
:102680000324EA6EC0C0ECFFED52BFC0EFFFD8904C
:10269000BE35036A4ADD0900F5CF03F0BF270350BA
:1026A000C023880EC46FC3B1C481C3B3C483CD6BD0
:1026B000BEC0CCF0CF6B080ECE6F83DE01C0E9FF49
:1026C000040E0224EA6EC4C0EFFF036ABE51F5DCBB
:1026D000FF0840E0C183CD6BBEC0CCF0CF6B080ECD
:1026E000CE6F6FDE02C0C6F001C0C5F0040EC52774
:1026F000000EC623020EC525016E000EC621036E14
:1027000001C0E9FF040E0324EA6EC0C0ECFFED52E5
:10271000BFC0EFFFD890BE35036AEFDC0900F5CFEC
:1027200003F0BF270350C023CD6BBEC0CCF0CF6BEE
:10273000080ECE6F46DE02C0C6F001C0C5F0040E22
:10274000C527000EC623C5C0E9FF040EC625EA6EE4
:10275000400EEF6EC151060802E10E0EC16F036A12
:10276000BE51ABDC0108D8A4C189036ABE51700F09
:10277000E96E0F0E0320EA6EC1C0EFFFBE2B3FD7FC
:102780000DEF14F004011951000A00010DE0010AD7
:1027900014E0020A1EE0060A27E0030A2CE00E0AF3
:1027A0002CE0010A30E03DD02CC058F40401596BF4
:1027B000020E0001C06F94DE36D004011A2D06D03F
:1027C000010E2C160001C06B8BDE02D000018BDEE7
:1027D0002AD004011A2D05D02C820001C06B80DEA6
:1027E00002D0000180DE1FD0020E2A6E1AC434F01F
:1027F000C06B76DE18D0ACD616D02BC058F4010EC4
:10280000C06F6EDE10D004011A51010808E31AC42B
:102810002BF01AC4BDF00001E4D6C06B61DE0001EC
:1028200002D061DE00D087EF15F02BC0BDF00401AF
:102830001951000A000105E00A0A0BE0010A26E02E
:1028400037D00401586B596B020E0001C06F48DE8F
:1028500031D0BD5319E0010EBD5D036AA8DC016EE5
:1028600004011C5DD8A002D000010ED0036A1C51E7
:10287000370FE96E000E0320EA6EEFCF58F4010E19
:102880000001C06F2DDE01D02EDE14D0BD530EE04E
:10289000036A04011C51370FE96E000E0320EA6E33
:1028A0001AC4EFFF0001C06B1BDE01D01CDE02D09A
:1028B0001ADE00D087EF15F0BE91BDBFBE81BD9F6F
:1028C000BEA117D0CD6BBDC0CCF0CF6B080ECE6FC4
:1028D00078DD02C0C0F001C0BFF0040EBF27000EBB
:1028E000C023BFC0E9FF040EC025EA6E880EEF6E5C
:1028F0000DD0CD6BBDC0CCF0CF6B080ECE6F61DDBF
:1029000001C0E9FF040E0224EA6EEF6AFCEF14F046
:10291000BE91BDBFBE81BD9FBEA117D0CD6BBDC056
:10292000CCF0CF6B080ECE6F4CDD02C0C0F001C002
:10293000BFF0040EBF27000EC023BFC0E9FF040E86
:10294000C025EA6E840EEF6E0ED0CD6BBDC0CCF00C
:10295000CF6B080ECE6F35DD01C0E9FF040E0224F7
:10296000EA6E840EEF6E02EF15F0BE91BDBFBE8120
:10297000BD9FBEA117D0CD6BBDC0CCF0CF6B080EF4
:10298000CE6F1FDD02C0C1F001C0C0F0040EC02731
:10299000000EC123C0C0E9FF040EC125EA6EEFCFCF
:1029A000BFF00ED0CD6BBDC0CCF0CF6B080ECE6F9C
:1029B00008DD01C0E9FF040E0224EA6EEFCFBFF08C
:1029C000BFAF02D0BFB502D0000E01D0010E016E24
:1029D0000CEF15F01CC4C7F0D2DC015229E0040151
:1029E0001951010A000105E0020A09E0030A0DE09D
:1029F0001DD01CC4BDF060D7C06B72DD19D01CC4E3
:102A0000BDF086D7C06B6CDD13D00401586B596BD9
:102A10001CC4BDF00001A9D7015204E0010E04015D
:102A2000586F0001020EC06F5BDD02D05CDD00D08C
:102A300087EF15F0FE0E336E120004011C2D01D03D
:102A400002D01C5349E11951000A00010BE0010AB0
:102A50000DE0210A1CE0010A1FE0030A2EE0010A32
:102A600031E037D0010E8E6FE5DF35D0040EEA6E0F
:102A7000580EE96EE26A420EE16E080E016EE6CF74
:102A8000EEFF012EFCD71EC4C0F02ADD24D0020EBA
:102A90008E6F1B8CCFDF1FD0040EEA6E580EE96ECE
:102AA000E26A390EE16E070E016EE6CFEEFF012EEF
:102AB000FCD7070EC06F14DD0ED01AC48DF0C06BAA
:102AC0000FDD09D01AC441F01BC440F0C06B08DD13
:102AD00002D009DD00D00401000187EF15F02A6A59
:102AE000040118517F0B000A000107E0010A07E00A
:102AF000030A07E0230A07E008D044D608D095D699
:102B000006D068D704D099D702D0EDDC00D0ACEF66
:102B100017F0CD6BBEC0CCF0CF6B080ECE6F51DC82
:102B200001C0E9FF040E0224EA6EEFCFC0F0BF51EE
:102B3000020806E1C0AD02D0BF6B02D0010EBF6F2C
:102B4000BF51030819E1840EC06FCD6BBEC0CCF03D
:102B5000CF6B080ECE6F35DC02C0C4F001C0C3F0ED
:102B6000040EC327000EC423C3C0E9FF040EC4250E
:102B7000EA6E840EEF6E07D0BF2D03D0C80EC06F73
:102B800002D0880EC06FD890BE35036A95EC10F065
:102B90000900F5CF03F0C16F03C0C2F0CD6BBEC01A
:102BA000CCF0CF6B080ECE6F0CDC01C0C3F0010E71
:102BB0000124016E000E0220036E01C0E9FF040E25
:102BC0000324EA6EC1C0EFFFC2B1C081C2B3C083AB
:102BD000CD6BBEC0CCF0CF6B080ECE6FE1EC11F028
:102BE00001C0E9FF040E0224EA6EC0C0EFFF12002C
:102BF000036ACB51700FE96E0F0E0320EA6EEF529D
:102C000019E0CD6BCBC0CCF0CF6B080ECE6FE1ECF2
:102C100011F002C0CDF001C0CCF0040ECC27000EA4
:102C2000CD23CCC0E9FF040ECD25EA6EEFCFCEF068
:102C3000CEAF02D0000E01D0010E016E1200C6C050
:102C4000CBF0D6DF0152D8B47CD0CD6BC6C0CCF06F
:102C5000CF6B080ECE6FE1EC11F002C0CCF001C0DA
:102C6000CBF0040ECB27000ECC23010ECB25016E3A
:102C7000000ECC21036E01C0E9FF040E0324EA6EAE
:102C8000C7C0EFFFC95102081EE1CD6BC6C0CCF032
:102C9000CF6B080ECE6FE1EC11F002C0CCF001C09A
:102CA000CBF0040ECB27000ECC23CBC0E9FF040EE3
:102CB000CC25EA6EEFCFCAF0CAAD02D0C96B02D004
:102CC000010EC96F18D0C951040815E1CD6BC6C0FB
:102CD000CCF0CF6B080ECE6FE1EC11F001C0E9FF34
:102CE000040E0224EA6EEFCFCAF0CAAD03D0010E83
:102CF000C96F01D0C96BC92D03D0C80ECA6F02D0ED
:102D0000880ECA6FC8B1CA81C8B3CA83CD6BC6C0AA
:102D1000CCF0CF6B080ECE6FE1EC11F002C0CCF01E
:102D200001C0CBF0040ECB27000ECC23CBC0E9FFB3
:102D3000040ECC25EA6ECAC0EFFF010E016E03D06F
:102D400000D0000E016E12008E51010A03E0030A4A
:102D500013E024D0EA6A420EE96E040EE26E180E09
:102D6000E16E080E016EE6CFEEFF012EFCD7C06BC0
:102D700070EC12F08E6B14D0EA6A390EE96E040E14
:102D8000E26E180EE16E070E016EE6CFEEFF012E29
:102D9000FCD78E6BC06B70EC12F002D08E6B00D043
:102DA00006EF17F0CD6BBEC0CCF0CF6B080ECE6F28
:102DB000E1EC11F002C0C0F001C0BFF0010E01242F
:102DC000016E000E0220036E01C0E9FF040E032411
:102DD000EA6E036AEFCF01F003C002F0FCEF16F0D9
:102DE0008A91020EBE6FBF6F94DE01EF17F08A81E9
:102DF0008C6B020EBE6FD6D701C08BF08B5301E1F6
:102E0000EFD70BEF17F0BD5302E19ED704D0BD51B1
:102E1000020801E1ECD71200BEC06EFFBE5303E012
:102E2000040E326E02D0020E326E1CEF17F02B6AC7
:102E30002A6A34C0BEF0F0D78BEF17F0BEC0CBF0DB
:102E4000D7DE015246E0CD6BBEC0CCF0CF6B080E92
:102E5000CE6FE1EC11F002C0C7F001C0C6F0040E65
:102E6000C627000EC723020EC625016E000EC7211D
:102E7000036E01C0E9FF040E0324EA6EECCF03F0F9
:102E8000ED52EFCFC4F003C0C5F0C5C0EAFFC4C027
:102E9000E9FFC0C0E2FFBFC0E1FFC2C002F0C1C095
:102EA00001F0015202E0022A02D0025206E0E6CF0F
:102EB000EEFF012EFCD7022EFAD7BEC0C6F0C2C06C
:102EC000C8F0C1C0C7F0C3C0C9F0B9DE015003D01B
:102ED00000D0000E016E120089530EE0020EBE6F8C
:102EE000C06B4A0EBF6FC26B89C0C1F0020EC36FC8
:102EF000A5DF015201E0896B1200EEDF90EF17F0C1
:102F0000BD530AE12A2C03D075EC12F004D02A50EC
:102F1000020801E18CD704D0BD51020801E1EDD7D0
:102F200012003130BB6FBB33BB331F0EBB173152A6
:102F300042E1040100513C0B0001BC6F430E04014F
:102F400000170001BC5134081EE104010451800B3C
:102F500001E0046B0001C3D56D98333C05D0BE6B16
:102F6000030EBF6FD6DD0ED0BE6B020EBF6FD1DD7C
:102F70003350FE0807E0C66BC86B33C0C7F0040EC1
:102F8000C96F5DDE17D0BC51040814E1BD6B3BDF97
:102F9000BE6B020EBF6FBDDD3350FE080AE0333C4E
:102FA00001D007D0C66BC86B33C0C7F0010EC96F24
:102FB00046DE00D07BD03150040813E1430E0401FB
:102FC000041733680001BD6B9BDF333C01D008D090
:102FD000C66BC86B33C0C7F0020EC96F30DE00D0BD
:102FE00065D031B42CD0CD6BBBC0CCF0CF6B080E0C
:102FF000CE6FE1EC11F002C0BEF001C0BDF001C027
:1030000001F0040E0224036E01C0BFF0C06FCD6B4F
:10301000BBC0CCF0CF6B080ECE6FE1EC11F001C05D
:10302000E9FF040E0224EA6EEF50430BC0C0EAFF32
:10303000BFC0E9FFEF6EBBC0BDF0E5DE37D0CD6BA2
:10304000BBC0CCF0CF6B080ECE6FE1EC11F002C02C
:10305000BEF001C0BDF0040EBD27000EBE23BDC0F2
:1030600001F0040EBE25036EBDC0BFF0C06FCD6B76
:10307000BBC0CCF0CF6B080ECE6FE1EC11F002C0FC
:10308000C2F001C0C1F0040EC127000EC223C1C0AE
:10309000E9FF040EC225EA6EEF50430BC0C0EAFF01
:1030A000BFC0E9FFEF6EBBC0BDF02ADF8FEF18F0A5
:1030B000A19A325201E139D0685237E068A404D0B5
:1030C00069A402D09CEF11F06DA201D02ED068AAA5
:1030D00004D069AA02D0B4EF11F068A204D069A2AA
:1030E00002D0BBEF11F068A004D069A002D053EF6A
:1030F00012F068A804D069A802D068EF12F068AC9A
:1031000004D069AC02D06DEF12F0BA6B68A608D09B
:1031100069A606D06CCF31F051EC12F002D701D085
:1031200004D0BA51BA2B0308F1E236EF10F044652F
:1031300063696D616C2056616C75653A2025752058
:103140000D0A0000566F6C742056616C75653A204C
:103150002567200D0A004465677265652056616C1D
:1031600075653A202567200D0A0A00006D6A696AB4
:10317000080E6F6E94503009946E326A196AF2BE6E
:10318000198EF29E3DEC12F019BEF28EC9EF18F0C6
:10319000EDD7EFEF18F0196AF2BE198EF29E3DECF2
:1031A00012F019BEF28E6D6A140E6F6E696A6D862A
:1031B000010E326EDFEF18F06DB601D0ECD7322C75
:1031C0000BD06DBA09D0686A696AA08AC00EF21283
:1031D000110E696E020E326EF0EF18F0D9D7ECD7EF
:1031E00032500208FCE1FCEF18F02B5202E104001F
:1031F000FCD7FDEF18F0F2D7F8D717EF1EF0C0801C
:10320000C082C084C09EC280C150C00BC16E9835C0
:10321000006E0036FC0E0016C250C30B0010C26ECA
:10322000270E006E002EFED700D0C282C2B2FED79B
:10323000C4CF99F0C150C00B0F09C16E99C001F005
:103240001BEF1EF08E0E006E99C001F098C002F0C8
:10325000036A015209E102C001F0026A080E005E31
:10326000015202E1006A08D0D89001BE04D00236B3
:1032700001360006F9D7019E1200A551D8B471D0CD
:10328000006EA951D8B46DD0002604E3810E00264B
:1032900068E204D07F0E005E64E363E0A6C0ADF098
:1032A000AA51AD1BA68FAA8FA851AC03F4CFAFF0E3
:1032B000A751AB03F4CF03F0F3CFAEF0AC03F35060
:1032C000AF27F450AE23000E0322A851AB03F350F6
:1032D000AF27F450AE23000E026A03220222A65149
:1032E000AC03F350AE27F4500322000E0222A65185
:1032F000AB03F3500326F4500222000E016A0122B0
:10330000A851AA03F350AE27F4500322000E022264
:103310000122A751AA03F3500326F4500222000E03
:103320000122A651AA03F3500226F4500122002ADA
:1033300001BE05D0AE370336023601360006000E58
:10334000AEAF0AD0032A02220122015005E1025049
:1033500003E1035001E1002AADBF018EADAF019E34
:1033600004D0006A016A026A036A1200A451D8B448
:10337000A5D0B06FA851D8B4A1D0B05F05E37F0E3F
:10338000B027D8B09BD006D0810EB05FD8A096D021
:10339000D8B494D0B0C000F0016A026A036AAF6B7F
:1033A000A5C0AEF0AE8FA6C0ADF0A7C0ACF0190EB0
:1033B000B06FAB51AC5F0DE2010EAD5F0AE2AE5FE4
:1033C00008E2AF5F06E2AF2BAE2BAD2BAB51AC27C3
:1033D00028D0AA51AD5F12E2010EAE5F0FE2AF5FDF
:1033E0000DE2AF2BAE2BAA51AD27AB51AC2719E3A1
:1033F000AD2B17E1AE2B15E1AF2B13D0A9518009EE
:10340000AE5F0EE2010EAF5F0BE2AF2BA951800958
:10341000AE27AA51AD27E9E3AE2BE7E1AF2BE5D705
:103420000380B02F01D00BD0D890AC37AD37AE377A
:10343000AF37D890033602360136B137BAD7B1A1CB
:1034400006D0D890013202320332B13302D00006E6
:1034500035E0B1BF1ED0D890AC37AD37AE37AF37FF
:10346000AB51AC5F07E2010EAD5F04E2AE5F02E27A
:10347000AF5F1AE3AA51AD5F05E2010EAE5F02E253
:10348000AF5F12E3A9518009AE5F03E2010EAF5FA7
:103490000BE3032A09E1022A07E1012A05E1002AD8
:1034A0000DE0013202320332A5C0B0F0A951B01BC9
:1034B000B0AF02D0018E06D0019E04D0006A016A2E
:1034C000026A036A12009FC0A8F09EC0A7F09DC0C8
:1034D000A6F09CC0A5F0AC6BAB6B200EAA6F810E62
:1034E000A96FCBDE00C0A0F001C0A1F002C0A2F025
:1034F00003C0A3F003C0A7F002C0A6F001C0A5F06E
:1035000000C0A4F0AB6BAA6B7F0EA96F860EA86FEC
:103510002DDF03C09FF002C09EF001C09DF000C0EF
:103520009CF09CC000F09DC001F09EC002F09FC0C6
:1035300003F033EF1EF09FC0A8F09EC0A7F09DC01F
:10354000A6F09CC0A5F0AC6BAB6B200EAA6F810EF1
:10355000A96F93DEA86BA76B480EA66F850EA56FAB
:1035600003C0ACF002C0ABF001C0AAF000C0A9F0EB
:1035700084DE00C0A0F001C0A1F002C0A2F003C030
:10358000A3F003C0A7F002C0A6F001C0A5F000C0E0
:10359000A4F0AB6BAA6B7F0EA96F860EA86FE6DE58
:1035A00003C09FF002C09EF001C09DF000C09CF0DF
:1035B0009CC000F09DC001F09EC002F09FC003F0CF
:1035C00051EF1EF0A891F2BEA881F29E89513E08EB
:1035D00002E23E0E896F8951892B036A4A0FE96E18
:1035E000000E0320EA6EA7C0EFFFF29EA8B1F28E94
:1035F000FDEF1AF0A6C0A7F0E5D7196AF2BE198E42
:10360000F29E020ECB6FF8EC15F019BEF28E01524D
:1036100007E0196AF2BE198EF29E5EDC19BEF28EC8
:1036200019EF1BF089513E0801E2FCD7A5C0A6F0B6
:10363000E1D712000900F6CF99F0F7CF9AF0F5CF55
:10364000A5F0F0DF99C0F6FF9AC0F7FF982FF2D7E8
:1036500012009B51016A9A5D03E29AC000F00CD0FF
:10366000006A080E9C6F9A3700369B51005CD8B0F8
:10367000006E01369C2FF7D71200015098C09AF0C7
:10368000640E9B6FE6DF00C098F00150300E07E13A
:1036900099A30CD099B70AD099B9200E03D0999765
:1036A00099999981012601C0A5F0BCDF98C09AF0D4
:1036B0000A0E9B6FCEDF00C098F00150300E06E17D
:1036C00099B708D099A106D099B9200E012601C05A
:1036D000A5F0A8DF300E982798C0A5F0A3DF65EF0E
:1036E0001EF0800ED8B2AA1BAF6BB06BA6C0AEF0B6
:1036F000AA51AE1BA551D8B4DCD0AD6F006EA95154
:10370000D8B4E0D0AD5FD8B481D03DE3AAC0B3F067
:10371000B38FABC0B2F0ACC0B1F0B06BD890B333E4
:10372000B233B133B033AD2FF8D7AEAF03D0AF81E2
:10373000DDD0AF91AD91AF89EA6AA80EE96EE9D00C
:10374000AF99AEBF0AD0ADA113D0B333B233B1330A
:10375000B033002AD8B4C5D00BD0B3BF0CD0D890AA
:10376000B037B137B237B3370006D8B4BAD0F5D7CF
:10377000AF8D6BD0AF9DA6C0AEF0A6AF02D0B38F19
:10378000A9D0B39FA7D0A9C0ADF0A9C000F0A551A2
:10379000AD5FA6C0B3F0B38FA7C0B2F0A8C0B1F0C0
:1037A000B06BD890B333B233B133B033AD2FF8D759
:1037B000AEAF03D0AF839AD0AF93AD91AF8BEA6A2F
:1037C000AC0EE96EA6D0AF9BAEBF0AD0ADA113D0B0
:1037D000B333B233B133B033002AD8B482D00BD074
:1037E000B3BF0CD0D890B037B137B237B33700067B
:1037F000D8B477D0F5D7AF8F28D0AF9FAAC0AEF09E
:10380000AAAF02D0B38F66D0B39F64D0AAC0B3F082
:10381000B38FABC0B2F0ACC0B1F0AEAF04D0B39FC9
:10382000AF8564D0AF95B06BAD91EA6AA80EE96E32
:1038300070D0AEBF1CD0A6C0AEF0ADA106D0B333E1
:10384000B233B133B033002A4CE0B0AF0BD0B12B60
:1038500009E1B22B07E1B32B05E1B333B233B13346
:10386000002A3FE0AFBD86D7AFBFC7D71CD0800EC0
:10387000B31BB3AF04D03AD0AAC0AEF00AD0A6C0F2
:10388000AEF0B35306E1B25304E1B15302E1006A72
:1038900021D0B3BF08D0D890B037B137B237B337E3
:1038A000002EF7D71ED0AEAF02D0B38F13D0B39F88
:1038B00011D0A9C000F0AAC0B3F0ABC0B2F0ACC048
:1038C000B1F008D0A5C000F0A6C0B3F0A7C0B2F018
:1038D000A8C0B1F0B3C001F0B2C002F0B1C003F0B3
:1038E00034D0006A016A026A036A2FD0B06BB11F3C
:1038F000B21FB31FB01FB02B05E1B12B03E1B22BF8
:1039000001E1B32BAFB115D7AFB356D7AFB58AD757
:10391000B3D7EF50B12705E3B22B03E1B32BD8B4F3
:10392000AD81ED52EF50B22703E3B32BD8B4AD8194
:10393000ED52EF50EFBE01D0800AB327D8B0AD8171
:10394000AFB9FED6AFBB3FD774D744EF1DF0A5513A
:10395000B608A56F036AA6C0A9F0A68FD890A633B3
:10396000A733A8330332023201320032A52FF6D733
:10397000A9AF0BD0001E011E021E031E002AD8B4E0
:10398000012AD8B4022AD8B4032A55EF1DF0D8B2C0
:1039900003D0EA6AAD0EE96E006A016A026A036A40
:1039A000AD6BAE6BAF6BB06BAC51AB11AA11A91183
:1039B0002CE0200EB16FD890A537A637A737A837CF
:1039C000AD37AE37AF37B037AC51B05D08E1AB5172
:1039D000AF5D05E1AA51AE5D02E1A951AD5D0FE316
:1039E000A951AD5FAA51D8A0AA3DAE5FAB51D8A0F6
:1039F000AB3DAF5FAC51D8A0AC3DB05FD8800036D6
:103A0000013602360336B12FD6D7ADC0EFFFAEC0B8
:103A1000ECFFAFC0ECFFB0C0ECFF1200E9509D6FAF
:103A20009C519F6F19E09BC0A8F09AC0A7F099C065
:103A3000A6F098C0A5F0AC6BAB6B200EAA6F820EFF
:103A4000A96F1BDC03C09BF002C09AF001C099F083
:103A500000C098F09F2FE7D77E0E006E016A99BFD5
:103A6000018E026A036AD8929BC0A8F09AC0A7F0A0
:103A700099C0A6F098C0A5F003C0ACF002C0ABF0AE
:103A800001C0AAF0A96F2DD603C09BF002C09AF026
:103A900001C099F000C098F09BC0A8F09AC0A7F0B0
:103AA00099C0A6F098C0A5F052D703C09BF002C001
:103AB0009AF001C099F000C098F09BAF0DD09D071F
:103AC0009D8B981F991F9A1F9B1F982BD8B4992BD9
:103AD000D8B49A2BD8B49B2B3B0EA46F9A0EA36F2D
:103AE000CA0EA26FA16B0A0E9F6F9C51D8B49D2B7A
:103AF000D882EA6A980EE96E9BC0A8F09AC0A7F037
:103B000099C0A6F098C0A5F0A4C0ACF0A3C0ABF0DB
:103B1000A2C0AAF0A1C0A9F03ADF015000520FE103
:103B20009C299F5D0CE09D510CE00F0B9F5D01E017
:103B300037E29DBF35D09DBD04D0200E2DD0200E84
:103B40009D179DAB0CD09D9B9C51D8A49D07005008
:103B50009D6F2D0EA56F66DD9D51006E9D6B9C5176
:103B60009F5D0AE100509D6F2E0EA56F5BDD9D519C
:103B7000006E200E9D17000E300E9DAB0DD09D9B4C
:103B80009C51D8A49D0700509D6F2D0EA56F4ADD56
:103B90009D51006E9D6B300E002600C0A5F042DDE9
:103BA000D892A4C0A8F0A3C0A7F0A2C0A6F0A1C05C
:103BB000A5F0AC6BAB6BAA6B0A0EA96FE8DE03C075
:103BC000A4F002C0A3F001C0A2F000C0A1F09F2F9A
:103BD0008FD71200EA6A990EE96EEF500EE00F0ED1
:103BE000016E006A002EFED7012EFBD78F0E006EED
:103BF000002EFED70000EF2EF2D7ABEF1EF0F86AD2
:103C0000D09E078EEA6AE96A1B981B9A010E296EFC
:103C1000326A366AC150C00B0F09C16E070EB46E0E
:103C20002E6A040E2F6E0C0E306EFBEF18F0010E94
:103C3000986FFFEF18F001C08FF0996B8FC098F06C
:103C400022EC19F000C098F001C099F002C09AF07F
:103C500003C09BF003C09FF002C09EF001C09DF026
:103C600000C09CF030D403C093F002C092F001C0B9
:103C700091F000C090F0996B8FC098F022EC19F091
:103C800000C098F001C099F002C09AF003C09BF008
:103C900003C09FF002C09EF001C09DF000C09CF0E8
:103CA0004AD403C097F002C096F001C095F000C05E
:103CB00094F02E0EF66E310EF76E0F0E986FBADC82
:103CC0008FC098F01B0E996FD8D4200EA56FAADC78
:103CD0000D0EA56FA7DC0A0EA56FA4DC440EF66ED0
:103CE000310EF76E0C0E986FA5DC890EE96E93C04D
:103CF0009BF092C09AF091C099F090C098F0020E9B
:103D00009C6F8CDE200EA56F8DDC0D0EA56F8ADCFE
:103D10000A0EA56F87DC560EF66E310EF76E0E0E8C
:103D2000986F88DC890EE96E97C09BF096C09AF078
:103D300095C099F094C098F0020E9C6F6FDE660EED
:103D4000F66E310EF76E040E986F74DC040E986FE9
:0E3D5000FA0E996F3FD7982FFBD769D7030063
:020000040030CA
:0E00000024CE3E1E0085A1000FC00FE00F4071
:00000001FF
;PIC18F4550
;CRC=6EB4  CREATED="22-sep-15 12:51"
