:042000009BEF18F04A
:08200800046ED8CF05F0E0CF13
:1020100006F00001E9CF0CF0EACF07F0E1CF08F0BD
:10202000E2CF09F0D9CF0AF0DACF0BF0F3CF12F0FC
:10203000F4CF13F0FACF14F0F5CF15F0F6CF16F079
:10204000F7CF17F000C00EF001C00FF002C010F083
:1020500003C011F09DAA30EF10F09EBA46EF18F0C1
:10206000A0AA36EF10F0A1BAD5EF17F00EC000F01D
:102070000FC001F010C002F011C003F00CC0E9FF66
:1020800007C0EAFF078E08C0E1FF09C0E2FF0AC0EF
:10209000D9FF0BC0DAFF12C0F3FF13C0F4FF14C066
:1020A000FAFF15C0F5FF16C0F6FF17C0F7FF045082
:1020B00006C0E0FF05C0D8FF1000F76ACA0FF66E31
:1020C000200EF7220900F5501200000302FFFFFF67
:1020D000FFFFFFFFFFFFFFFFFFFFF76AEA0FF66E4C
:1020E000200EF7220900F550120000FF02FFFFFF4B
:1020F000FFFFFFFFFFFFFFFFFFFFF76A0A0FF66E0C
:10210000210EF7220900F55012004000080040009F
:1021100000000000000000000000000000000000BF
:1021200000000000000000000000F76A3A0FF66EA1
:10213000210EF7220900F550120040000000400077
:10214000000000000000000000000000000000008F
:1021500000000000000000000000F76A6A0FF66E41
:10216000210EF7220900F550120009024300020176
:102170000080320904000001020201000524001061
:1021800001042402020524060001052401000107C0
:102190000581030800FA09040100020A0000000793
:1021A0000502024000010705820240000100F76AB3
:1021B000BE0FF66E210EF7220900F5501200020044
:1021C000F76AD00FF66E210EF7220900F5501200C3
:1021D00012171B20FFFFFFFFF76AE80FF66E210EB4
:1021E000F7220900F5501200120110010200004010
:1021F000D8040200000101020001F76A0A0FF66E1E
:10220000220EF7220900F5501200040309040C0302
:1022100047002D00500069004300180347002D00BF
:1022200050006900430020004C0069007400650004
:1022300021006D92699468A402D06894FCD7E1EF04
:1022400017F0400E0401016F040E036F180E026FA9
:10225000880E006F046B040E076F580E066F0001A6
:10226000120070A002D0EDDF7090689AEAEF17F0CC
:102270006A6A6892F0EF17F0949193BF9481939FEC
:102280009351100803E2000E016E17D094A10BD0F9
:10229000036A935112DFFF0802E1000E01D0010E24
:1022A000016E0BD00AD0036A935117DFFF0802E1D9
:1022B000000E01D0010E016E00D0120098519A0359
:1022C000F3CF01F0F4CF00F09B03F35000269951B7
:1022D0009A03F3500020026E1200036A9251700FAD
:1022E000E96E0F0E0320EA6EEF6A92C093F0C4DF2E
:1022F000015222E0996B92C098F09B6B080E9A6F86
:10230000DDDF01C0E9FF040E0224EA6EEF6A996B7B
:1023100092C098F09B6B080E9A6FD0DF02C094F0C9
:1023200001C093F0040E9327000E942393C0E9FF9D
:10233000040E9425EA6EEF6A1200010E916F91511E
:102340000F0805E391C092F0C8DF912BF8D7120077
:102350002D6A2C6A250E2B6E800E2A6E2E6A2F6A2D
:10236000080E306E7F6B7E91326A316A7A6B7B9198
:102370001200876B875101080AE3036A8751280F0F
:10238000E96E000E0320EA6EEF6A872BF3D7E0DFD9
:102390001B6A010E1C6E1A6A1200689612006A6AA5
:1023A000686A9F0E6B6E3D0E696E6E6AC6DFE1DF76
:1023B000160E706E68A602D0F0DFFCD76D9841DF74
:1023C000030E226EF6EF17F0698468986D82FCEFB9
:1023D00017F0689C02EF18F08CC023F012002368FD
:1023E00012008A6B275226E08A513F0823E31D50D2
:1023F00005E0020A08E0010A0BE00FD0036A26504C
:10240000ACDE8B6F0AD0036A2650F7DE8B6F05D0E7
:10241000036A2650E1DE8B6F00D0262A27068A51F8
:102420008A2B580FE96E040EEA6ED8B0EA2A8BC0E8
:10243000EFFFD8D7275204E18A51400801E01A6A19
:102440008AC08CF0C9DF1200266A1D6A04011B5184
:10245000010A000107E0030A0AE0010A0BE0220A70
:102460001BE02BD0120E276E030E1D6E28D0430EDC
:10247000276E25D0020E1D6E036A04011A511E0F2D
:10248000E96E000E0320EA6EEFCF26F0036A2650B5
:102490000001B3DE276E13D0036A04011A51000154
:1024A0008FDE266E263C01D006D0036A265055DE0C
:1024B000276E05D002D093DF0ED091DF0CD004013F
:1024C0001F5305E127501E5D02E21EC427F0010ED6
:1024D0001A6E000186DF8FEF13F0895304E1040EBA
:1024E000226E2BDFC9D0050E226E040E8C6F980E63
:1024F0008B6F010E8A6F8A510F08D8A0BDD08AC099
:1025000092F0EBDE8D6B036A8A51E7DDFF0859E03C
:10251000040E8D6FD8908A35036A07DE0900F5CF67
:1025200003F08E6F03C08FF0996B8AC098F09B6B9D
:10253000080E9A6FC3DE01C091F0010E0124016EF6
:10254000000E0220036E01C0E9FF040E0324EA6EB0
:102550008EC0EFFF996B8AC098F09B6B080E9A6F44
:10256000ADDE01C091F0020E0124016E000E0220CA
:10257000036E01C0E9FF040E0324EA6E8CC0ECFF79
:10258000ED528BC0EFFFD8908A35036ACEDD09008B
:10259000F5CF03F08B2703508C23880E906F8FB1FB
:1025A00090818FB39083996B8AC098F09B6B080ED3
:1025B0009A6F84DE01C0E9FF040E0224EA6E90C027
:1025C000EFFF036A8A5179DDFF0840E08D83996B44
:1025D0008AC098F09B6B080E9A6F70DE02C092F072
:1025E00001C091F0040E9127000E9223020E912556
:1025F000016E000E9221036E01C0E9FF040E032458
:10260000EA6E8CC0ECFFED528BC0EFFFD8908A359C
:10261000036A73DD0900F5CF03F08B2703508C2389
:10262000996B8AC098F09B6B080E9A6F47DE02C0C8
:1026300092F001C091F0040E9127000E922391C0F8
:10264000E9FF040E9225EA6E400EEF6E8D510608EA
:1026500002E10E0E8D6F036A8A512FDD0108D8A4A6
:102660008D89036A8A51700FE96E0F0E0320EA6E9E
:102670008DC0EFFF8A2B3FD789EF13F0040119516A
:10268000000A00010DE0010A14E0020A1EE0060A39
:1026900027E0030A2CE00E0A2CE0010A30E03DD0CE
:1026A0001CC058F40401596B020E00018C6F94DEBB
:1026B00036D004011A2D06D0010E1C1600018C6BB9
:1026C0008BDE02D000018BDE2AD004011A2D05D04A
:1026D0001C8200018C6B80DE02D0000180DE1FD0E6
:1026E000020E1A6E1AC424F08C6B76DE18D0ACD6AB
:1026F00016D01BC058F4010E8C6F6EDE10D0040192
:102700001A51010808E31AC41BF01AC489F0000129
:10271000E4D68C6B61DE000102D061DE00D003EFF5
:1027200015F01BC089F004011951000A000105E0F1
:102730000A0A0BE0010A26E037D00401586B596BF6
:10274000020E00018C6F48DE31D0895319E0010E72
:10275000895D036A2CDD016E04011C5DD8A002D0E6
:1027600000010ED0036A1C51280FE96E000E0320F1
:10277000EA6EEFCF58F4010E00018C6F2DDE01D010
:102780002EDE14D089530EE0036A04011C51280F79
:10279000E96E000E0320EA6E1AC4EFFF00018C6B95
:1027A0001BDE01D01CDE02D01ADE00D003EF15F0D4
:1027B0008A9189BF8A81899F8AA117D0996B89C024
:1027C00098F09B6B080E9A6F79DD02C08CF001C007
:1027D0008BF0040E8B27000E8C238BC0E9FF040EB8
:1027E0008C25EA6E880EEF6E0DD0996B89C098F03B
:1027F0009B6B080E9A6F62DD01C0E9FF040E022494
:10280000EA6EEF6A78EF14F08A9189BF8A81899F16
:102810008AA117D0996B89C098F09B6B080E9A6FAC
:102820004DDD02C08CF001C08BF0040E8B27000E32
:102830008C238BC0E9FF040E8C25EA6E840EEF6EAC
:102840000ED0996B89C098F09B6B080E9A6F36DD9D
:1028500001C0E9FF040E0224EA6E840EEF6E7EEFE3
:1028600014F08A9189BF8A81899F8AA117D0996BB8
:1028700089C098F09B6B080E9A6F20DD02C08DF026
:1028800001C08CF0040E8C27000E8D238CC0E9FF54
:10289000040E8D25EA6EEFCF8BF00ED0996B89C0B8
:1028A00098F09B6B080E9A6F09DD01C0E9FF040EDA
:1028B0000224EA6EEFCF8BF08BAF02D08BB502D043
:1028C000000E01D0010E016E88EF14F01CC493F0CD
:1028D000D3DC015229E004011951010A000105E08D
:1028E000020A09E0030A0DE01DD01CC489F060D77C
:1028F0008C6B72DD19D01CC489F086D78C6B6CDDB3
:1029000013D00401586B596B1CC489F00001A9D77E
:10291000015204E0010E0401586F0001020E8C6F99
:102920005BDD02D05CDD00D003EF15F0FE0E236E00
:10293000120004011C2D01D002D01C5349E1195191
:10294000000A00010BE0010A0DE0210A1CE0010A67
:102950001FE0030A2EE0010A31E037D0010E816F3B
:10296000E5DF35D0040EEA6E580EE96EE26A330EEA
:10297000E16E080E016EE6CFEEFF012EFCD71EC4FD
:102980008CF02ADD24D0020E816F7E81CFDF1FD034
:10299000040EEA6E580EE96EE26A2A0EE16E070E28
:1029A000016EE6CFEEFF012EFCD7070E8C6F14DD13
:1029B0000ED01AC47FF08C6B0FDD09D01AC432F030
:1029C0001BC431F08C6B08DD02D009DD00D004019E
:1029D000000103EF15F01A6A040118517F0B000A79
:1029E000000107E0010A07E0030A07E0230A07E005
:1029F00008D044D608D095D606D068D704D099D749
:102A000002D0EDDC00D029EF17F0996B8AC098F066
:102A10009B6B080E9A6F52DC01C0E9FF040E022482
:102A2000EA6EEFCF8CF08B51020806E18CAD02D03C
:102A30008B6B02D0010E8B6F8B51030819E1840E52
:102A40008C6F996B8AC098F09B6B080E9A6F36DC7E
:102A500002C090F001C08FF0040E8F27000E90236B
:102A60008FC0E9FF040E9025EA6E840EEF6E07D04A
:102A70008B2D03D0C80E8C6F02D0880E8C6FD8902F
:102A80008A35036A95EC10F00900F5CF03F08D6FDD
:102A900003C08EF0996B8AC098F09B6B080E9A6FFA
:102AA0000DDC01C08FF0010E0124016E000E02202A
:102AB000036E01C0E9FF040E0324EA6E8DC0EFFF30
:102AC0008EB18C818EB38C83996B8AC098F09B6B8E
:102AD000080E9A6F5EEC11F001C0E9FF040E0224AB
:102AE000EA6E8CC0EFFF1200036A9751700FE96E17
:102AF0000F0E0320EA6EEF5219E0996B97C098F021
:102B00009B6B080E9A6F5EEC11F002C099F001C049
:102B100098F0040E9827000E992398C0E9FF040E40
:102B20009925EA6EEFCF9AF09AAF02D0000E01D04D
:102B3000010E016E120092C097F0D6DF0152D8B498
:102B40007CD0996B92C098F09B6B080E9A6F5EECEC
:102B500011F002C098F001C097F0040E9727000E04
:102B60009823010E9725016E000E9821036E01C077
:102B7000E9FF040E0324EA6E93C0EFFF95510208AB
:102B80001EE1996B92C098F09B6B080E9A6F5EECF9
:102B900011F002C098F001C097F0040E9727000EC4
:102BA000982397C0E9FF040E9825EA6EEFCF96F0C0
:102BB00096AD02D0956B02D0010E956F18D095514D
:102BC000040815E1996B92C098F09B6B080E9A6F00
:102BD0005EEC11F001C0E9FF040E0224EA6EEFCFB3
:102BE00096F096AD03D0010E956F01D0956B952DA3
:102BF00003D0C80E966F02D0880E966F94B196815E
:102C000094B39683996B92C098F09B6B080E9A6F61
:102C10005EEC11F002C098F001C097F0040E972707
:102C2000000E982397C0E9FF040E9825EA6E96C01F
:102C3000EFFF010E016E03D000D0000E016E1200F6
:102C40008151010A03E0030A13E024D0EA6A330E3B
:102C5000E96E040EE26E180EE16E080E016EE6CF0C
:102C6000EEFF012EFCD78C6BECEC11F0816B14D0D5
:102C7000EA6A2A0EE96E040EE26E180EE16E070E85
:102C8000016EE6CFEEFF012EFCD7816B8C6BECEC76
:102C900011F002D0816B00D082EF16F0996B8AC0E0
:102CA00098F09B6B080E9A6F5EEC11F002C08CF0EE
:102CB00001C08BF0010E0124016E000E0220036E94
:102CC00001C0E9FF040E0324EA6E036AEFCF01F0AE
:102CD00003C002F078EF16F07B91020E8A6F8B6FC3
:102CE00094DE7DEF16F07B817D6B020E8A6FD6D766
:102CF00001C07CF07C5301E1EFD787EF16F08953D8
:102D000002E19ED704D08951020801E1ECD71200FC
:102D10008AC06EFF8A5303E0040E226E02D0020EB8
:102D2000226E98EF16F01B6A1A6A24C08AF0F0D758
:102D300008EF17F08AC097F0D7DE015246E0996B92
:102D40008AC098F09B6B080E9A6F5EEC11F002C07F
:102D500093F001C092F0040E9227000E9323020E0E
:102D60009225016E000E9321036E01C0E9FF040E4F
:102D70000324EA6EECCF03F0ED52EFCF90F003C0E6
:102D800091F091C0EAFF90C0E9FF8CC0E2FF8BC0D8
:102D9000E1FF8EC002F08DC001F0015202E0022A74
:102DA00002D0025206E0E6CFEEFF012EFCD7022E43
:102DB000FAD78AC092F08EC094F08DC093F08FC085
:102DC00095F0B9DE015003D000D0000E016EF4EF93
:102DD00016F0020E8A6F8C6B3B0E8B6F8E6B7AC077
:102DE0008DF0020E8F6FA6D77AC080F07A6B12003A
:102DF0007A5301E0EEDF0DEF17F089530AE11A2C48
:102E000003D0F1EC11F004D01A50020801E18BD785
:102E100004D08951020801E1EBD712002130876FFD
:102E2000873387331F0E8717215242E10401005177
:102E30003C0B0001886F430E04010017000188510C
:102E400034081EE104010451800B01E0046B000111
:102E5000C2D56D98233C05D08A6B030E8B6FD5DDF0
:102E60000ED08A6B020E8B6FD0DD2350FE0807E078
:102E7000926B946B23C093F0040E956F5CDE17D0B9
:102E80008851040814E1896B3ADF8A6B020E8B6F5C
:102E9000BCDD2350FE080AE0233C01D007D0926B32
:102EA000946B23C093F0010E956F45DE00D07BD06C
:102EB0002150040813E1430E0401041723680001A4
:102EC000896B9BDF233C01D008D0926B946B23C0AD
:102ED00093F0020E956F2FDE00D065D021B42CD078
:102EE000996B87C098F09B6B080E9A6F5EEC11F09F
:102EF00002C08AF001C089F001C001F0040E022472
:102F0000036E01C08BF08C6F996B87C098F09B6B40
:102F1000080E9A6F5EEC11F001C0E9FF040E022466
:102F2000EA6EEF50430B8CC0EAFF8BC0E9FFEF6EF7
:102F300087C089F0E4DE37D0996B87C098F09B6B2F
:102F4000080E9A6F5EEC11F002C08AF001C089F0A1
:102F5000040E8927000E8A2389C001F0040E8A25F9
:102F6000036E89C08BF08C6F996B87C098F09B6B58
:102F7000080E9A6F5EEC11F002C08EF001C08DF069
:102F8000040E8D27000E8E238DC0E9FF040E8E25C2
:102F9000EA6EEF50430B8CC0EAFF8BC0E9FFEF6E87
:102FA00087C089F02ADF0CEF18F0A19A225201E1C4
:102FB00039D0685237E068A404D069A402D019EF70
:102FC00011F06DA201D02ED068AA04D069AA02D057
:102FD00031EF11F068A204D069A202D038EF11F0ED
:102FE00068A004D069A002D0CFEF11F068A804D087
:102FF00069A802D0E4EF11F068AC04D069AC02D04B
:10300000E9EF11F0866B68A608D069A606D06CCFF0
:1030100021F0CDEC11F002D701D004D08651862BDF
:103020000308F1E236EF10F08991F2BE8981F29E39
:103030007A513E0802E23E0E7A6F7A517A2B036A89
:103040003B0FE96E000E0320EA6E88C0EFFFF29E90
:1030500089B1F28E2FEF18F087C088F0E5D7020E05
:10306000976F42DD015201E0B4DE44EF18F07A516F
:103070003E0807E2020E976F37DD015201E0A9DE3C
:10308000F6D786C087F0E8D74FEF18F09EAAFED794
:10309000AECF82F0825303E082C086F0E8D79E9ADA
:1030A00036EF10F06D6A696A080E6F6E9450300941
:1030B000946E226A196AF2BE198EF29EB9EC11F072
:1030C00019BEF28E65EF18F0EDD78BEF18F0196A84
:1030D000F2BE198EF29EB9EC11F019BEF28E6D6A35
:1030E000140E6F6E696A6D86010E226E7BEF18F00A
:1030F0006DB601D0ECD7222C0BD06DBA09D0686A1E
:10310000696AA08AC00EF212110E696E020E226E5A
:103110008CEF18F0D9D7ECD722500208FCE198EFD9
:1031200018F01B5202E10400FCD799EF18F0F2D717
:10313000F8D7BCEF18F0F86AD09E078EEA6AE96A01
:10314000226A276A7A6B816BB886E10EAF6E040E35
:10315000B06EA60EAC6E900EAB6EC150C00B0F09D8
:10316000C16E070EB46E1E6A040E1F6E0C0E206E2A
:0C317000C00EF2129D8ADBD7FFD70300CF
:020000040030CA
:0E00000024CE3E1E0085A1000FC00FE00F4071
:00000001FF
;PIC18F4550
;CRC=8571  CREATED="11-jun-13 12:52"
