:0420000019EF10F0D4
:08200800EA6A080EE96EEF50D0
:102010000EE00F0E016E006A002EFED7012EFBD7D8
:102020008F0E006E002EFED70000EF2EF2D745EF88
:1020300010F0F86AD09EEA6AE96AC150C00B0F0935
:10204000C16E070EB46E056A076A066AC150C00BFE
:102050000E09C16EC080C082C084C09EC280C69A74
:10206000949E93809392210EC66E000EC76E016EF1
:10207000C250C30B0110C26E000E016EC250C30BE2
:102080000110C26EC80E086EBFD7C282C2B2FED7A0
:10209000C450076A066EC95006C0C9FFC730FEE3C8
:0420A000EBD7030077
:020000040030CA
:0E00000024CE3E1E0085A1000FC00FE00F4071
:00000001FF
;PIC18F4550
;CRC=C2E7  CREATED="22-sep-15 12:48"
