:0420000020EF11F0CC
:08200800F76A180FF66E200EB6
:10201000F7220900F55012004423302A433938379B
:1020200042363534413332312FEF11F0096A042A38
:102030000450210851E20750FC0F13E2040F72EF25
:1020400010F0FE0E936E816E0CD0FD0E936E816EBD
:1020500008D0FB0E936E816E04D0F70E936E816EE6
:1020600000D005A009D08150F00BF00804E10590E4
:1020700006C009F0066A2FD08150F00BF00826E068
:102080008150100B02E10A6A11D08150200B03E14C
:10209000010E0A6E0BD08150400B03E1020E0A6E56
:1020A00005D08150800B02E1030E0A6E0A50040D28
:1020B000F3500C6A0B6E036A07500B24016E0C5030
:1020C00003220150A1DF066E058005D0072A0750C4
:1020D000040801E1076A046AFF0E936E09C001F06B
:1020E00031EF11F0E824F76AF736FF0FF66E200E95
:1020F000F7220A00F550FA6E0800F550F96E4220FA
:102100004A2052205A20080E016E110E006E002E39
:10211000FED78B9E949E110E006E002EFED70936C0
:102120008B9CD8B0948CD8A0949C948E82AEFED711
:10213000012EEBD7110E006E002EFED78B9E949EC3
:102140000000948C110E006E002EFED7110E006E52
:10215000002EFED7948E82AEFED7016A110E006E5D
:10216000002EFED782BC01808B9E949E8B9C949CFB
:102170001200948C110E006E002EFED7948E110E5C
:10218000006E002EFED78B9C949C110E006E002ECC
:10219000FED78B9E949EA00E096EB5DF08C009F095
:1021A000B2DF949C0000948E82AEFED7110E006EBA
:1021B000002EFED700D00000948C110E006E002E71
:1021C000FED7948C110E006E002EFED7948E110E49
:1021D000006E002EFED78B9C949C110E006E002E7C
:1021E000FED78B9E949EA20E096E8DDF08C009F06B
:1021F0008ADF949C0000948E82AEFED7110E006E92
:10220000002EFED700D00000948C110E006E002E20
:10221000FED736EF11F0EA6A090EE96EEF500EE0D4
:102220000F0E016E006A002EFED7012EFBD78F0E17
:10223000006E002EFED70000EF2EF2D739EF11F01E
:10224000F86AD09EEA6AE96AC150C00B0F09C16EF4
:10225000070EB46E046A0590066A076AE5D6F19E19
:10226000E5D601C008F0085204E083D7640E096E79
:06227000D2D7F6D70300EF
:020000040030CA
:0E00000024CE3E1E0085A1000FC00FE00F4071
:00000001FF
;PIC18F4550
;CRC=4870  CREATED="22-sep-15 12:47"
