:0420000071EF10F07C
:08200800046ED8CF05F0E0CF13
:1020100006F00001E9CF0CF0EACF07F0E1CF08F0BD
:10202000E2CF09F0D9CF0AF0DACF0BF0F3CF12F0FC
:10203000F4CF13F0FACF14F0F5CF15F0F6CF16F079
:10204000F7CF17F000C00EF001C00FF002C010F083
:1020500003C011F09DA230EF10F09EB257EF10F0C8
:102060000EC000F00FC001F010C002F011C003F06C
:102070000CC0E9FF07C0EAFF078E08C0E1FF09C0F6
:10208000E2FF0AC0D9FF0BC0DAFF12C0F3FF13C092
:10209000F4FF14C0FAFF15C0F5FF16C0F6FF17C015
:1020A000F7FF045006C0E0FF05C0D8FF1000192A52
:1020B000D8B41A2A1A501E5C07E303E119501D5CBC
:1020C00003E38998929802D0898892981B50195CF2
:1020D00005E11C501A5C02E11A6A196A9E9230EFFF
:1020E00010F0F86AD09E078EEA6AE96A1A6A196ADD
:1020F0001C6A1B6A1E6A1D6AC150C00B0F09C16EA3
:10210000070EB46EC150C00B0F09C16EC2909698F5
:10211000C66A880ED56ECD6A780E0609CA6E130E91
:10212000CB6E070EB46E9250926E100E006E002EA3
:10213000FED70000B450A19CB56A9D82C00EF21279
:102140001C6A0A0E1B6E1E6A050E1D6E030E1C6EA7
:10215000E80E1B6E010E1E6E2C0E1D6EF1D70300D5
:020000040030CA
:0E00000024CE3E1E0085A1000FC00FE00F4071
:00000001FF
;PIC18F4550
;CRC=D721  CREATED="12-nov-13 13:19"
