:0420000067EF19F07D
:08200800046ED8CF05F0E0CF13
:1020100006F00001E9CF0CF0EACF07F0E1CF08F0BD
:10202000E2CF09F0D9CF0AF0DACF0BF0F3CF12F0FC
:10203000F4CF13F0FACF14F0F5CF15F0F6CF16F079
:10204000F7CF17F000C00EF001C00FF002C010F083
:1020500003C011F0A0AA30EF10F0A1BAD4EF17F02E
:102060000EC000F00FC001F010C002F011C003F06C
:102070000CC0E9FF07C0EAFF078E08C0E1FF09C0F6
:10208000E2FF0AC0D9FF0BC0DAFF12C0F3FF13C092
:10209000F4FF14C0FAFF15C0F5FF16C0F6FF17C015
:1020A000F7FF045006C0E0FF05C0D8FF1000F76A34
:1020B000BE0FF66E200EF7220900F5501200000345
:1020C00002FFFFFFFFFFFFFFFFFFFFFFFFFFF76ABA
:1020D000DE0FF66E200EF7220900F550120000FF09
:1020E00002FFFFFFFFFFFFFFFFFFFFFFFFFFF76A9A
:1020F000FE0FF66E200EF7220900F5501200400088
:102100000800400000000000000000000000000087
:102110000000000000000000000000000000F76A5E
:102120002E0FF66E210EF7220900F5501200400026
:10213000000040000000000000000000000000005F
:102140000000000000000000000000000000F76A2E
:102150005E0FF66E210EF7220900F55012000902FB
:102160004300020100803209040000010202010064
:1021700005240010010424020205240600010524A0
:10218000010001070581030800FA09040100020AA1
:10219000000000070502024000010705820240001E
:1021A0000100F76AB20FF66E210EF7220900F55012
:1021B00012000200F76AC40FF66E210EF722090022
:1021C000F550120012171B20FFFFFFFFF76ADC0F0C
:1021D000F66E210EF7220900F550120012011001CF
:1021E00002000040D8040200000101020001F76A69
:1021F000FE0FF66E210EF7220900F55012000403BF
:1022000009040C03500049004E00470055004900E6
:102210004E004F001803500049004E004700550083
:1022200049004E004F0020004A0041004300530087
:1022300053006D92699468A402D06894FCD7E0EFD3
:1022400017F0400E0401016F040E036F180E026FA9
:10225000880E006F046B040E076F580E066F0001A6
:10226000120070A002D0EDDF7090689AE9EF17F0CD
:102270006A6A6892EFEF17F0B091AFBFB081AF9F7D
:10228000AF51100803E2000E016E17D0B0A10BD0C1
:10229000036AAF510CDFFF0802E1000E01D0010E0E
:1022A000016E0BD00AD0036AAF5111DFFF0802E1C3
:1022B000000E01D0010E016E00D01200B451B60321
:1022C000F3CF01F0F4CF00F0B703F3500026B5517F
:1022D000B603F3500020026E1200036AAE51700F75
:1022E000E96E0F0E0320EA6EEF6AAEC0AFF0C4DFF6
:1022F000015222E0B56BAEC0B4F0B76B080EB66FFA
:10230000DDDF01C0E9FF040E0224EA6EEF6AB56B5F
:10231000AEC0B4F0B76B080EB66FD0DF02C0B0F03D
:1023200001C0AFF0040EAF27000EB023AFC0E9FF2D
:10233000040EB025EA6EEF6A1200010EAD6FAD51CA
:102340000F0805E3ADC0AEF0C8DFAD2BF8D7120023
:102350002D6A2C6A250E2B6E800E2A6E2E6A2F6A2D
:10236000080E306E7F6B7E91326A316A7A6B7B9198
:102370001200A36BA35101080AE3036AA351280FBB
:10238000E96E000E0320EA6EEF6AA32BF3D7E0DFBD
:102390001B6A010E1C6E1A6A1200689612006A6AA5
:1023A000686A9F0E6B6E3D0E696E6E6AC6DFE1DF76
:1023B000160E706E68A602D0F0DFFCD76D9841DF74
:1023C000030E226EF5EF17F0698468986D82FBEFBB
:1023D00017F0689C01EF18F0A8C023F012002368E2
:1023E0001200A66B275226E0A6513F0823E31D509A
:1023F00005E0020A08E0010A0BE00FD0036A26504C
:10240000A6DEA76F0AD0036A2650F1DEA76F05D0BB
:10241000036A2650DBDEA76F00D0262A2706A651C6
:10242000A62B580FE96E040EEA6ED8B0EA2AA7C0B0
:10243000EFFFD8D7275204E1A651400801E01A6AFD
:10244000A6C0A8F0C9DF1200266A1D6A04011B514C
:10245000010A000107E0030A0AE0010A0BE0220A70
:102460001BE02BD0120E276E030E1D6E28D0430EDC
:10247000276E25D0020E1D6E036A04011A511E0F2D
:10248000E96E000E0320EA6EEFCF26F0036A2650B5
:102490000001ADDE276E13D0036A04011A5100015A
:1024A00089DE266E263C01D006D0036A26504FDE18
:1024B000276E05D002D093DF0ED091DF0CD004013F
:1024C0001F5305E127501E5D02E21EC427F0010ED6
:1024D0001A6E000186DF8FEF13F0A55304E1040E9E
:1024E000226E2BDFC9D0050E226E040EA86F980E47
:1024F000A76F010EA66FA6510F08D8A0BDD0A6C029
:10250000AEF0EBDEA96B036AA651E1DDFF0859E0EE
:10251000040EA96FD890A635036A01DE0900F5CF35
:1025200003F0AA6F03C0ABF0B56BA6C0B4F0B76BF5
:10253000080EB66FC3DE01C0ADF0010E0124016EBE
:10254000000E0220036E01C0E9FF040E0324EA6EB0
:10255000AAC0EFFFB56BA6C0B4F0B76B080EB66F9C
:10256000ADDE01C0ADF0020E0124016E000E0220AE
:10257000036E01C0E9FF040E0324EA6EA8C0ECFF5D
:10258000ED52A7C0EFFFD890A635036AC8DD090059
:10259000F5CF03F0A7270350A823880EAC6FABB18B
:1025A000AC81ABB3AC83B56BA6C0B4F0B76B080E0F
:1025B000B66F84DE01C0E9FF040E0224EA6EACC0EF
:1025C000EFFF036AA65173DDFF0840E0A983B56BF6
:1025D000A6C0B4F0B76B080EB66F70DE02C0AEF0E6
:1025E00001C0ADF0040EAD27000EAE23020EAD25E6
:1025F000016E000EAE21036E01C0E9FF040E03243C
:10260000EA6EA8C0ECFFED52A7C0EFFFD890A63548
:10261000036A6DDD0900F5CF03F0A7270350A82357
:10262000B56BA6C0B4F0B76B080EB66F47DE02C03C
:10263000AEF001C0ADF0040EAD27000EAE23ADC06C
:10264000E9FF040EAE25EA6E400EEF6EA9510608B2
:1026500002E10E0EA96F036AA65129DD0108D8A474
:10266000A989036AA651700FE96E0F0E0320EA6E66
:10267000A9C0EFFFA62B3FD789EF13F00401195132
:10268000000A00010DE0010A14E0020A1EE0060A39
:1026900027E0030A2CE00E0A2CE0010A30E03DD0CE
:1026A0001CC058F40401596B020E0001A86F94DE9F
:1026B00036D004011A2D06D0010E1C160001A86B9D
:1026C0008BDE02D000018BDE2AD004011A2D05D04A
:1026D0001C820001A86B80DE02D0000180DE1FD0CA
:1026E000020E1A6E1AC424F0A86B76DE18D0ACD68F
:1026F00016D01BC058F4010EA86F6EDE10D0040176
:102700001A51010808E31AC41BF01AC4A5F000010D
:10271000E4D6A86B61DE000102D061DE00D003EFD9
:1027200015F01BC0A5F004011951000A000105E0D5
:102730000A0A0BE0010A26E037D00401586B596BF6
:10274000020E0001A86F48DE31D0A55319E0010E3A
:10275000A55D036A26DD016E04011C5DD8A002D0D0
:1027600000010ED0036A1C51280FE96E000E0320F1
:10277000EA6EEFCF58F4010E0001A86F2DDE01D0F4
:102780002EDE14D0A5530EE0036A04011C51280F5D
:10279000E96E000E0320EA6E1AC4EFFF0001A86B79
:1027A0001BDE01D01CDE02D01ADE00D003EF15F0D4
:1027B000A691A5BFA681A59FA6A117D0B56BA5C060
:1027C000B4F0B76B080EB66F79DD02C0A8F001C097
:1027D000A7F0040EA727000EA823A7C0E9FF040E48
:1027E000A825EA6E880EEF6E0DD0B56BA5C0B4F0CB
:1027F000B76B080EB66F62DD01C0E9FF040E02245C
:10280000EA6EEF6A78EF14F0A691A5BFA681A59FA6
:10281000A6A117D0B56BA5C0B4F0B76B080EB66F04
:102820004DDD02C0A8F001C0A7F0040EA727000EDE
:10283000A823A7C0E9FF040EA825EA6E840EEF6E58
:102840000ED0B56BA5C0B4F0B76B080EB66F36DD11
:1028500001C0E9FF040E0224EA6E840EEF6E7EEFE3
:1028600014F0A691A5BFA681A59FA6A117D0B56B10
:10287000A5C0B4F0B76B080EB66F20DD02C0A9F09A
:1028800001C0A8F0040EA827000EA923A8C0E9FFE4
:10289000040EA925EA6EEFCFA7F00ED0B56BA5C048
:1028A000B4F0B76B080EB66F09DD01C0E9FF040E86
:1028B0000224EA6EEFCFA7F0A7AF02D0A7B502D0EF
:1028C000000E01D0010E016E88EF14F01CC4AFF0B1
:1028D000D3DC015229E004011951010A000105E08D
:1028E000020A09E0030A0DE01DD01CC4A5F060D760
:1028F000A86B72DD19D01CC4A5F086D7A86B6CDD5F
:1029000013D00401586B596B1CC4A5F00001A9D762
:10291000015204E0010E0401586F0001020EA86F7D
:102920005BDD02D05CDD00D003EF15F0FE0E236E00
:10293000120004011C2D01D002D01C5349E1195191
:10294000000A00010BE0010A0DE0210A1CE0010A67
:102950001FE0030A2EE0010A31E037D0010E816F3B
:10296000E5DF35D0040EEA6E580EE96EE26A330EEA
:10297000E16E080E016EE6CFEEFF012EFCD71EC4FD
:10298000A8F02ADD24D0020E816F7E81CFDF1FD018
:10299000040EEA6E580EE96EE26A2A0EE16E070E28
:1029A000016EE6CFEEFF012EFCD7070EA86F14DDF7
:1029B0000ED01AC47FF0A86B0FDD09D01AC432F014
:1029C0001BC431F0A86B08DD02D009DD00D0040182
:1029D000000103EF15F01A6A040118517F0B000A79
:1029E000000107E0010A07E0030A07E0230A07E005
:1029F00008D044D608D095D606D068D704D099D749
:102A000002D0EDDC00D028EF17F0B56BA6C0B4F013
:102A1000B76B080EB66F52DC01C0E9FF040E02244A
:102A2000EA6EEFCFA8F0A751020806E1A8AD02D0E8
:102A3000A76B02D0010EA76FA751030819E1840EFE
:102A4000A86FB56BA6C0B4F0B76B080EB66F36DCD6
:102A500002C0ACF001C0ABF0040EAB27000EAC23FB
:102A6000ABC0E9FF040EAC25EA6E840EEF6E07D012
:102A7000A72D03D0C80EA86F02D0880EA86FD890DB
:102A8000A635036A8FEC10F00900F5CF03F0A96FAB
:102A900003C0AAF0B56BA6C0B4F0B76B080EB66F52
:102AA0000DDC01C0ABF0010E0124016E000E02200E
:102AB000036E01C0E9FF040E0324EA6EA9C0EFFF14
:102AC000AAB1A881AAB3A883B56BA6C0B4F0B76BAE
:102AD000080EB66F5EEC11F001C0E9FF040E02248F
:102AE000EA6EA8C0EFFF1200036AB351700FE96EDF
:102AF0000F0E0320EA6EEF5219E0B56BB3C0B4F0CD
:102B0000B76B080EB66F5EEC11F002C0B5F001C0F5
:102B1000B4F0040EB427000EB523B4C0E9FF040ED0
:102B2000B525EA6EEFCFB6F0B6AF02D0000E01D0F9
:102B3000010E016E1200AEC0B3F0D6DF0152D8B460
:102B40007CD0B56BAEC0B4F0B76B080EB66F5EEC60
:102B500011F002C0B4F001C0B3F0040EB327000EB0
:102B6000B423010EB325016E000EB421036E01C023
:102B7000E9FF040E0324EA6EAFC0EFFFB151020873
:102B80001EE1B56BAEC0B4F0B76B080EB66F5EEC6D
:102B900011F002C0B4F001C0B3F0040EB327000E70
:102BA000B423B3C0E9FF040EB425EA6EEFCFB2F050
:102BB000B2AD02D0B16B02D0010EB16F18D0B151DD
:102BC000040815E1B56BAEC0B4F0B76B080EB66F74
:102BD0005EEC11F001C0E9FF040E0224EA6EEFCFB3
:102BE000B2F0B2AD03D0010EB16F01D0B16BB12D17
:102BF00003D0C80EB26F02D0880EB26FB0B1B281EE
:102C0000B0B3B283B56BAEC0B4F0B76B080EB66F9D
:102C10005EEC11F002C0B4F001C0B3F0040EB327B3
:102C2000000EB423B3C0E9FF040EB425EA6EB2C0AF
:102C3000EFFF010E016E03D000D0000E016E1200F6
:102C40008151010A03E0030A13E024D0EA6A330E3B
:102C5000E96E040EE26E180EE16E080E016EE6CF0C
:102C6000EEFF012EFCD7A86BECEC11F0816B14D0B9
:102C7000EA6A2A0EE96E040EE26E180EE16E070E85
:102C8000016EE6CFEEFF012EFCD7816BA86BECEC5A
:102C900011F002D0816B00D082EF16F0B56BA6C0A8
:102CA000B4F0B76B080EB66F5EEC11F002C0A8F07E
:102CB00001C0A7F0010E0124016E000E0220036E78
:102CC00001C0E9FF040E0324EA6E036AEFCF01F0AE
:102CD00003C002F078EF16F07B91020EA66FA76F8B
:102CE00094DE7DEF16F07B817D6B020EA66FD6D74A
:102CF00001C07CF07C5301E1EFD787EF16F0A553BC
:102D000002E19ED704D0A551020801E1ECD71200E0
:102D1000A6C06EFFA65303E0040E226E02D0020E80
:102D2000226E98EF16F01B6A1A6A24C0A6F0F0D73C
:102D300007EF17F0A6C0B3F0D7DE015246E0B56B3F
:102D4000A6C0B4F0B76B080EB66F5EEC11F002C00F
:102D5000AFF001C0AEF0040EAE27000EAF23020E9E
:102D6000AE25016E000EAF21036E01C0E9FF040E17
:102D70000324EA6EECCF03F0ED52EFCFACF003C0CA
:102D8000ADF0ADC0EAFFACC0E9FFA8C0E2FFA7C04C
:102D9000E1FFAAC002F0A9C001F0015202E0022A3C
:102DA00002D0025206E0E6CFEEFF012EFCD7022E43
:102DB000FAD7A6C0AEF0AAC0B0F0A9C0AFF0ABC0C1
:102DC000B1F0B9DE015003D000D0000E016E120048
:102DD000020EA66FA86B3B0EA76FAA6B7AC0A9F074
:102DE000020EAB6FA7DF7AC080F07A6B12007A53C5
:102DF00001E0EEDF0CEF17F0A5530AE11A2C03D027
:102E0000F1EC11F004D01A50020801E18CD704D083
:102E1000A551020801E1EBD712002130A36FA333C3
:102E2000A3331F0EA317215242E1040100513C0BB2
:102E30000001A46F430E040100170001A4513408DF
:102E40001EE104010451800B01E0046B0001C3D5B5
:102E50006D98233C05D0A66B030EA76FD6DD0ED070
:102E6000A66B020EA76FD1DD2350FE0807E0AE6B04
:102E7000B06B23C0AFF0040EB16F5DDE17D0A4516C
:102E8000040814E1A56B3BDFA66B020EA76FBDDD46
:102E90002350FE080AE0233C01D007D0AE6BB06B94
:102EA00023C0AFF0010EB16F46DE00D07BD02150C1
:102EB000040813E1430E0401041723680001A56B05
:102EC0009BDF233C01D008D0AE6BB06B23C0AFF0CA
:102ED000020EB16F30DE00D065D021B42CD0B56BBE
:102EE000A3C0B4F0B76B080EB66F5EEC11F002C071
:102EF000A6F001C0A5F001C001F0040E0224036E8B
:102F000001C0A7F0A86FB56BA3C0B4F0B76B080EF3
:102F1000B66F5EEC11F001C0E9FF040E0224EA6E08
:102F2000EF50430BA8C0EAFFA7C0E9FFEF6EA3C0B4
:102F3000A5F0E5DE37D0B56BA3C0B4F0B76B080ED3
:102F4000B66F5EEC11F002C0A6F001C0A5F0040E51
:102F5000A527000EA623A5C001F0040EA625036E2A
:102F6000A5C0A7F0A86FB56BA3C0B4F0B76B080EEF
:102F7000B66F5EEC11F002C0AAF001C0A9F0040E19
:102F8000A927000EAA23A9C0E9FF040EAA25EA6E0C
:102F9000EF50430BA8C0EAFFA7C0E9FFEF6EA3C044
:102FA000A5F02ADF0BEF18F0A19A225201E139D0E7
:102FB000685237E068A404D069A402D019EF11F078
:102FC0006DA201D02ED068AA04D069AA02D031EF38
:102FD00011F068A204D069A202D038EF11F068A005
:102FE00004D069A002D0CFEF11F068A804D069A87E
:102FF00002D0E4EF11F068AC04D069AC02D0E9EF84
:1030000011F0A26B68A608D069A606D06CCF21F09B
:10301000CDEC11F002D701D004D0A251A22B0308AD
:10302000F1E230EF10F020536F6E6172207465731F
:10303000740A0D0044697374616E6365203D202538
:103040004C7520636D0A0D006D6A696A080E6F6E1B
:1030500094503009946E226A196AF2BE198EF29E5B
:10306000B9EC11F019BEF28E37EF18F0EDD75DEF25
:1030700018F0196AF2BE198EF29EB9EC11F019BE61
:10308000F28E6D6A140E6F6E696A6D86010E226E85
:103090004DEF18F06DB601D0ECD7222C0BD06DBAE5
:1030A00009D0686A696AA08AC00EF212110E696EB0
:1030B000020E226E5EEF18F0D9D7ECD7225002082C
:1030C000FCE16AEF18F01B5202E10400FCD76BEF41
:1030D00018F0F2D7F8D77CEF19F0EA6A860EE96E9D
:1030E000EF500EE00F0E016E006A002EFED7012E8B
:1030F000FBD78F0E006E002EFED70000EF2EF2D70A
:1031000012009091F2BE9081F29E7A513E0802E246
:103110003E0E7A6F7A517A2B036A3B0FE96E000EEE
:103120000320EA6E8FC0EFFFF29E90B1F28E9CEF0B
:1031300018F08EC08FF0E5D7196AF2BE198EF29E94
:10314000020EB36FD1DC19BEF28E015207E0196A8C
:10315000F2BE198EF29E3CDE19BEF28EC9EF18F057
:103160007A513E0813E2196AF2BE198EF29E020EDF
:10317000B36FBADC19BEF28E015207E0196AF2BED3
:10318000198EF29E25DE19BEF28EEAD78DC08EF022
:10319000D0D712000900F5520CE0F6CF84F0F7CF3B
:1031A00085F0F5CF8DF0DCDF84C0F6FF85C0F7FF3A
:1031B000F1D78AEF19F0856B846B93928A82C70EE0
:1031C000006E002EFED700D093928A92938081A049
:1031D000FDD7938081A009D0842BD8B4852BE70E2E
:1031E000006E002EFED700D0F4D7320E866F75DF4A
:1031F00084C001F085C002F092EF19F00900F6CF0B
:1032000085F0F7CF86F0F5CF8DF0AADF85C0F6FF09
:1032100086C0F7FF842FF2D71200EACF8CF0E9CFF7
:103220008BF08539F009876F8727E20F886F320F9F
:103230008A6F85510F0B882788278A27E90F896FA6
:103240008927892784390F0B89278A2789378A3765
:103250008A1F8A3784510F0B8A278737070E866F9C
:103260000A0E89078A27FDE388078927FDE3870778
:103270008827FDE386078727FDE3EA6A860EE96E65
:10328000070E8B158B9DE9268A0EE95CD8B48B8DD1
:10329000EF50006E08E18BBD06D08BB913D08BB711
:1032A00002D0200E03D08B878B99300E0026EACFF8
:1032B00085F0E9CF84F000C08DF052DF85C0EAFFD1
:1032C00084C0E9FFEE508BADDFD7A4EF19F0F86AA8
:1032D000D09E078EEA6AE96A226A276A7A6B816B56
:1032E000C150C00B0F09C16E070EB46E1E6A040EEA
:1032F0001F6E0C0E206EEDD6010E936E040E846FC1
:10330000FA0E866FEADE842FFBD7260EF66E300E9D
:10331000F76E40D7040E846FFA0E866FDEDE842FC0
:10332000FBD749D702C083F001C082F0340EF66E9D
:10333000300EF76E0B0E846F61DF100EE96E83C0E6
:1033400085F082C084F069D7420EF66E300EF76EBB
:10335000050E846F53DF040E846FFA0E866FBDDE98
:08336000842FFBD7DED7030028
:020000040030CA
:0E00000024CE3E1E0085A1000FC00FE00F4071
:00000001FF
;PIC18F4550
;CRC=F778  CREATED="24-feb-14 10:42"
