:04200000EAEF11F002
:08200800046ED8CF05F0E0CF13
:1020100006F00001E9CF0CF0EACF07F0E1CF08F0BD
:10202000E2CF09F0D9CF0AF0DACF0BF0F3CF12F0FC
:10203000F4CF13F0FACF14F0F5CF15F0F6CF16F079
:10204000F7CF17F000C00EF001C00FF002C010F083
:1020500003C011F0A0A230EF10F0A1B257EF10F0C2
:102060000EC000F00FC001F010C002F011C003F06C
:102070000CC0E9FF07C0EAFF078E08C0E1FF09C0F6
:10208000E2FF0AC0D9FF0BC0DAFF12C0F3FF13C092
:10209000F4FF14C0FAFF15C0F5FF16C0F6FF17C015
:1020A000F7FF045006C0E0FF05C0D8FF1000F60E91
:1020B000B36E9F0EB26E19A008D028501B5C03E3CC
:1020C00093908A8002D093908A9019A208D02850C9
:1020D0001C5C03E393928A8202D093928A9219A4A1
:1020E00008D028501D5C03E393948A8402D0939413
:1020F0008A9419A608D028501E5C03E393968A861A
:1021000002D093968A9619A808D028501F5C03E342
:1021100093988A8802D093988A9819AA08D0285050
:10212000205C03E3939A8A8A02D0939A8A9A19AC24
:1021300008D02850215C03E3939C8A8C02D0939CA6
:102140008A9C19AE08D02850225C03E3939E8A8EA5
:1021500002D0939E8A9E1AA008D02850235C03E3E5
:1021600095908C8002D095908C901AA208D028501F
:10217000245C03E395928C8202D095928C921AA4EF
:1021800008D02850265C03E395948C8402D0959463
:102190008C941AA608D02850275C03E3929889886B
:1021A00002D092988998282A28500A0802E2010E43
:1021B000286EA19230EF10F02D50016A2C5C03E2E2
:1021C0002CC000F00CD0006A080E2E6E2C360036A3
:1021D0002D50005CD8B0006E01362E2EF7D70EEFD2
:1021E00011F01AB810D02A5011080DE02A50120828
:1021F0000AE0950EB16EF60EB36E9F0EB26EC00E73
:10220000F212A0821A882A5011080BE02A501208F4
:1022100008E02BC02CF00A0E2D6ECED701C02BF09B
:1022200008D01ABA06D0000E0509CA6E640ECB6E2D
:102230001A8A2B52D8A45BD02A501BE0010A1DE059
:10224000030A1FE0010A21E0070A23E0010A25E052
:10225000030A27E0010A29E00F0A2BE0010A2DE01A
:10226000030A2FE0010A31E01A0A33E0030A36E0DC
:102270003CD0199093908A9039D0199293928A9277
:1022800035D0199493948A9431D0199693968A965E
:102290002DD0199893988A9829D0199A939A8A9A46
:1022A00025D0199C939C8A9C21D0199E939E8A9E2E
:1022B0001DD01A9095908C9019D01A9295928C926C
:1022C00015D01A9495948C9411D01A969298899856
:1022D0000DD09482BA6A94928B9208D09484BD6A8D
:1022E000B76AB66A94948B9401D000D05ED02A501D
:1022F0001BE0010A1DE0030A1FE0010A21E0070AB2
:1023000023E0010A25E0030A27E0010A29E00F0A79
:102310002BE0010A2DE0030A2FE0010A31E01A0A3E
:1023200033E0030A38E040D019802BC01BF03DD0C9
:1023300019822BC01CF039D019842BC01DF035D068
:1023400019862BC01EF031D019882BC01FF02DD05C
:10235000198A2BC020F029D0198C2BC021F025D050
:10236000198E2BC022F021D01A802BC023F01DD053
:102370001A822BC024F019D01A842BC026F015D055
:102380001A862BC027F011D094928B920C0EBA6E45
:102390002BC0BBFF0AD094948B940C0EBD6EB76A11
:1023A000B66A2BC0BEFF01D000D01200EA6A2B0E25
:1023B000E96EEF500EE00F0E016E006A002EFED7A0
:1023C000012EFBD78F0E006E002EFED70000EF2EE1
:1023D000F2D71200F86AD09E078EEA6AE96A1A9864
:1023E0001A9A010E286E296AC150C00B0F09C16EDE
:1023F000070EB46E8A8093908A9293922950640853
:102400000AE3110E2A6E29C02BF0EBDE292A320EC8
:102410002B6ECCDFF3D7295000080AE2110E2A6E8A
:1024200029C02BF0DEDE2906320E2B6EBFDFF3D77C
:10243000040E2A6EFA0E2B6EB9DF2A2EFBD7DED7DA
:02244000030097
:020000040030CA
:0E00000024CE3E1E0085A1000FC00FE00F4071
:00000001FF
;PIC18F4550
;CRC=63E8  CREATED="22-sep-15 12:45"
