:0420000041EF11F0AB
:08200800F76A180FF66E200EB6
:10201000F7220900F5501200280C0106484F4C41E8
:10202000204D554E444F0000EA6A080EE96EEF500D
:102030000EE00F0E016E006A002EFED7012EFBD7B8
:102040008F0E006E002EFED70000EF2EF2D712008A
:102050000FB002D08A9801D08A8893980FB202D02C
:102060008A9A01D08A8A939A0FB402D08A9C01D0AE
:102070008A8C939C0FB602D08A9E01D08A8E939E42
:1020800000008A809390070E006E002EFED700D0CD
:102090008A9093901200106A9388000E81B8010E06
:1020A0001012938A000E81BA010E006ED89000368D
:1020B00000501012938C000E81BC010E006E003691
:1020C0000036FC0E001600501012938E000E81BEDA
:1020D000010E006E003600360036F80E0016005075
:1020E000101210C001F012009388938A938C938E83
:1020F0008A84939400008A8093900000CCDF01C012
:102100000FF08A90939000008A809390030E006EE7
:10211000002EFED700D0BFDF01C00EF08A90939052
:102120009398939A939C939E0F38006EF00E00162E
:1021300000500E10016EA3EF10F0939093929394C1
:102140008A929392D1D701C00EF001BEFBD70C52F8
:1021500002E18A9201D08A82939200008A94939439
:1021600000008A9093900D380E6E0F0E0E160EC062
:102170000FF06EDF0D500F0B0E6E0F6E69DF120049
:102180009398939A939C939E9390939293948A920C
:1021900093928A9493948A9093900F0E086E44DFE2
:1021A000010E056E055003080AE3030E0F6E50DFA3
:1021B0000F6A4EDF050E086E37DF052AF3D7020ED1
:1021C0000F6E46DF0F6A44DF050E086E2DDF056ACD
:1021D0000550030809E3036A055016DF066E0C6A12
:1021E0000D6EABDF052AF4D74CEF11F0092C01D0AE
:1021F00003D0400E0A6E01D00A6A010E085C0A265E
:102200000A5080090B6E0C6A0D6E97DF12000750A2
:10221000070A07E00B0A0AE0060A10E0020A14E0C7
:1022200018D0010E086E096EE1DF19D00C6A010E9C
:102230000D6E83DF020E086EF7DE11D0010E086E00
:10224000020E096ED3DF0BD00C6A100E0D6E75DF17
:1022500006D0010E0C6E07C00DF06FDF00D012002B
:102260000900F5520CE0F6CF05F0F7CF06F0F5CFF8
:1022700007F0CDDF05C0F6FF06C0F7FFF1D758EF36
:1022800011F0F86AD09EEA6AE96AC150C00B0F09E2
:10229000C16E070EB46E74D70C0E076EB8DF010E58
:1022A000086E096EA3DF1C0EF66E200EF76ED8D7EF
:0A22B000C80E086EB9DEF3D7030074
:020000040030CA
:0E00000024CE3E1E0085A1000FC00FE00F4071
:00000001FF
;PIC18F4550
;CRC=CAC3  CREATED="22-sep-15 12:40"
